:020000040800F2
:10000000C07100209D010008A5010008A70100089B
:10001000A9010008AB010008AD01000800000000C4
:10002000000000000000000000000000AF01000818
:10003000B101000800000000B3010008E744000817
:10004000B7010008B7010008B7010008B7010008B0
:10005000B7010008B7010008B7010008B7010008A0
:10006000B7010008B7010008B70100083104000813
:10007000B7010008B7010008B7010008B701000880
:10008000B7010008B7010008C5020008B701000861
:1000900021570008B7010008B7010008B7010008A0
:1000A000B7010008B7010008B7010008B701000850
:1000B000B7010008CD450008B7010008B7010008E6
:1000C000B7010008B7010008B7010008B701000830
:1000D000B7010008B7010008B7010008B701000820
:1000E000B7010008B7010008B7010008B701000810
:1000F000B7010008B7010008B7010008D1020008E5
:10010000000000000000000000000000B70100082F
:10011000B7010008B7010008B7010008B7010008DF
:10012000B7010008B70100083D04000849040008B1
:1001300055040008DD020008000000000000000077
:10014000B7010008B7010008B7010008000000006F
:10015000000000000000000000000000000000009F
:100160000000000000000000B7010008B70100080F
:10017000B7010008000000000000000000000000BF
:1001800000000000B7010008DFF80CD000F078F89C
:1001900000480047455E0008C071002006488047BF
:1001A00006480047FEE7FEE7FEE7FEE7FEE7FEE75C
:1001B000FEE7FEE7FEE7FEE771450008890100085B
:1001C000202A04DB203A21FA02F00021704721FAAC
:1001D00002F3D040C2F12002914008431946704713
:1001E00040EA01039B0703D009E008C9121F08C0B9
:1001F000042AFAD203E011F8013B00F8013B521E39
:10020000F9D2704730B504460020034600E05B1C7D
:10021000934203D2E05CCD5C401BF8D030BD2DE9A9
:10022000F05F0546002092469B468846064681467A
:1002300040241BE02846414647462246FFF7C0FFC0
:1002400053465A46C01A914110D3114618462246C9
:1002500000F028F82D1A67EB01084F4622460120CE
:10026000002100F01FF817EB00094E41201EA4F1F9
:100270000104DFDC484631462A464346BDE8F09F8C
:10028000064C074D06E0E06840F0010394E80700E3
:1002900098471034AC42F6D3FFF77AFF706200083B
:1002A00090620008202A04DB203A00FA02F10020C4
:1002B00070479140C2F1200320FA03F319439040A4
:1002C00070470000014800F069BB0000C400002036
:1002D000014800F063BB000018010020014800F055
:1002E0005DBB00006C0100200146486A426C12F0C0
:1002F000500F03D0C06B026B08461047416C41F4AD
:10030000007141640168C96811F4406F0CD1C16982
:1003100051B9416C21F480714164416CC90403D42A
:10032000416C41F00101416400F034BB406A416C12
:1003300041F040014164816C41F00401816400F0AE
:100340002BBB406A00F027BB70B50446206881686B
:1003500001F0030101292FD10168C9072CD0816860
:1003600001F00D01012909D0606C40F010006064BB
:10037000A06C40F00100A064012070BD816841F0D4
:100380000201816021680320086001F03BFC054602
:100390000EE001F037FC401B022809D9606C40F0E8
:1003A00010006064A06C40F00100A064012070BDEA
:1003B00020688068C007ECD1002070BD70B504468D
:1003C0002068816801F00301012902D10168C90791
:1003D00029D18168154A114209D0606C40F01000A3
:1003E0006064A06C40F00100A064012070BD8168D1
:1003F00041F00101816001F005FC05460EE001F0CD
:1004000001FC401B022809D9606C40F010006064B8
:10041000A06C40F00100A064012070BD206800685D
:10042000C043C007EBD1002070BD00003F0000803A
:10043000014800F0AFBF0000E4070020014800F0D1
:10044000A9BF00008C080020014800F0A3BF0000F5
:1004500054080020014800F09DBF00001C08002047
:1004600010B5046863604368102B04D0036899607A
:100470000068C26010BD03689A600068C16010BD6A
:1004800070477047704770472DE9F041002390F89E
:100490004020012A12D0012780F840700268946839
:1004A00014F00C0F0CD0416C41F020014164012389
:1004B000002180F840101846BDE8F0810220FBE7DB
:1004C0000E68012E0FD0D4684FF0040CC4F3C104A1
:1004D000032C37D00C69D568C5F3C1056D420CEB10
:1004E0004505EC4030E0D468484D2C400D7A44EA94
:1004F00085644D682C43D46002680C8AD568C5F3C6
:10050000C1056D00AC404D69D668C6F3C1067600E2
:10051000B540166A45EA044406F0F0262643166202
:10052000046880222260C968012905D001684A68F0
:1005300022F080024A60BBE701684A6842F080020C
:100540004A60B5E70C69A400D568C5F3C105032D61
:100550000BD04D69D2F80C80C8F3C108C8F100086F
:100560000CEB480C25FA0CF501E04D69AD00DFF805
:10057000A0C0022E10D04E6866B3966A45EA0444C5
:1005800006F0FF2626439662026852F8A44F0D7AC1
:10059000AF403C43146027E04E6876B1566A45EAA6
:1005A000044406F0FF2626435662026852F8A04F24
:1005B0000D7AAF403C43146009E0546A04F0FF2414
:1005C0005462026852F8A04F04EA0C0414604FF41D
:1005D00080720BE0946A04F0FF249462026852F87F
:1005E000A44F04EA0C0414604FF4007205682A60FA
:1005F000C968012904D001684C6894434C6057E7EE
:1006000001684C6814434C6052E70000FFFF3F82D2
:100610000100F8FF2DE9F04196B000250026009674
:1006200090F84020012A19D0012780F84070026814
:1006300093685B077ED44B681F24052B12D2D2F837
:1006400030C003EB43035B009C402CEA040C0C68B5
:100650009C404CEA040CC2F830C036E0022016B0D0
:10066000BDE8F0810A2B0FD2D2F834C05B1F03EB38
:1006700043035B009C402CEA040C0C689C404CEA51
:10068000040CC2F834C020E00F2B0FD2D2F838C0CF
:100690000A3B03EB43035B009C402CEA040C0C6810
:1006A0009C404CEA040CC2F838C00EE0D2F83CC0C2
:1006B0000F3B03EB43035B009C402CEA040C0C68EB
:1006C0009C404CEA040CC2F83CC0026893684FF0AE
:1006D000070C13F00C0F63D10B680A2B0FD394692E
:1006E0000A3B03EB43030CFA03F824EA0804D1F8AD
:1006F000088008FA03F844EA080494610DE054699C
:1007000003EB43030CFA03F824EA0804D1F8088049
:1007100008FA03F844EA0804546102684B69D46893
:10072000C4F3C1046400A3400C69DFF84882012CC3
:100730003DD000E015E1022C45D0032C4FD0042C15
:1007400059D0136E0C7803F0F843B3EB846F03D1E8
:10075000136E23F0004313660268536E0C7803F0A7
:10076000F843B3EB846F03D1536E23F00043536619
:100770000268936E0C7803F0F843B3EB846F03D1F7
:10078000936E23F0004393660268D36E0C7803F0F7
:10079000F843B3EB846F03D1D36E23F00043D366E9
:1007A0000268936803F00303012B33D12FE0146E2A
:1007B00004EA080491F8008043EA88631C4344F08B
:1007C00000431366ECE7546E04EA080491F80080D5
:1007D00043EA88631C4344F000435366E0E7946EA9
:1007E00004EA080491F8008043EA88631C4344F05B
:1007F00000439366D4E7D46E04EA080491F80080BD
:1008000043EA88631C4344F00043D366C8E7136897
:10081000DB077CD1CB68012B06D052F8B03F0C78B7
:10082000A740BB43136023E052F8B03F0C78A740C9
:100830003B4313600A680A2A0DD303689C69093A8E
:1008400002EB42020CFA02FC8F6824EA0C04974087
:100850003C439C610CE003685C69521C02EB420261
:100860000CFA02FC8F6824EA0C0497403C435C615C
:1008700003684FF0A044404FA34201D0BB4201D1D6
:100880003E4A00E03E4A0968102904D1D2F808C067
:100890005FEA0C2C0DD5112904D1D2F808C05FEA0B
:1008A000CC1C06D5122961D1D2F808C05FEA4C2CC5
:1008B0005CD4A34201D1019710E0BB4201D1019465
:1008C0000CE0304FDFF8C0C0BB4202D1CDF804C00D
:1008D00004E0634501D1019700E001969F6807F0AD
:1008E0000307012F02D11F68FF070BD1019F7FB1C2
:1008F000019FBF6807F00307012F09D1019F3F68DF
:10090000FF0705D0416C41F02001416401252DE035
:10091000102916D1A34214D1916841F400019160CD
:100920001A491B4A0968B1FBF2F101EB8101490048
:10093000009102E00099491E009100990029F9D127
:1009400014E0112906D1A34204D1916841F08071CD
:1009500091600BE0122909D1916841F48001916006
:1009600004E0416C41F020014164012580F84060C1
:10097000284674E600F0FF83000100500003005099
:100980000007005000040050000500501400002033
:1009900040420F0070477047704700002DE9F04754
:1009A0000446002620680168D04FDFF84493D14DFB
:1009B00049074FF0A04802D54168490705D40168AE
:1009C000090768D54168090765D5616CC90603D474
:1009D000616C41F400716164404501D0A84204D1CA
:1009E000D8F8081301F01F0102E0396801F01F0177
:1009F00001B3404501D0A84204D1D8F8081301F052
:100A00001F0102E0396801F01F01052912D040459D
:100A100001D0A84204D1D8F8081301F01F0102E068
:100A2000396801F01F01092904D0404502D0494628
:100A3000884201D1C16803E0A84200D14146C9689B
:100A4000C26801F4005102F440620A431DD10168FA
:100A500009071AD5816849070FD4416821F00C01B4
:100A60004160606C20F480706064606CC0040CD4E1
:100A7000606C40F00100606407E0606C40F01000C2
:100A80006064A06C40F00100A0642046FFF782FF84
:100A900021680C20086020680168890602D5416839
:100AA000890605D4016849067AD54168490677D593
:100AB000616C41F400516164404501D0A84204D109
:100AC000D8F8081301F01F0102E0396801F01F0196
:100AD00001B3404501D0A84204D1D8F8081301F071
:100AE0001F0102E0396801F01F01052912D04045BD
:100AF00001D0A84204D1D8F8081301F01F0102E088
:100B0000396801F01F01092904D0404502D0494647
:100B1000884201D1C16803E0A84200D14146C968BA
:100B2000C26C12F0C00F08D08A015BD4C26801F415
:100B3000005102F440620A4354D10168490651D57C
:100B4000404501D0A84204D1D8F8081301F01F0194
:100B500002E0396801F01F0101B3404501D0A8420D
:100B600004D1D8F8081301F01F0102E0396801F040
:100B70001F01062912D0404501D0A84204D1D8F85F
:100B8000081301F01F0102E0396801F01F01072975
:100B900004D0404502D04946884202D1C16804E0F1
:100BA00026E0A84200D14146C96889021AD481686A
:100BB00009070FD4416821F060014160606C20F4A6
:100BC00080506064606CC0050CD4606C40F0010023
:100BD000606407E0606C40F010006064A06C40F05E
:100BE0000100A0642046FFF74BFC216860200860EC
:100BF0002068016809060CD54068000609D5606CBC
:100C000040F480306064204600F0A6F9216880201E
:100C1000086020680168C9050DD54068C0050AD57F
:100C2000606C40F4003060642046FFF72BFC2168C4
:100C30004FF4807008602068016889050DD5406810
:100C400080050AD5606C40F4802060642046FFF780
:100C50001AFC21684FF40070086020680168C9061A
:100C60002DD54168C9062AD5A16B012905D040457B
:100C700001D0A84203D1204903E0012609E01B4925
:100C800008398A68D20607D0886810F4404F00D02F
:100C90000126012E05D00FE0C068C007F9D001265B
:100CA000F7E7606C40F480606064A06C40F0020084
:100CB000A0642046FFF770FE2168102008602068BD
:100CC0000168490510D5416849050DD5616C41F4AD
:100CD00080416164A16C41F00801A1644FF480611E
:100CE00001602046FFF7CDFBBDE8F0870807005004
:100CF0000004005000010050000300502DE9F041B5
:100D000096B004460025002700260096002C05D04A
:100D1000606CC0064DD4606C20B138E0012016B084
:100D2000BDE8F081A6642665E66484F8406020464C
:100D300000F024F920688068C00028D42046FFF71E
:100D400003FB0546606C00F0100129431FD1606C65
:100D500020F4885040F0020060642068816821F02F
:100D6000405181602068816841F080518160724803
:100D700072490068B0FBF1F000EB80004000009089
:100D800002E00098401E009000980028F9D12068E9
:100D90008168C90002D5806880000AD5606C20F0A7
:100DA000020040F010006064A06C40F00100A064FC
:100DB0000125606C00F01000284370D12068816824
:100DC00049076CD4616C21F4807141F002016164C7
:100DD0004FF0A0485A4A404501D0904201D15949AC
:100DE00000E05949594BDFF868C1404501D10192F3
:100DF0000EE0904202D1CDF8048009E0604501D1B7
:100E0000019305E0984202D1CDF804C000E00196BC
:100E1000826802F00302012A02D10068C00711D1E2
:100E2000019848B10198806800F00300012803D1BF
:100E300001980068C00705D18868626820F44030D6
:100E400010438860D4E902100843A16B012902D045
:100E50004FF4805200E00022E16942EA413210433F
:100E60003843626A012A0AD1D1B1616C21F00201D2
:100E700041F020016164A16C41F00101A164E16ACB
:100E8000012920D02268624501D09A4218D14FF43E
:100E900030734FF4E072994209D1114610E041E0FD
:100EA000218D491E40EA414040F48030E7E74FF48D
:100EB0008077B94201D1194602E0914200D139460A
:100EC0000143206B084321688A6812F00C0F0AD195
:100ED000CA6844F202039A43CA60A169626B89033B
:100EE00041EA420108432168CA681A4B1A4002438A
:100EF000CA60206901280CD02068016B21F00F0125
:100F00000163A664606C20F0020040F001006064A0
:100F10000FE02068016B226A21F00F01521E11437D
:100F20000163EEE7606C20F0020040F010006064A6
:100F300001252846F3E600001400002040420F007F
:100F40000001005000030050000700500005005051
:100F50000004005007C0F0FF10B50446054A002108
:100F60001170054802F024FC2068C16821F40001DA
:100F7000C16010BD08000020E80200202DE9F84300
:100F80000446802321680022454D5E00DF004FF0BB
:100F9000200CB1F1A04F0DD0DFF80C81DFF80491E7
:100FA000D8F80000401C494548D1C8F80000012885
:100FB00022D029E0686940F080506861686900F0DB
:100FC000805000903A4D394828606A60AA60EB6012
:100FD0002E616F61C5F818C0EA61284600F0F2FC86
:100FE000E5636C6200221146122000F05FFEBDE84E
:100FF000F843122000F04EBE686940F0005068616E
:10100000686900F0005000902B4D2A4828606A6003
:10101000AA60EB602E616F61C5F818C0EA612846CE
:1010200000F0D0FCE5636C62002211462F2000F036
:101030003DFEBDE8F8432F2000F02CBEDFF87C9089
:1010400049452BD1C8F80000012807D1686940F054
:1010500000506861686900F0005000901548184D14
:10106000143828606A60AA60EB602E616F61C5F871
:1010700018C0EA61284600F0A5FC1248016841F456
:1010800080710160E5636C62002211463D2000F032
:101090000DFEBDE8F8433D2000F0FCBDBDE8F8833F
:1010A0000010024000040050000000200800024030
:1010B000E4070020580402401C08002000050050EE
:1010C00054080020000001402DE9F05F04468A46E4
:1010D000934620688168490772D494F8401001292A
:1010E00010D0012184F840104FF0A048DFF824917F
:1010F000494F404501D0B84207D1D8F8080300F065
:101100001F0006E00220BDE8F09FD9F8000000F0C3
:101110001F00002618B1012584F8406078E02046C1
:10112000FFF74CF90546280002D084F840606FE0D4
:10113000606C40F60161884340F480706064206810
:10114000404501D0B84204D1D8F8081301F01F017E
:1011500003E0D9F8001001F01F0121B1404502D091
:101160002E4988420DD1616C21F480116164C06800
:1011700080011DD5606C20F4005040F48050606404
:1011800016E0616C41F480116164B84204D1D8F872
:101190000C0000F0007004E020480C30006800F003
:1011A000007028B1606C20F4005040F480506064FE
:1011B000606CC00405D5A06C20F00600A06401E0BE
:1011C00025E0A66484F84060E16B15488862E16B15
:1011D0001448C862E16B1448086321681C20086049
:1011E0002068416841F0100141602068C16841F009
:1011F0000101C16021685B4640315246E06B00F05E
:101200000AFC2068816841F00401816000E0022549
:10121000284678E7080700500001005000040050FD
:10122000E9020008430300082D03000870B5437964
:10123000012B13D0012646710223037103681C6839
:101240004FF47C658D4042F08002AC438A401443E9
:101250001C60067100214171002070BD022070BD2C
:1012600070B54379012B1AD0012646710223037110
:1012700003681D6840F6FE749440A543D1E900411F
:101280000C4394402C431C6001680B68C0249440BC
:10129000A3430B60067100214171002070BD022044
:1012A00070BD70B50446002C03D02079002510B124
:1012B00005E0012070BD6571204600F007F80220AE
:1012C0002071256101202071002070BDF0B587B02C
:1012D000054616492868884226D11548C16941F05B
:1012E0000051C161C06900F00050019010270297C1
:1012F000032003900026049602A94FF0904000F0CE
:10130000B7FB0D4C0B4820606760A6608020E06052
:1013100040002061800060612020A061E6612046DD
:1013200000F050FBAC60656207B0F0BD0074004097
:1013300000100240300402408C08002030B5427991
:10134000012A11D001252B46457102220271026843
:1013500014688B401C43146041B101680A68C2F3F1
:1013600083420F2A0DD010E0022030BD01680A68C8
:10137000C2F383020F2A08D14A6842F001024A6090
:1013800003E04A6842F002024A600571002141719F
:10139000002030BD2DE9F05F0446F94AF84DF84EC3
:1013A000F74FD114DFF8D883DFF8D493DFF8D0A358
:1013B00020680B02783D643E503FDFF8C8B34FF41D
:1013C000004EA8F13C08A9F12809AAF1140A90429C
:1013D00036D9EC4A083AD2F800C0A84201D1082216
:1013E0002BE0B04201D1802227E0B84201D10A4669
:1013F00023E0404501D172461FE0484501D11A461D
:101400001BE0504502D14FF4000216E0584501D1CF
:10141000082212E0DB4A1432904201D180220CE013
:10142000D84A2832904201D10A4606E0D54A3C32D9
:10143000904201D1724600E01A460CEA020C3AE0F2
:10144000CF4A803AD2F800C0A84201D1082230E049
:10145000B04201D180222CE0B84201D10A4628E0F6
:10146000404501D1724624E0484501D11A4620E0AA
:10147000504502D14FF400021BE0C14A904201D115
:10148000020516E0584501D1082212E0BD4A143287
:10149000904201D180220CE0BA4A2832904201D118
:1014A0000A4606E0B74A3C32904201D1724600E05B
:1014B0001A460CEA020CBCF1000F7FD00268D2433E
:1014C00012077BD4026822F008020260AC4A20684E
:1014D00090422FD9A84201D1082127E0B04201D182
:1014E000802123E0B84221D0404501D171461DE062
:1014F000484501D1194619E0504502D14FF4000189
:1015000014E0584501D1082110E09E4A143290425F
:1015100001D180210AE09B4A2832904206D09949A5
:101520003C31884201D1714600E019469548001FC0
:10153000016033E0A84201D108212CE0B04201D182
:10154000802128E0B84226D0404501D1714622E0F2
:10155000484501D119461EE0504502D14FF4000123
:1015600019E0904202D14FF0006114E0584501D1DA
:10157000082110E0834A1432904201D180210AE010
:10158000804A2832904206D07E493C31884201D1BF
:10159000714600E019467A4880384160606B40F03F
:1015A00001006063042084F82100002084F82000FA
:1015B000216B09B1204600E000E08847704A2068AE
:1015C00011150B014FF4802E904236D96D4A083A1E
:1015D000D2F800C0A84201D104222BE0B04201D1D0
:1015E000402227E0B84201D10A4623E0404501D11C
:1015F0001A461FE0484501D172461BE0504502D112
:101600004FF4800216E0584501D1042212E05D4AF1
:101610001432904201D140220CE05A4A28329042C2
:1016200001D10A4606E0574A3C32904201D11A469F
:1016300000E072460CEA020C3AE0514A803AD2F8D5
:1016400000C0A84201D1042230E0B04201D14022C2
:101650002CE0B84201D10A4628E0404501D11A46A3
:1016600024E0484501D1724620E0504502D14FF4B4
:1016700080021BE0424A904201D1C20416E0584564
:1016800001D1042212E03F4A1432904201D140229B
:101690000CE03C4A2832904201D10A4606E0394A21
:1016A0003C32904201D11A4600E072460CEA020C2C
:1016B000BCF1000F7CD00268D243520778D4026894
:1016C000920603D4026822F0040202602C4A2068C9
:1016D00090422FD9A84201D1042127E0B04201D184
:1016E000402123E0B84221D0404501D119461DE0F8
:1016F000484501D1714619E0504502D14FF48001AF
:1017000014E0584501D1042110E01E4A14329042E1
:1017100001D140210AE01B4A2832904206D01949E3
:101720003C31884201D1194600E071461548001F3E
:10173000016036E0A84201D1042130E0B04201D17D
:1017400040212CE0B8422AD0404501D1194626E07C
:10175000484501D1714622E0504502D14FF4800145
:101760001DE0904202D14FF0806118E0584501D150
:10177000042114E0034A1432904206D140210EE0C5
:10178000800002400804024012E08C4A904206D0D9
:101790008A491431884201D1194600E071468848CF
:1017A0004160112084F82100E16A09B12046884790
:1017B000DFF80CC24FF4007120680CF1800C0B01B3
:1017C000604537D97D4A303AD2F800E0A84201D1CD
:1017D00002222CE0B04201D1202228E0B84201D1FF
:1017E0000A4624E0404501D11A4620E0484502D18E
:1017F0004FF400321BE0504502D14FF4001216E0C6
:10180000584501D1022212E06C4A143A904201D1AB
:1018100020220CE0694A904201D10A4607E0674A5B
:101820001432904201D11A4601E04FF400320EEA20
:10183000020E3AE0624AD2F800E0A84201D1022248
:1018400031E0B04201D120222DE0B84201D10A4658
:1018500029E0404501D11A4625E0484502D14FF420
:10186000003220E0504502D14FF400121BE06045E9
:1018700002D14FF0007216E0584501D1022212E069
:101880004E4A143A904201D120220CE04B4A904239
:1018900001D10A4607E0494A1432904201D11A4662
:1018A00001E04FF400320EEA020EBEF1000F6ED0DE
:1018B0000268D24392077ED40268920603D402687B
:1018C00022F0020202602068604530D9A84201D1AE
:1018D000022128E0B04201D1202124E0B84222D0E8
:1018E000404501D119461EE0484502D14FF4003170
:1018F00019E0504502D14FF4001114E0584501D1D0
:10190000022110E02D4A143A904201D120210AE030
:101910002A4A904207D029491431884201D11946F8
:1019200001E04FF4003125482C38016034E0A84232
:1019300001D102212EE0B04201D120212AE0B8429B
:1019400028D0404501D1194624E0484502D14FF442
:1019500000311FE0504502D14FF400111AE06045FC
:1019600002D14FF0007115E0584501D1022111E07C
:10197000124A143A904201D120210BE00F4A9042C2
:1019800008D00E491431884202D1194602E012E013
:101990004FF400310A484160606B6063012084F8B5
:1019A0002100002084F82000A16A002903D02046ED
:1019B000BDE8F05F0847BDE8F09F0000300402403A
:1019C0000000024070B5002804D090F821100024D7
:1019D00011B103E0012070BD80F82040022180F8A1
:1019E000211001680A6843F6F0739A43D0E9013583
:1019F0002B43D0E9035635432B4345692B43856977
:101A00002B43C5692B4313430B604463012180F8CA
:101A10002110002070BD70B5044694F82000012804
:101A200023D0012084F82000022084F821002068BF
:101A3000056825F0010505602046FEF711FD2068C8
:101A4000016841F0020101602068016841F0040171
:101A500001602068016841F00801016020680168A8
:101A600041F001010160002070BD022070BD000046
:101A70002DE9F84F0022DFF87081DFF86CA14FF0FC
:101A8000010E4FF00F0C08F104090AF10C0AA4E052
:101A90000EFA02F63340002B70D04C68022C01D0B5
:101AA000122C11D1D40800EB84073D6A5407E40ED0
:101AB0000CFA04FB25EA0B05D1F810B00BFA04FB75
:101AC0004BEA050BC7F820B0076854000325A54072
:101AD000AF4391F804B00BF0030B0BFA04FB4BEA95
:101AE000070BC0F800B04F68012F05D0022F03D0BC
:101AF000112F01D0122F11D18768AF43D1F80CB04C
:101B00000BFA04FB4BEA070BC0F808B04768B74371
:101B10000E79C6F3001696403E434660C668AE4353
:101B20008D68A5403543C5604C68E40054D52F4C02
:101B3000A56945F00105A561A46904F001040094BC
:101B40002B4C22F003052E19B7689407250F0CFAC9
:101B500005F4A743B0F1904F04D0264CA04203D126
:101B6000012412E0002410E0234CA04201D1022401
:101B70000BE0224CA04202D1032406E02CE0204CD2
:101B8000A04201D1042400E00524AC403C43B460F1
:101B9000D8F800409C434D68ED0300D51C43C8F8BD
:101BA0000040D9F800409C434D68AD0300D51C436C
:101BB000C9F800400C4D08352C689C434E68F6026D
:101BC00000D51C432C60DAF800409C434D68AD0200
:101BD00000D51C43CAF80040521C0B6833FA02F4CB
:101BE0007FF456AFBDE8F88F0004014000100240BA
:101BF000000001400004004800080048000C0048B4
:101C000000100048014800687047000018000020DC
:101C100002480168491C016070470000180000205C
:101C200010B50748016841F010010160032000F081
:101C30005DF8002000F006F800F016F8002010BD56
:101C40000020024010B5044601F046F94FF47A72C4
:101C5000B0FBF2F001F015FD00222146501E00F00D
:101C600025F8002010BD000008B50948816941F041
:101C700001018161806900F001000090072000F0FF
:101C800035F80022BDE808401146501E00F00EB89D
:101C90000010024000F01F02012191404009800025
:101CA00000F1E020C0F8001170470000F0B40D46CC
:101CB0000D4B1B68C3F30223C3F10704042C00D9A6
:101CC0000424191D072901D2002300E0DB1E012690
:101CD00006FA04F1491E294099409E40761E16409E
:101CE0003143F0BC02F054B90CED00E000F0070104
:101CF000054A10684FF6FF03184040EA01200349E7
:101D000008431060704700000CED00E00000FA0589
:101D100038B504460025002C14D094F8320005286C
:101D200010D094F8320002280CD02C48816941F080
:101D300001018161806900F00100009094F8320097
:101D400010B104E0012038BD002084F831002046A5
:101D500000F048F860682249402821D060281FD050
:101D6000A2681043D4E903231A4310436269104365
:101D7000A2691043E2691043226A1043626A104369
:101D8000228D40EAC24094F82C2040EA026220688A
:101D900003680B401A43026094F83200C8B11BE09C
:101DA000E268A369104322691A431043E2691043B1
:101DB000226A1043626A1043228D40EAC24094F8BE
:101DC0002C2040EA0262206803680B401A4302603C
:101DD000E2E7012084F83200284638BD00100240B6
:101DE000113800E010B586B00168144800230322C2
:101DF00081420AD1062001900292039301A94FF07B
:101E00009040FFF735FE06B010BD0C4C0C4808346E
:101E1000A14206D101920292039301A9FFF728FE85
:101E2000F1E7064C0C34A142EDD14FF4C0510191C1
:101E30000292039301A9FFF71BFEE4E7380001407B
:101E400000040048002100280AD090F83220052A1A
:101E500006D090F83220012A04D0012108467047AC
:101E60000121FBE70268136843F0010313600422B9
:101E700080F83220F2E710B50C0607D501F07F019B
:101E8000C1EBC10100EB8100283005E0C1EBC101CD
:101E900000EB810000F5E67099B232B10122827246
:101EA000C180190C0181002010BD00228272818046
:101EB000F9E7704770B505460C46002C02D00BA020
:101EC00003F034FC21460CA003F030FC0FA003F01B
:101ED0002DFCC4EBC40005EB80002146826BD5F8D5
:101EE000A403BDE8704003F035B8000044454255F6
:101EF00047203A200000000044617461496E20616F
:101F00007420455020253032780000000A0000007F
:101F100070B505460C46002C02D00BA003F006FC61
:101F200021460CA003F002FC0FA003F0FFFBC4EB62
:101F3000C40005EB80002146D0F8DC21D5F8A403CD
:101F4000BDE8704003F058B84445425547203A2058
:101F500000000000446174614F7574206174204575
:101F600050202530327800000A0000002DE9F043AF
:101F700001F07F03C3EBC3020C0600EB820201D524
:101F8000283201E002F5E6721370C909517090F829
:101F90007013012953D0012180F87013937A48F609
:101FA000BF7748F280054BF68F7C48F2C0064CF2B2
:101FB000800848F68F71EBB35378E3B31478036865
:101FC00033F824905FEA494907D533F8249009EAA9
:101FD000010949EA080923F824901478036833F8C2
:101FE00024905FEA496907D533F8249009EA01098A
:101FF00049EA060923F824901478036833F824602A
:102000000E4046EA080623F824601378016831F888
:1020100023403C402C4321F823401278016831F8DA
:10202000223003EA0C032B4321F82230002180F8F0
:10203000701301E005E035E00020BDE8F0830220E8
:10204000FBE75378BBB11478036833F824C05FEA28
:102050004C6C07D533F824C00CEA010C4CEA060C92
:1020600023F824C01278016831F822303B402B431A
:1020700021F82230DAE71478036833F82460760414
:1020800006D533F824600E4046EA080623F824609B
:102090001278016831F8223003EA0C032B4321F84F
:1020A0002230C3E71478036833F824905FEA494983
:1020B00007D533F8249009EA010949EA080923F809
:1020C00024901478036833F824805FEA486807D5C1
:1020D00033F8248008EA010848EA060823F8248037
:1020E0001478036833F8248008EA010848EA0608EF
:1020F00023F824801378016831F8234004EA0C04A3
:102100002C4321F823401278016831F822303B40FB
:102110002B4321F8223089E7F0B50A0601F07F034E
:1021200005D5C3EBC30200EB8202283205E0C1EB08
:10213000C10200EB820202F5E67200249470137073
:10214000C909517090F87013012925D0012180F838
:102150007013517848F68F7748F28005F1B1137803
:10216000016831F82360760607D531F823603E40D8
:1021700048F2C0073E4321F823601278016831F825
:10218000223048F6BF76334083F0100383F02003FB
:102190002B4321F822301DE00220F0BD13780168A6
:1021A00031F82360760407D531F823603E404CF2C5
:1021B00080073E4321F823601278016831F822300D
:1021C0004BF68F76334083F4805383F400532B43D4
:1021D00021F8223080F870430020F0BD01F07F012B
:1021E000C1EBC10100EB8100B0F8E40180B270479F
:1021F0002DE9F04F01F07F05C5EBC5040E0600EB9D
:10220000840401D5283401E004F5E6742570C90979
:102210006170E260E37090F8701301290DD0012124
:1022200080F87013E17848F68F1349B1012923D063
:1022300002290FD0032928D114E00220BDE8F08F35
:102240002278016831F822501D4045F4007321F8CE
:1022500022301AE02278016831F822501D4021F81E
:10226000225012E02278016831F822501D4045F4D6
:10227000C06321F8223008E02278016831F822504A
:102280001D4045F4806321F822302278036833F83A
:10229000226048F68F710E4048F280052E431643A7
:1022A00023F82260A27A4FF4806C48F6BF784FF092
:1022B000040A4BF68F7948F2C0064CF28007EAB365
:1022C0002378026832F823B04BF4807B0BEA010BD1
:1022D0004BEA050B22F823B0E28822F001030268E2
:1022E000B2F850B094F800E00BEBCE0B0CEB4B0BBC
:1022F00042F80B30228922F001030268B2F850B094
:1023000094F800E00AEBCE0ADA440CEB4A0C42F8EF
:102310000C306278002A7DD02378026832F823C01E
:102320005FEA4C4C07D532F823C00CEA010C4CEAAA
:10233000070C22F823C02378026800E02BE032F873
:1023400023C05FEA4C6C07D532F823C00CEA010CBD
:102350004CEA060C22F823C02378026832F8236086
:102360000E403E4322F823602278016831F8223083
:1023700003EA08032B4321F822302278016831F860
:10238000223003EA09032B4321F82230002180F890
:102390007013084652E7627822B3A28822F0010344
:1023A0000268B2F8507094F8009007EBC9070CEB84
:1023B0004707D3512378026832F823707F0605D58A
:1023C00032F823700F40374322F8237022780168D7
:1023D00031F8223003EA080383F020032B4321F86D
:1023E0002230D3E7A28822F001030268B2F85060DD
:1023F00094F800800AEBC80846440CEB460693515B
:102400000268B2F8503026784FF0060808EBC6068E
:10241000334400E037E00CEB43039E18E2683E2AA9
:102420000CD9C2F34F13D20601D15B1E9BB24FF4FD
:10243000004242EA832292B232600AE0C2F34F03C2
:10244000D20701D05B1C9BB24FF6FF7202EA8322D7
:1024500032602378026832F82360760405D532F8BA
:1024600023600E403E4322F823602278016831F851
:10247000223003EA090383F4805383F400532B438F
:1024800021F8223082E72378026832F823C05FEA1D
:102490004C4C07D532F823C00CEA010C4CEA070C6F
:1024A00022F823C02378026832F823707F0605D50E
:1024B00032F823700F40374322F8237023780268E4
:1024C00032F823700F40374322F8237022780168D6
:1024D00031F8223003EA090383F4805383F4005374
:1024E0002B4321F822302278016831F8223003EAA8
:1024F00008032B4321F8223048E72DE9F04301F08F
:102500007F04C4EBC40100EB810101F5E6710A61AF
:102510004B6100258D614D700C7090F87023012A7D
:1025200009D0012280F870234B69CA68934205D90B
:102530009B1A4B6104E00220BDE8F0831A464D610E
:102540008B7A4FF480644FF0060C66014FF6FF77EC
:1025500023B14B7823B3012B44D04FE00368B3F889
:10256000508091F800900CEBC90CC44404EB4C046F
:102570001C443E2A0AD9C2F34F13D20601D15B1E76
:102580009BB246EA832292B2226037E0C2F34F0345
:10259000D20701D05B1C9BB207EA832222602DE0A8
:1025A0000368B3F8508091F800900CEBC90CC44458
:1025B00004EB4C041C443E2A0AD9C2F34F13D20642
:1025C00001D15B1E9BB246EA832292B2226015E0E3
:1025D000C2F34F03D20701D05B1C9BB207EA8322F0
:1025E00022600BE00368B3F850600F784FF0020CE4
:1025F0000CEBC7073E4404EB46041A510978026805
:1026000032F821304BF68F74234083F4805383F4E7
:10261000005348F28004234322F8213080F870539D
:10262000002089E730B590F87023012A0CD00124EE
:1026300080F870430B0601F07F0207D5C2EBC2039E
:1026400000EB8303283307E0022030BDC1EBC10358
:1026500000EB830303F5E6739C701A70C909597087
:1026600048F2800362B1B9B1016831F8224048F6FE
:10267000BF752C4084F010041C4321F8224016E062
:1026800001680A884BF6BF74224082F4805282F0BF
:1026900010021A430A800AE0016831F822404BF622
:1026A0008F752C4084F480541C4321F82240002173
:1026B00080F87013002030BD2DE9F041054601F08F
:1026C0007F00C0EBC00105EB810428342261636107
:1026D0000027A76101216170207095F8700301281F
:1026E00008D085F87013E6686069B04205D9801B90
:1026F000606104E00220BDE8F08106466761A07ACF
:1027000038B12178286830F82110490614D522897B
:1027100013E0B3B2A2882169286801F0D5FE2868C9
:10272000B0F850102278022303EBC20211445A027F
:1027300002EB4101465020E0E288B3B2216901F08A
:10274000C3FE607848F68F7210B101280BD014E0F8
:102750002178286830F82130134048F2C002134332
:1027600020F8213009E02178286830F82130134022
:102770004CF28002134320F821302178286830F889
:10278000212048F6BF731A4082F0100282F0200226
:1027900048F280031A4320F8212085F87073002046
:1027A000A9E710B504462068B0F84400000402D53B
:1027B000204601F0BFFC2068B0F8441049050BD555
:1027C00030F8441F21F480610180204600F0E4F8D5
:1027D0000021204600F0F5F82068B0F844104904C4
:1027E00004D530F8441F21F4804101802068B0F8FE
:1027F0004410890404D530F8441F21F400510180AD
:102800002068B0F84410C90412D530F8401F21F0F8
:10281000040101804FF43D402168A1F840002046AA
:1028200000F0C7F8206830F8441F21F4805101807F
:102830002068B0F84410090519D530F8441F21F478
:1028400000610180206830F8401F41F008010180DC
:10285000206830F8401F41F0040101802068B0F882
:102860004400C043C00402D5204600F0CDF82068E3
:10287000B0F84410890507D530F8441F21F40071E1
:102880000180204600F099F82068B0F84410C9058E
:1028900004D530F8441F21F48071018010BD70B55B
:1028A00004460025002C04D094F87103002610B1D2
:1028B00006E0012070BD84F87063204600F03EF809
:1028C000032084F8710301220BE0C5EBC50004EB83
:1028D0008000283042700570C670C660066146618F
:1028E0006D1C6068A842F0D800210CE0C1EBC1006B
:1028F00004EB800000F5E67046700170C670C6609B
:1029000006614661491C60688842EFD82068A0F8DB
:1029100040202068A0F840602068A0F8446020684B
:10292000A0F850604FF43D402168A1F8400084F8C1
:10293000246084F87123002070BD000000B587B0CA
:1029400000681349884220D14FF4C0500290022001
:10295000039000200490032005900E20069002A909
:102960004FF09040FFF784F80A48C16941F4000134
:10297000C161C06900F400000190002211461420DA
:10298000FFF794F91420FFF785F907B000BD0000A8
:10299000005C00400010024010B504460121D4F84C
:1029A000A40302F0DAFBD4F8A403BDE8104002F05F
:1029B000A2BBD0F8A40302F0BEBBD0F8A40302F07F
:1029C000C0BB90F87023012A0AD0012280F870233E
:1029D00041B180F82410002180F870130020704766
:1029E0000220704702688021A2F84C10F3E7D0F86B
:1029F000A42300F55D71104602F0B9BB10B50121AA
:102A0000FFF757FA002010BD10B50446D4F8A40310
:102A100002F0E8FBA069002804D00348016841F0F7
:102A20000601016010BD000010ED00E02DE9F84343
:102A30000446784D2068C00374D5E86940F08050A2
:102A4000E861E86900F080500090734E306840F40F
:102A500080703060FFF7D6F8074607E0FFF7D2F83E
:102A6000C01B642802D90320BDE8F8833068C00584
:102A7000F4D5286AA18800F4407001F440718842BE
:102A800050D0286A20F440704FF4803191FAA1F2BE
:102A9000B2FA82F29300614A4FF001081344C3F87E
:102AA000008491FAA1F1B1FA81F102EB81010023D6
:102AB000C1F80034286280072ED5FFF7A3F8074637
:102AC00041F28839022606E0FFF79CF8C01B484512
:102AD00001D90320C8E796FAA6F0B0FA80F040F0DA
:102AE00040004146B8EB501F01D128680BE096FA30
:102AF000A6F0B0FA80F040F04000B6EB501F01D1D4
:102B0000286A00E0686A96FAA6F2B2FA82F202F047
:102B10001F0291400842D7D0286A616820F44070B3
:102B2000084328622078C00705D0286BA16820F0F0
:102B30000300084328632078800705D5286BE168E7
:102B400020F44030084328632078400705D5286BDF
:102B5000216920F44020084328632078800605D5A9
:102B6000286BE16920F01000084328632068800387
:102B700005D56868A16B20F4800008436860207860
:102B8000400605D5286B216A20F020000843286301
:102B90002078000705D5286B616920F440100843B0
:102BA00028632078C00605D5286BA16920F4400071
:102BB000084328632088800505D56868E16A20F409
:102BC0000000084368602078000605D5E86A616A5D
:102BD00020F4F8700843E8622088C00505D5E86A4B
:102BE000A16A20F478500843E8622088C00405D523
:102BF000286B216B20F480700843286320888004B0
:102C000005D5286B616B20F4007008432863002011
:102C10002AE700000010024000700040000042421D
:102C20002DE9F04704460F46DFF8A492D9F80000DA
:102C3000A84D00F007010120430446064FF0020CA6
:102C400041F28838B9426FD2D9F8001021F007015B
:102C50003943C9F80010D9F8001001F00701B94252
:102C600001D0BDE8F0872178890705D56968A26899
:102C700021F0F001114369602178C90761D06168D2
:102C800001290BD002291FD09CFAACF2B2FA82F2D1
:102C900042F0200252092DD02A682CE093FAA3F2C8
:102CA000B2FA82F242F02002520901D02A6800E012
:102CB0006A6A93FAA3F3B3FA83F303F01F0398400D
:102CC000024223D10120CCE796FAA6F2B2FA82F2B0
:102CD00042F02002520901D02A6800E06A6A96FA9E
:102CE000A6F3B3FA83F303F01F03984002420DD119
:102CF0000120B6E76A6A9CFAACF3B3FA83F303F0F7
:102D00001F039840024201D10120AAE7686820F021
:102D1000030008436860FEF775FF064660680128F7
:102D20000AD0022815D021E025E0FEF76BFF801BBA
:102D3000404501D9032094E76868C0F38100012869
:102D4000F3D1ADE0FEF75EFF801B404501D90320C3
:102D500087E76868C0F381000228F3D1A0E0FEF79E
:102D600051FF801B404501D903207AE7686810F0C5
:102D70000C0FF4D194E02178890705D56968A26821
:102D800021F0F001114369602178C90779D06168A9
:102D900001290BD002291FD09CFAACF2B2FA82F2C0
:102DA00042F0200252092DD02A682CE093FAA3F2B7
:102DB000B2FA82F242F02002520901D02A6800E001
:102DC0006A6A93FAA3F3B3FA83F303F01F039840FC
:102DD000024223D1012044E796FAA6F2B2FA82F227
:102DE00042F02002520901D02A6800E06A6A96FA8D
:102DF000A6F3B3FA83F303F01F03984002420DD108
:102E000001202EE76A6A9CFAACF3B3FA83F303F06D
:102E10001F039840024201D1012022E7686820F098
:102E2000030008436860FEF7EDFE0646606801286F
:102E300009D0022814D020E0FEF7E4FE801B4045B4
:102E400001D903200DE76868C0F381000128F3D1A0
:102E500017E0FEF7D7FE801B404501D9032000E7AD
:102E60006868C0F381000228F3D10AE0FEF7CAFEC9
:102E7000801B404501D90320F3E6686810F00C0F71
:102E8000F4D1D9F8000020F007003843C9F8000059
:102E9000D9F8000000F00700B84201D00120E0E6B8
:102EA0002078400705D56868E16820F4E0600843B1
:102EB00068602078000706D56868216920F46050B2
:102EC00040EAC10068600020FEF7BCFE0020C8E6B2
:102ED000002002400010024000B500F043F808490D
:102EE0004968F02292FAA2F201F0F001B2FA82F2FD
:102EF000D140044A515CC8400349086000BD00004D
:102F000000100240406200081400002000B5FFF7E6
:102F1000E3FF074949684FF4E06292FAA2F201F434
:102F2000E061B2FA82F2D140024A515CC84000BD71
:102F3000001002404062000800B5FFF7CDFF0749CE
:102F400049684FF4605292FAA2F201F46051B2FA69
:102F500082F2D140024A515CC84000BD00100240DC
:102F60004062000810B5144B5968144801F00C0277
:102F7000042A1DD0082A1BD14FF4701494FAA4F42B
:102F800001F47012B4FA84F4E2400D4CA25CDB6AE6
:102F90000F2494FAA4F403F00F03B4FA84F4E3408A
:102FA000074C1034E35CC90303D5B0FBF3F0504386
:102FB00010BD0448504310BD0010024000127A00BA
:102FC0005062000800093D002DE9F84F0446FB4D12
:102FD00020784FF00106C00772D068687704C0F30C
:102FE0008100012807D06868C0F3810002281DD144
:102FF0006868C0031AD597FAA7F0B0FA80F040F0DD
:103000002000400901D0286800E0686A97FAA7F11B
:10301000B1FA81F101F01F0106FA01F108424FD027
:10302000606800284CD10120BDE8F88F286820F4A2
:1030300080302860286820F480202860FEF7E2FDB8
:10304000804607E0FEF7DEFDA0EB0800642801D90A
:103050000320E9E797FAA7F0B0FA80F040F02000EB
:10306000400901D0286800E0686A97FAA7F1B1FA30
:1030700081F101F01F0106FA01F10842E2D1606816
:10308000B0F5803F17D0E0B1B0F5A02F22D028686E
:1030900020F480302860286820F480202860E86AC6
:1030A000A16820F00F000843E8626068C8B3FEF72B
:1030B000A9FD80461FE0286840F480302860EEE7D4
:1030C00051E0286820F480302860286820F48020AF
:1030D0002860E4E7286840F480202860286840F4ED
:1030E00080302860DBE7FEF78DFDA0EB0800642848
:1030F00001D9032098E797FAA7F0B0FA80F040F0E2
:103100002000400901D0286800E0686A97FAA7F11A
:10311000B1FA81F101F01F0106FA01F10842E2D093
:1031200021E0FFE7FEF76EFD804607E0FEF76AFD4F
:10313000A0EB0800642801D9032075E797FAA7F0EF
:10314000B0FA80F040F02000400901D0286800E08B
:10315000686A97FAA7F1B1FA81F101F01F0106FA46
:1031600001F10842E2D12078DFF8548280074FF065
:10317000000B4FF0020732D568684FF0F80A10F0E4
:103180000C0F07D06868C0F38100022828D1686856
:10319000C00325D497FAA7F0B0FA80F040F02000E1
:1031A000400901D0286800E0686A97FAA7F1B1FAEF
:1031B00081F101F01F0106FA01F1084204D02069F3
:1031C000012801D001202FE728689AFAAAF2616944
:1031D000B2FA82F220F0F8009140084328605CE0E7
:1031E000206990B396FAA6F0B0FA80F048F8206013
:1031F000FEF708FD814607E0FEF704FDA0EB09009D
:10320000642801D903200FE797FAA7F0B0FA80F0FD
:1032100040F02000400901D0286800E0686A97FA71
:10322000A7F1B1FA81F101F01F0106FA01F108429C
:10323000E2D028689AFAAAF220F0F8016069B2FA9E
:1032400082F290400143296027E0FFE796FAA6F05A
:10325000B0FA80F048F820B0FEF7D4FC814607E0D1
:10326000FEF7D0FCA0EB0900642801D90320DBE6BF
:1032700097FAA7F0B0FA80F040F02000400901D0A2
:10328000286800E0686A97FAA7F1B1FA81F101F0C5
:103290001F0106FA01F10842E2D1207800076DD53E
:1032A000A069A8B396FAA6F0B0FA80F008EB800007
:1032B000C0F88064FEF7A6FC814607E0FEF7A2FC9A
:1032C000A0EB0900642801D90320ADE697FAA7F026
:1032D000B0FA80F040F06000B6EB501F01D12868D2
:1032E0000BE097FAA7F0B0FA80F040F06000B7EB7F
:1032F000501F01D1286A00E0686A97FAA7F1B1FA75
:1033000081F101F01F0206FA02F10842D6D035E041
:10331000FFE796FAA6F0B0FA80F008EB8000C0F85C
:1033200080B4FEF76FFC814607E0FEF76BFCA0EB74
:103330000900642801D9032076E697FAA7F0B0FACD
:1033400080F040F06000B6EB501F01D128680BE020
:1033500097FAA7F0B0FA80F040F06000B7EB501F8A
:1033600001D1286A00E0686A97FAA7F1B1FA81F101
:1033700001F01F0206FA02F10842D6D12078400778
:1033800071D5E86940F08050E861E86900F080504C
:103390000090DFF830A0DAF8000040F48070CAF83E
:1033A0000000FEF72FFC81460EE0FEF72BFCA0EBA1
:1033B0000900642808D9032036E600000010024006
:1033C0000000424200700040DAF80000C005ECD571
:1033D000286A20F001002862286A20F00400286290
:1033E000FEF710FC814641F2883A07E0FEF70AFC3E
:1033F000A0EB0900504501D9032015E697FAA7F084
:10340000B0FA80F040F04000B6EB501F01D12868C0
:103410000BE097FAA7F0B0FA80F040F04000B7EB6D
:10342000501F01D1286A00E0686A97FAA7F1B1FA43
:1034300081F101F01F0106FA01F10842D6D1E068DE
:10344000012811D0A8B105281CD0286A20F001005D
:103450002862286A20F004002862E068C8B3FEF7FA
:10346000D1FB81461FE06EE0286A40F0010028622F
:10347000F3E7286A20F001002862286A20F004009F
:103480002862EAE7286A40F004002862286A40F0CF
:1034900001002862E1E7FEF7B5FBA0EB090050450B
:1034A00001D90320C0E597FAA7F0B0FA80F040F008
:1034B0004000B6EB501F01D128680CE097FAA7F046
:1034C000B0FA80F040F04000B7EB501F02D1286AFC
:1034D00001E00BE0686A97FAA7F1B1FA81F101F017
:1034E0001F0206FA02F10842D5D02CE0FEF78AFB53
:1034F000814607E0FEF786FBA0EB0900504501D9A5
:10350000032091E597FAA7F0B0FA80F040F0400070
:10351000B6EB501F01D128680BE097FAA7F0B0FA7C
:1035200080F040F04000B7EB501F01D1286A00E066
:10353000686A97FAA7F1B1FA81F101F01F0206FA61
:1035400002F10842D6D1E06980B36968C1F3810114
:10355000022977D04FF080794FF00077022809D008
:1035600099FAA9F0B0FA80F048F820B0FEF74AFBCB
:1035700004465DE099FAA9F0B0FA80F048F820B06E
:10358000FEF740FB824607E0FEF73CFBA0EB0A009B
:10359000642801D9032047E597FAA7F0B0FA80F034
:1035A00040F02000400902D0286801E056E0686A37
:1035B00097FAA7F1B1FA81F101F01F0106FA01F1C2
:1035C0000842E1D1D4E908100843696821F4741174
:1035D0000843686099FAA9F0B0FA80F048F82060D2
:1035E000FEF710FB044606E0FEF70CFB001B642808
:1035F00001D9032018E597FAA7F0B0FA80F040F05F
:103600002000400901D0296800E0696A97FAA7F014
:10361000B0FA80F000F01F0006FA00F00142E3D09B
:103620001CE0FEF7EFFA001B642801D90320FBE43D
:1036300097FAA7F0B0FA80F040F02000400902D0DD
:10364000296801E00CE0696A97FAA7F0B0FA80F007
:1036500000F01F0006FA00F00142E2D10020E3E48E
:103660000120E1E44FF0E021042804D0086920F0B3
:10367000040008617047086940F004000861704761
:10368000704710B5401EB0F1807F01D3012010BDFE
:103690004FF0E02460610F21601700F079FC0020FA
:1036A000A06107202061002010BD10B5FFF7E8FFE2
:1036B00010BD000030B590F83820012A1FD001223B
:1036C00080F8382003685A689D680E4CA34202D0E7
:1036D0000D4CA34203D122F470044A68224322F025
:1036E00070040A68224325F08004896821435A60E7
:1036F00002689160002180F83810002030BD02205F
:1037000030BD0000002C01400034014010B50446DB
:10371000002C03D094F8390010B107E0012010BD4F
:10372000002084F83800204600F00CF8022084F8CD
:103730003900211D206800F053FF012084F8390072
:10374000002010BD08B50068164A1749904208D1FC
:10375000886940F400608861886900F40060009026
:1037600008BDB0F1804F14D0104A9042F8D1C8691A
:1037700040F00200C861C86900F002000090002219
:1037800011461D20FEF792FABDE808401D20FEF705
:1037900081BAC86940F00100C861C86900F0010041
:1037A000009008BD002C01400010024000040040C1
:1037B000022180F8391001680A6842F001020A60AB
:1037C000012180F8391000207047022180F839105B
:1037D00001680A6A41F211131A4207D10A6A9B1062
:1037E0001A4203D10A6822F001020A60012180F81E
:1037F000391000207047000070B5044694F8380076
:10380000012817D0012584F83850022084F83900A7
:10381000206882683C4E324022F47F428260086811
:1038200050283AD00DDC20285FD005DCA0B310284A
:1038300064D155E0022070BD30285BD040285DD1B6
:103840003FE0602833D070280DD0B0F5805F03D002
:10385000B0F5005F52D113E0206881682A4A7032C7
:10386000114081604AE0CB68D1E90121206800F075
:103870000BFF20688168314041F0770181603DE0B5
:10388000CB68D1E90121206800F0FEFE2068816844
:1038900041F48041816031E01DE0CA6849682068D8
:1038A00000F044FF5021206800F0F8FE26E0CA68CE
:1038B0004968206800F04BFF6021206800F0EEFEB0
:1038C0001CE0CA684968206800F030FF4021206889
:1038D00000F0E4FE12E00021206800F0DFFE0DE0C1
:1038E0001021206800F0DAFE08E02021206800F0B6
:1038F000D5FE03E03021206800F0D0FE383465703A
:103900000020207070BD000088FFFEFF70B50446E7
:1039100094F83800012818D0012584F83850022086
:1039200084F83900204600F0C1FE2068C16821F00B
:103930004001C1602068C16821F48041C16084F801
:103940003950002084F8380070BD022070BD10B5D9
:103950000446002C03D094F8690010B107E0012060
:1039600010BD002084F86800204600F029F80220ED
:1039700084F869002068016821F001010160204697
:1039800000F084FF012818D0606A10B1204600F0D2
:10399000F0FE2068416821F4904141602068816810
:1039A00021F02A0181602068016841F00101016075
:1039B0002046BDE8104000F040BF012010BD0000CF
:1039C000F0B587B000681349884221D11248C16917
:1039D00041F40031C161C06900F400300190082059
:1039E00002900224039401250495032605960727D7
:1039F000069702A94FF09040FEF73AF82020029077
:103A0000039404950596069702A90448FEF730F83A
:103A100007B0F0BD0044004000100240000C004818
:103A200070B58CB01A484FF0A0410160002444608A
:103A300084600461C46144624FF4806101634FF4A7
:103A40001071C162C46001250562456304214161B2
:103A500084618463FDF752F906954FF440000790A6
:103A600040F6FF700A900B9403260896099506A964
:103A70000748FCF709FD009601950394029404940D
:103A8000059469460248FCF7C5FD0CB070BD000006
:103A9000C400002030B58DB01A48194901600024D7
:103AA000446084600461C46144624FF480610163D6
:103AB0004FF41071C162C4600125056245630421A1
:103AC000416184618463FDF719F907954FF4400063
:103AD000089040F6FF700B900C9409950A9507A981
:103AE0000848FCF7D1FC01950295049403940594D1
:103AF000069401A90348FCF78DFD0DB030BD000010
:103B0000000400501801002070B58CB01A48194903
:103B100001600024446084600461C46144624FF425
:103B2000806101634FF41071C162C46001250562B8
:103B300045630421416184618463FDF7DFF80695E4
:103B40004FF44000079040F6FF700A900B94032654
:103B50000896099506A90848FCF796FC0096019579
:103B6000039402940494059469460348FCF752FDBB
:103B70000CB070BD000500506C0100200EB50C4962
:103B80000A4808600846FDF78CFB242000900020BE
:103B90000190002269460648FDF762FB4FF410626F
:103BA00000210348FDF742FB0EBD000000740040F9
:103BB000C00100202DE9F8433448416941F001017A
:103BC0004161416901F001010091416941F0020147
:103BD0004161406900F0020000902E482C490160CC
:103BE0004FF480454560402686608027C7604FF4CB
:103BF0000078C0F810804FF40069C0F814900024D9
:103C00008461C461FDF7DEFE214922481431383059
:103C1000016045608660C760C0F81080C0F81490ED
:103C20008461C461FDF7CEFE19491A48283170300D
:103C3000016045608660C760C0F81080C0F81490CD
:103C40008461C461FDF7BEFE002211460B20FEF721
:103C50002DF80B20FEF71EF8002211463A20FEF741
:103C600025F83A20FEF716F8002211463B20FEF711
:103C70001DF83B20FEF70EF8002211463C20FEF70F
:103C800015F8BDE8F8433C20FEF704B800100240E8
:103C90001C0002403C0700202DE9F04387B0464855
:103CA000416941F400114161416901F40011019140
:103CB000416941F400214161416901F40021019110
:103CC000416941F480014161416901F48001019140
:103CD000416941F400314161416901F400310191D0
:103CE000416941F480214161416901F480210191E0
:103CF000416941F480114161406900F480100190F4
:103D0000372602962D480390002404942C4F02A9D4
:103D10003846FDF7ADFE4FF6087002900125039579
:103D20000494059402A93846FDF7A2FE02964FF0CE
:103D30001108CDF80C8004940326059602A92148A9
:103D4000FDF796FE0295039404944FF0904902A962
:103D50004846FDF78DFEE020029002200390049477
:103D600005940520069002A94846FDF781FE4EF213
:103D700004000290CDF80C8004940596DFF848808A
:103D800002A94046FDF774FE802002900396049439
:103D900002A93846FDF76CFEC02002901220039065
:103DA000049505940420069002A94046FDF760FEA4
:103DB00007B0BDE8F08300000010024000001210C0
:103DC0000010004800080048000400480748064961
:103DD0000160402141600C21C16000210161C1618D
:103DE00001624162FDF794BF38000140D401002018
:103DF000074806490160402141600C21C160002153
:103E00000161C16101624162FDF782BF4000014072
:103E1000080200200748064901604021416008214E
:103E2000C16000210161C16101624162FDF770BFA3
:103E3000440001403C02002010B588B00F480E49F4
:103E4000016000244460846040F6B831C1600461C0
:103E50004461FFF75BFC4FF48050049004A90748CD
:103E6000FFF7CAFC202001900294039401A90348A3
:103E7000FFF720FC08B010BD002C014070020020AC
:103E800010B588B00E484FF08041016000244460B6
:103E900084604FF4FA61C1600461FFF737FC4FF4AE
:103EA0008050049004A90648FFF7A6FC202001904A
:103EB000039401A90248FFF7FDFB08B010BD000004
:103EC000AC02002010B588B00E480D4901600024F6
:103ED0004460846040F62F01C1600461FFF716FC66
:103EE00007200390049403A90648FFF70FFD0094F0
:103EF000029469460348FFF7DDFB08B010BD0000DF
:103F000000040040E80200200948084901604FF41D
:103F10001641416000218160C16001610C22426153
:103F20008161C16101624162FFF711BD004400403F
:103F30002403002010B500220849094800F0CAFFF8
:103F40000849074801F046FA0749054801F0DCF93D
:103F5000BDE81040024801F00FBB000074000020D3
:103F6000C46800201C000020A80000200748064963
:103F7000016008214160022282600021C16002616B
:103F800081610162FEF78BBC005C0040940300205D
:103F90000907090E002806DA00F00F0000F1E02002
:103FA00080F8141D704700F1E02080F8001470477D
:103FB000002070470020704710B5084C064820606C
:103FC0000022074901F0ADF905492068403901F0A8
:103FD000A3F9002010BD0000C4680020B800002034
:103FE000806D002070B504460D462868062805D16E
:103FF000052238A12046FCF705F918B128680D28DC
:1040000004D00FE0607901F05FFF60E02078732852
:1040100008D160782E2805D1072230A1E01CFCF7DA
:10402000F1F818B1286803280BD010E0A578A17A20
:10403000247B284601F0D6FF2146284601F078FF70
:1040400045E0022227A12046FCF7DCF818B12868D9
:104050000B2804D009E0A07801F0F0FF37E00A2235
:1040600021A12046FCF7CEF818B12868092804D011
:1040700009E0A07A02F022F829E008221DA12046DA
:10408000FCF7C0F890B128680B2805D90B221CA1B9
:104090002046FCF7B7F868B128680A2817D90A2221
:1040A0001AA12046FCF7AEF858B110E0207A01F0D2
:1040B000E7FF0CE0296804F10B000B3901F0E6FF83
:1040C00005E0296804F10A000A3901F0EBFF00203D
:1040D00070BD00004652414D450000002E72616ED9
:1040E00067653D00743D0000747269672E747970D5
:1040F000653D0000747269672E63683D0000000032
:10410000747269672E6C6576656C3D0074726967C0
:104110002E74696D653D000010B5054C0A460146D8
:10412000206801F0FEF82068BDE8104001F02EB9CB
:10413000B80000202DE9FC5F04460020009040F606
:104140008F7906274FF002084FF480669DE1BDF895
:10415000041001F00F0ABAF1000F2ED030F82A1027
:104160000091BDF8001009047BD530F82A1001EA4F
:10417000090120F82A10CAEBCA0004EB800505F5F6
:10418000E675A87A00286DD02978206830F82120BB
:10419000520468D5B0F8502008EBC101114406EB79
:1041A0004101415AC1F3090BBBF1000F04D0EA8869
:1041B0005B46296900F078F9D1E0BDF80410C90622
:1041C0002CD4018848F60F721140018004F12805B3
:1041D0002068B0F850102A7808EBC202114406EBB0
:1041E0004101405AC0F30900A861296908442861C7
:1041F00000212046FDF75EFE94F824000028A5D09B
:1042000068690028A2D194F82400216840F0800059
:10421000A1F84C00002084F8240036E104F5E6758E
:1042200001880091BDF8001009051DD5B0F85010A7
:104230002A7807EBC202114406EB4101405AC0F351
:104240000903AB61AA8804F55D71206800F02CF9C0
:104250002068018801EA090101802046FEF7C7FBBA
:1042600013E19DE054E068E0BDF800100904D4D5E6
:10427000018801EA090101802068B0F850102A780D
:1042800007EBC202114406EB4101405AC0F309009A
:10429000A86148B183B2AA882969206800F004F9AE
:1042A000A96928690844286100212046FDF730FEED
:1042B0002068B0F85010891D06EB41014218E868EB
:1042C0003E280CD9C0F34F11C00601D1491E89B256
:1042D0004FF4004040EA812080B210600AE0C0F351
:1042E0004F01C00701D0491C89B24FF6FF7000EAA8
:1042F00081201060206801884BF68F72114081F494
:10430000805181F4005148F2800211430180BCE0E9
:104310002068B0F850102A7807EBC202114406EB6F
:104320004101415AC1F3090BBBF1000F23D0AA8808
:104330005B46296900F0B8F81DE0B0F8502007EBA3
:10434000C101114406EB4101415AC1F3090BBBF114
:10435000000F04D02A895B46296900F0A5F8297866
:10436000206830F8212048F68F731A4048F2C003C5
:104370001A4320F82120A8695844A861286900EB55
:104380000B022A616B6913B1E868584504D9297892
:104390002046FDF7BDFD03E029782046FEF7ADF885
:1043A000BDF80000000670D5CAEBCA0004EB80051A
:1043B0002835206830F82A1048F60F72114020F88E
:1043C0002A10A87AC0B12978206830F82120520636
:1043D00027D5B0F8502008EBC101114406EB41018C
:1043E000405AC0F30900A86168B383B2EA8829691A
:1043F000206800F069F826E02068B0F850102A78AC
:1044000008EBC202114406EB4101405AC0F3090017
:10441000A86120B383B2AA882969206800F054F803
:104420001DE0B0F8502007EBC101114406EB41013B
:10443000405AC0F30900A86128B183B22A892969CA
:10444000206800F041F82978206830F8212048F6EB
:104450008F731A404CF280031A4320F82120206801
:10446000B0F850102A7808EBC202114406EB410163
:10447000405AC0F30900A86129690A182A616B69CA
:104480006BB129782046FEF717F92068B0F8441080
:10449000019109043FF55BAE0020BDE8FC9F29783F
:1044A0002046FDF707FDF0E75B1C5B0800EB4200D0
:1044B00000F58060002B06D030F8042B21F8022B89
:1044C0005B1E002BF8D170475B1C5B0800EB4200C1
:1044D00000F58060002B05D031F8022B04C05B1E74
:1044E000002BF9D1704710B5FDF792FBBDE81040E5
:1044F000FFF7DBB830B59FB0012015904FF4A02036
:1045000016900024179402251C95E8031D904FF483
:10451000E0101E9015A8FEF757FD0520109011958C
:104520001294680213901494022110A8FEF778FBED
:104530000E4801900494E8010A9040010B900F94FA
:104540000D9401A8FEF772FAFEF7C6FC4FF4FA517B
:10455000B0FBF1F0FFF795F80020FFF783F8002299
:104560001146501EFDF7A2FB1FB030BD82110200A4
:104570001148016841F00101016041680F4A114092
:10458000416001680E4A11400160016821F48021F8
:104590000160416821F4FE014160C16A21F00F0110
:1045A000C162016B074A1140016300218160064925
:1045B000C003086070470000001002400CC07FF884
:1045C000FFFFF6FECCFC00FF08ED00E003496FF0B2
:1045D00001000968086101F0FBBA0000E802002050
:1045E0002DE9F0470268214DDFF88480DFF88490E0
:1045F000214B4FF0804AA84207D0504505D0404596
:1046000003D0484501D0984203D122F070044A6893
:1046100022431A4E1A4FDFF86CC0A8420DD0504505
:104620000BD0404509D0484507D0984205D0B0424C
:1046300003D0B84201D0604503D122F44074CA6867
:10464000224302608A68C2620A688262A84207D076
:10465000984205D0B04203D0B84201D0604501D1A4
:104660000969016301214161BDE8F087002C014027
:1046700000040040000800400034014000400140B8
:10468000004401400048014010B5846824F47F4490
:1046900042EA03220A432243826010BD826822F06C
:1046A00070020A4342F007018160704730B402682B
:1046B000936823F070044B6823431B4C23400C6821
:1046C0001C4394604A6812F00F0F1FD11211082A80
:1046D0001CD2DFE802F01B1B1B1B0B1D23040B6904
:1046E000D1E90221006830BCFFF7CEBF0268146A2E
:1046F000136A23F0010313620268936923F0F00345
:10470000096943EA011191610068046230BC704795
:104710000A698968006830BC00F008B80A698968CD
:10472000006830BC00F013B8F8FFFEFF10B5036A54
:10473000046A24F001040462846924F0F00444EA69
:10474000021423F00A020A438461026210BD10B50C
:10475000036A23F0100303628469036A24F470443B
:1047600044EA023223F0A00343EA011182610162AC
:1047700010BD90F82410C90706D001684A68836A02
:1047800022F400321A434A6090F82410890706D5B3
:1047900001684A68C36A22F480321A434A6090F87A
:1047A0002410490706D501684A68036B22F4802269
:1047B0001A434A6090F82410090706D501684A6830
:1047C000436B22F400421A434A6090F82410C90651
:1047D00006D501688A68836B22F480521A438A6086
:1047E00090F82410890606D501688A68C36B22F404
:1047F00000521A438A6090F82410490611D50168C6
:104800004A68036C22F480121A434A60016CB1F5C5
:10481000801F06D101684A68436C22F4C0021A4323
:104820004A6090F82410090606D501684A68806C31
:1048300022F4002202434A60704770B50446002506
:10484000E566206800684FF47A76000709D533469C
:1048500000224FF40011204600F036F908B1032081
:1048600070BD20680068400709D5334600224FF428
:104870008001204600F028F908B1032070BD012016
:10488000683460702570002070BD00002DE9F04193
:104890000446102000210025A3682269E66913431D
:1048A0006269324313432268166849F20C67BE43BB
:1048B0001E43166022685368E66823F4405333436E
:1048C0005360A369226A13432268966826F430660F
:1048D0001E439660744F2268744B0603BA4212D18D
:1048E0001B6B13F0030306D0012B08D0022B08D05A
:1048F000032B6AD101E0012067E0022065E004207B
:1049000063E0082061E06A4FBA4214D11B6B13F4D4
:10491000403308D0B3420AD0B3F5003F09D0B3F515
:10492000403F52D101E000204FE002204DE0042042
:104930004BE0082049E05F4FBA4215D11B6B13F4DE
:10494000402309D0B3F5802F0AD0B3F5002F09D04A
:10495000B3F5402F39D101E0002036E0022034E0E9
:10496000042032E0082030E0534FBA4215D11B6BCF
:1049700013F4401309D0B3F5801F0AD0B3F5001F1C
:1049800009D0B3F5401F20D101E000201DE0022036
:104990001BE0042019E0082017E0484FBA4214D168
:1049A0001B6B13F4400309D0B3F5800F0AD0B3F5A5
:1049B000000F09D0B3F5400F07D101E0002004E05B
:1049C000022002E0042000E00820E7694FF40043E1
:1049D0009F4234D1092829D2DFE800F0050D1528BF
:1049E0001B2828282300FEF791FA61684000B0FBDD
:1049F000F1F081B21BE0FEF79FFA61684000B0FB66
:104A0000F1F081B213E02E496068B1FBF0F081B2A1
:104A10000DE0FEF7A7FA61684000B0FBF1F081B24B
:104A200005E06068B6FBF0F081B200E0012521F0FE
:104A30000F00C1F3420108432168C86030E0092833
:104A40002DD2DFE800F0050E172C1E2C2C2C270091
:104A5000FEF75CFA6168B0FBF1F0216880B2C860D3
:104A60001EE0FEF769FA6168B0FBF1F0216880B2E0
:104A7000C86015E013496068B1FBF0F080B2D06007
:104A80000EE0FEF76FFA6168B0FBF1F0216880B2CA
:104A9000C86005E06068B3FBF0F0D06000E001257D
:104AA0002846BDE8F08100000038014000100240B7
:104AB0000044004000480040004C004000500040CE
:104AC0000024F40000127A002DE9F04704460F4656
:104AD00092461D46FDF796F806464FF000084FF047
:104AE0000109BAF1000F23D04AE0681C20D025B19B
:104AF000FDF788F8801BA8421AD92068016821F0C8
:104B0000800101602068016821F0200101602068B7
:104B1000016821F4807101602068816821F0010141
:104B2000816084F8699084F868800320BDE8F0878C
:104B30002068C06937EA0000D7D126E0681C1FD082
:104B400025B1FDF75FF8801BA84219D920680168DC
:104B500021F0800101602068016821F020010160DE
:104B60002068016821F4807101602068816821F06B
:104B70000101816084F8699084F868800320D5E79A
:104B80002068C06937EA0000D8D00020CEE710B511
:104B9000D0F8142252689047002010BD10B504468A
:104BA00094F8FC01022806D0032804D02046BDE872
:104BB000104000F021B8488801280CD10020C4F82A
:104BC0000402D4F814028268204690472046BDE8CB
:104BD000104000F044B810BD10B513460A4600213D
:104BE00000F082FA002010BD10B513460A460021DD
:104BF00000F000FB002010BD10B5044680212046C7
:104C000000F0E2FA2046BDE81040002100F0DCBAD6
:104C100010B50323C0F8F431C0F80821C0F80C2106
:104C200013460A46002100F05FFA002010BD10B5BF
:104C30000521C0F8F41100231A46194600F054FA71
:104C4000002010BD10B50223C0F8F4318261C261AA
:104C500013460A46002100F0CDFA002010BD10B521
:104C60000421C0F8F41100231A46194600F0C2FAD4
:104C7000002010BD10B50A46024903A000F00CF94F
:104C8000004810BD406B00204F7363696C6C6F73FC
:104C9000636F7065000000001220088000487047B4
:104CA0009400002010B50A46024903A000F0F4F871
:104CB000004810BD406B00204F7363696C6C6F73CC
:104CC000636F706500000000042008800048704792
:104CD0009000002010B50A46024903A000F0DCF85D
:104CE000004810BD406B0020687474703A2F2F6527
:104CF0006C6D6F742E78797A0000000010B50A464A
:104D0000024903A000F0C8F8004810BD406B002025
:104D100046332D4F7363696C6C6F73636F706500FE
:104D200010B50A46024903A000F0B6F8004810BDCD
:104D3000406B0020302E303031416C7068610000D3
:104D4000CA88012A01D0FFF757BF90F8FC21022A38
:104D500003D0032A08D0FFF74FBF00218160012252
:104D600000F10801FFF76EBF0122011DFFF76ABFC6
:104D7000F8B504460D466988080A012808D00228BB
:104D80000ED003281FD029462046FFF735FFF8BD77
:104D9000D4F81012207C0A6869469047014649E021
:104DA000207C022638B1D4F81402C16A68468847CC
:104DB00001464E703EE0D4F81402816A6846884786
:104DC00001464E7036E0C8B2062842D2DFE800F055
:104DD000030B131B232BD4F81012207C4A6869465E
:104DE0009047014626E0D4F81012207C8A68694674
:104DF000904701461EE0D4F81012207CCA6869462C
:104E00009047014616E0D4F81012207C0A696946E2
:104E1000904701460EE0D4F81012207C4A6969469A
:104E20009047014606E0D4F81012207C8A69694652
:104E300090470146BDF800000028A8D0EA88002A63
:104E4000A5D0824200D9024600922046FFF7FAFE22
:104E5000F8BD29462046FFF7CFFEF8BD002102E04D
:104E6000491CC9B2401C0278002AF9D10846704793
:104E700090F8FC21022A03D0032A01D0FFF7BCBE20
:104E80000121C160D0F8041209B10321C1600222DE
:104E900000F10C01FFF7D6BE70B504460D4616466C
:104EA000002C16D02046FFF7D9FF022101EB40006D
:104EB00030802870032102206970002306E0411C25
:104EC000C9B22A54641C481CC0B26B542278002A10
:104ED000F5D170BD10B5002810D0D0F8143213B140
:104EE0000023C0F8143209B1C0F81012012180F873
:104EF000FC11027000F0BAF8002010BD05A000F00F
:104F000015FC06A000F012FC0AA000F00FFC022025
:104F100010BD00004552524F523A2000496E766152
:104F20006C6964204465766963652068616E646CB1
:104F3000650000000A00000010B5D0F82002FDF75F
:104F4000EBF8002010BD10B5D0F82002FDF70EF8E8
:104F5000002010BD70B504461346002908D0D4F8CF
:104F600014024269F2B394F8FC01032840D041E0F6
:104F700004F11400D4F8F411002502292CD1D0E951
:104F800002218A4207D9511A81608AB21946204605
:104F9000FFF72AFE20E04068B0FBF1F201FB1202AD
:104FA0006AB988420BD3D4F8F811884207D200229C
:104FB00011462046FFF718FEC4F8F8510CE0D4F86B
:104FC0001402C16829B194F8FC01032801D12046DC
:104FD00088472046FFF72BFE94F80002012809D1EC
:104FE000204600E006E000F01BFA84F8005201E0E1
:104FF00020469047002070BD70B504461546002934
:1050000008D0D4F8140282693AB394F8FC0103285A
:1050100024D025E004F58270D4F8F41103291FD1BF
:10502000D0E9021399420BD9C91A8160C068814244
:1050300000D301468AB229462046FFF7CDFD0FE096
:10504000D4F81402016929B194F8FC01032801D1B4
:10505000204688472046FFF702FE01E020469047A1
:10506000002070BDD0F82002FDF7B8B810B5044696
:105070000F48C0F8A44304F50874206000221823E8
:105080001146FCF7F8FE5823002280212068FCF727
:10509000F2FE9823002202212068FCF7ECFED823C0
:1050A000002281212068FCF7E6FE002010BD0000F0
:1050B000940300200A0601F07F01D0F82002C1EB22
:1050C000C10100EB810002D590F82A00704790F8EA
:1050D000CE01704710B514461A46D0F82002234678
:1050E000FDF786F8002010BD10B5D0F82002FDF7BE
:1050F00004FA002010BD70B504460022402311467A
:105100002046FFF7E7FF4025C4F810514023002256
:1051100080212046FFF7DEFF2562012084F8FC0194
:10512000D4F8180228B1D4F8140221794268204634
:105130009047002070BD90F8FD1180F8FC11002010
:10514000704710B590F8FC11032904D1D0F814125F
:10515000C96901B18847002010BD01740020704763
:1051600010B5D0F82002FDF72CFC002010BD70B562
:10517000044604F50270054600F018F90120C4F851
:10518000F401B4F80E02C4F8F80194F8082212F001
:105190001F000AD001280DD0022810D002F0800193
:1051A000204600F011F8002070BD2946204600F08E
:1051B000E8F9F8E72946204600F08AFAF3E729469D
:1051C000204600F003FAEEE710B5D0F82002FDF714
:1051D00029FA002010BD10B5D0F82002FDF70EFC12
:1051E000002010BD00F5FE700178417004210170AF
:1051F0000020704710B5D0F82002FDF75DFA0020BE
:1052000010BD10B5D0F81822002A05D000231A4688
:10521000FFF7F0FF002010BD022010BD70B505465D
:10522000D5F818422846FFF71DFFE064D5F81802AC
:1052300070B1D5F81C12606CCA6804F14C0190473B
:10524000402302212846626CFFF74EFF002070BD0C
:10525000022070BD70B50446002581212046FFF76D
:1052600072FE02212046FFF76EFED4F8180248B104
:1052700004F50674606840688047206800F04AFAC8
:1052800000202060284670BD10B5D0F81842D0F834
:105290001C1200290BD094F84000FF2807D08B681F
:1052A00094F8412021469847FF2084F840000020D0
:1052B00010BD0000202101800048704754000020EC
:1052C00010B50446542000F027FAC4F81802C8B1FB
:1052D000D4F81C0200688047022240231146204671
:1052E000FFF7F8FED4F8180240230221426C204652
:1052F000FFF7FAFE4023022281212046FFF7EAFE53
:10530000002010BD012010BD02460220002902D05D
:10531000C2F81C1200207047D0F818024164002027
:105320007047D0F81802816402650020704770B59C
:1053300005460C46D5F81862207800F06001202957
:1053400022D1E288CAB100060BD5D5F81C126078CC
:105350008B6831469847E28831462846FFF772FC51
:1053600012E0607886F84000A07986F84100E28873
:1053700031462846FFF74CFC06E0D5F81C12002207
:1053800060788B6811469847002070BD10B5D0F842
:105390001812002908D0B1F8502093B28A6C8121EC
:1053A000FFF728FF002010BD022010BD0A78027010
:1053B0004A7842708A78CB7802EB032242800A79DD
:1053C0004B7902EB032282808A79C97902EB0121B1
:1053D000C180704710B502460020002902D0C2F8F3
:1053E000141210BD05A000F0A1F906A000F09EF96E
:1053F0000AA000F09BF9022010BD00004552524F58
:10540000523A2000496E76616C696420436C617386
:10541000732068616E646C65000000000A00000083
:105420000020704770B504468888002801D1C888DC
:1054300020B12046BDE87040FFF7DEBB887800F061
:105440007F0594F8FC0103280DD084F8FE5129460D
:105450002046FFF785FE2046FFF701FC45B10220FC
:1054600084F8FC0170BD2046BDE87040FFF7C4BB66
:10547000012084F8FC0170BD10B50224D0F814227C
:10548000002A03D01268904700B90024204610BDBE
:1054900070B504460D462E4EA9783170012905D904
:1054A00029462046BDE87040FFF7A6BB94F8FC01F2
:1054B000022807D003281FD029462046BDE87040A7
:1054C000FFF79ABB99B16160032084F8FC01204684
:1054D000FFF7D2FF022804D02046BDE87040FFF756
:1054E000BEBB29462046BDE87040FFF785BB20467D
:1054F000BDE87040FFF7B3BB91B16068884221D02E
:10550000C1B22046FFF743FB317861602046FFF7C8
:10551000B3FF022810D02046BDE87040FFF79FBBC4
:10552000022084F8FC0161602046FFF730FB204632
:10553000BDE87040FFF793BB29462046BDE87040A8
:10554000FFF75ABB2046BDE87040FFF788BB00005C
:10555000BC00002010B50446488801280BD1C4F8CF
:105560000402D4F814028268204690472046BDE821
:105570001040FFF774BB10BD10B5FFF72CFE0020E4
:1055800010BD10B500244A780A2A1BD2DFE802F0C9
:1055900011171A141A08051A0E0BFFF7E9FB13E08E
:1055A000FFF740FF10E0FFF773FF0DE0FFF7C8FBC8
:1055B0000AE0FFF75DFC07E0FFF7CCFF04E0FFF730
:1055C000EDFA01E0FFF718FB204610BD70B5044668
:1055D0000D4600262979687800284AD0012825D070
:1055E000032850D194F8FC01022806D003280BD0E0
:1055F00029462046FFF700FB45E009B3802942D049
:105600002046FFF7E1FD3EE0688828B921B18029F6
:1056100002D02046FFF7D8FDD4F81402294682684C
:10562000204690472046FFF71AFB2CE094F8FC0137
:10563000022806D003280BD029462046FFF7DCFAC3
:1056400021E001B380291ED02046FFF7BDFD1AE0FE
:105650006888C0B9480608D02046FFF76DFCD4F82A
:10566000140229468268204690472046FFF7F7FA41
:1056700009E094F8FC01022807D003280BD0294642
:105680002046FFF7B9FA304670BD4806FBD02046E9
:10569000FFF79AFDF7E7080605D501F07F0004EB58
:1056A0000015143505E001F07F0004EB001505F549
:1056B00082752046FFF7FEFC10B10120286001E052
:1056C00000202860022229462046FFF7BBFADAE7CD
:1056D00070B504460D4694F8FC01032805D0294610
:1056E0002046FFF789FA002070BD287901280CD8E0
:1056F000D4F814022946826820469047E88800289A
:10570000F1D12046FFF7ABFAEDE729462046FFF737
:1057100073FAE8E700F0FABA00487047E86A002038
:105720000148FDF73EB80000940300200FB4054B7C
:1057300010B503A9044A029800F018F810BC5DF8EF
:1057400014FB0000E55C00080400002002E008C82B
:10575000121F08C1002AFAD170477047002001E0EB
:1057600001C1121F002AFBD1704700002DE9FF4F35
:105770008DB00F460546002606E025280BD0DDE952
:105780000F1290476D1C761C28780028F5D111B0B7
:105790003046BDE8F08F0024A246A1460122EC4924
:1057A00000E0044315F8013F203B02FA03F00842F1
:1057B000F7D128782A2810D06FF02F022878A0F18E
:1057C0003001092914D80AEB8A0102EB410144F0A7
:1057D000020400EB010A6D1CF0E701CF5FEA000A4A
:1057E00003D544F40054CAF1000A44F002046D1CCD
:1057F00028782E2817D115F8010F44F004042A2820
:105800000ED06FF02F022878A0F1300109290AD8B4
:1058100009EB890102EB410100EB01096D1CF2E784
:1058200057F8049B6D1C28786C280FD006DC4C2898
:1058300017D068280DD06A2814D104E0742810D03D
:105840007A280FD10DE044F400140AE044F48014E7
:1058500001E044F440146978814202D104F58014D7
:105860006D1C6D1C2A786E2A1FD00CDC632A31D087
:1058700004DC002A8BD0582A11D1A3E0642A68D016
:10588000692A0CD165E0732A2ED004DC6F2A73D00C
:10589000702A04D19BE0752A6FD0782A6ED010460A
:1058A000DDE90F129047761C50E1C4F30250022844
:1058B00006D0032809D0042801CF09D0066045E1AD
:1058C00001CFF117C0E9006140E101CF06803DE161
:1058D00006703BE117F8040B8DF8000000208DF8EE
:1058E0000100EB46012003E057F804BB4FF0FF3006
:1058F00061074FF0000102D40DE008F10101884674
:1059000049450FDA8045F8DB1BF808100029F4D16F
:1059100008E008F1010188468142FADB1BF8081013
:105920000029F6D1DDE90F23AAEB080081462146C4
:1059300000F036F9304400EB080604E0DDE90F1210
:105940001BF8010B9047B8F10108F7D221464846F1
:10595000F7E00A21C4F302534FF0000B0891022B29
:1059600004D001CFC117032B09D00AE0FF1D27F097
:105970000707F7E8020108E032E01FE020E000B28C
:10598000C117042B01D140B2C117031E71F10003EE
:1059900007DA4FF0000CD0EB0C006CEB01012D236B
:1059A00002E0230504D52B238DF82430012303E0E6
:1059B000E30701D02023F7E7984658E00A2110E0DA
:1059C00010210EE010204FF0000B08900CE0102189
:1059D0004FF0000B44F004044FF00809089103E075
:1059E00008214FF0000B0891C4F30253022B04D09E
:1059F00001CF0021032B06D006E0FF1D27F007078B
:105A0000F7E8020103E080B2042B00D1C0B24FF0EE
:105A1000000823072BD5702A07D0DDF820C08CF0B2
:105A2000100C5CEA0B0C05D00EE040238DF82430FE
:105A3000012308E050EA010306D030238DF824301A
:105A40008DF8252002239846DDF820C08CF0080C44
:105A50005CEA0B0C0BD150EA010301D1630706D5B8
:105A600030238DF824304FF00108A9F10109582A9C
:105A700004D038A20B9208AA0A920BE03AA2F9E7E6
:105A80005B46089AFAF7CBFB0B9B9B5C0A9A521E6B
:105A90000A92137050EA0102F2D10A98ADEB0000AD
:105AA00000F1200B600702D524F4803401E04FF0B0
:105AB0000109D94502DDA9EB0B0000E0002000EB55
:105AC0000B0141440890AAEB010AE00306D4DDE98A
:105AD0000F232146504600F063F806444FF00009BA
