:020000040800F2
:10000000207100209D010008A5010008A70100083B
:10001000A9010008AB010008AD01000800000000C4
:10002000000000000000000000000000AF01000818
:10003000B101000800000000B30100082F5C0008B7
:10004000B7010008B7010008B7010008B7010008B0
:10005000B7010008B7010008B7010008B7010008A0
:10006000B7010008B7010008B701000879040008CB
:10007000B7010008B7010008B7010008B701000880
:10008000B7010008B7010008C5020008B701000861
:1000900011720008B7010008B7010008B701000895
:1000A000B7010008B7010008B7010008B701000850
:1000B000B7010008395D0008B7010008B701000862
:1000C000B7010008B7010008B7010008B701000830
:1000D000B7010008B7010008B7010008B701000820
:1000E000B7010008B7010008B7010008B701000810
:1000F000B7010008B7010008B7010008B701000800
:10010000000000000000000000000000B70100082F
:10011000B7010008B7010008B7010008B7010008DF
:10012000B7010008B7010008890400089904000815
:10013000A9040008B701000800000000000000004A
:10014000B7010008B7010008B7010008000000006F
:10015000000000000000000000000000000000009F
:100160000000000000000000B7010008B70100080F
:10017000B7010008000000000000000000000000BF
:1001800000000000B7010008DFF80CD000F078F89C
:100190000048004759780008207100200648804731
:1001A00006480047FEE7FEE7FEE7FEE7FEE7FEE75C
:1001B000FEE7FEE7FEE7FEE7C95C000889010008EC
:1001C000202A04DB203A21FA02F00021704721FAAC
:1001D00002F3D040C2F12002914008431946704713
:1001E00040EA01039B0703D009E008C9121F08C0B9
:1001F000042AFAD203E011F8013B00F8013B521E39
:10020000F9D2704730B504460020034600E05B1C7D
:10021000934203D2E05CCD5C401BF8D030BD2DE9A9
:10022000F05F0546002092469B468846064681467A
:1002300040241BE02846414647462246FFF7C0FFC0
:1002400053465A46C01A914110D3114618462246C9
:1002500000F028F82D1A67EB01084F4622460120CE
:10026000002100F01FF817EB00094E41201EA4F1F9
:100270000104DFDC484631462A464346BDE8F09F8C
:10028000064C074D06E0E06840F0010394E80700E3
:1002900098471034AC42F6D3FFF77AFFE07C0008B1
:1002A000007D0008202A04DB203A00FA02F1002039
:1002B00070479140C2F1200320FA03F319439040A4
:1002C0007047000010B5024800F07CFC10BD000033
:1002D000BC00002070B505466C6A606C00F05000F0
:1002E000D0B9606C40F4007060642068C06800F4AD
:1002F000406068B9E06958B9606C20F4807060644F
:10030000606C00F4805018B9606C40F001006064CB
:10031000204600F053FC03E0E06B016B2846884761
:1003200070BD70B505466C6A606C40F0400060645A
:10033000A06C40F00400A064204600F041FC70BDB9
:1003400070B50446656A284600F039FC70BD70B58A
:10035000044600252068806800F00300012806D1CB
:100360002068006800F0010008B1012000E00020D2
:1003700080B32068806800F00D00012800D100E003
:10038000002050B100BF2068806840F00200216862
:10039000886003202168086009E0606C40F010006C
:1003A0006064A06C40F00100A064012070BD02F008
:1003B00025F805460FE002F021F8401B02280AD973
:1003C000606C40F010006064A06C40F00100A0641C
:1003D0000120EBE705E02068806800F001000028BC
:1003E000E9D10020E2E7000070B50446002520684E
:1003F000806800F00300012806D12068006800F042
:10040000010008B1012000E0002088BB206880685E
:100410001849084008B9012000E0002048B9606C84
:1004200040F010006064A06C40F00100A064012066
:1004300070BD2068806840F001002168886001F08C
:10044000DDFF05460EE001F0D9FF401B022809D967
:10045000606C40F010006064A06C40F00100A0648B
:100460000120E5E72068006800F001000028EAD0DC
:100470000020DDE73F00008010B5024801F0EEF9F2
:1004800010BD0000B801002010B5024801F0E6F9E7
:1004900010BD00007402002010B5024801F0DEF922
:1004A00010BD00002802002010B5024801F0D6F966
:1004B00010BD0000F001002010B5046863604468BE
:1004C000102C04D10468A2600468E16003E00468B1
:1004D000A1600468E26010BD7047704770477047C4
:1004E0002DE9F041024600274868B0F5400F07D0DB
:1004F0004868B0F1A07F03D04868B0F1E07F00D138
:1005000000BF00BF92F84000012802D10220BDE8E0
:10051000F081012082F8400000BF1068806800F080
:100520000C0008B1012000E0002000287CD1086800
:1005300001284ED191F808C0486840EA8C60D2F892
:1005400000C0DCF80CC0DFF804820CEA080C40EABA
:100550000C00D2F800C0CCF80C000869D2F800C03A
:10056000DCF80CC0CCF3C10C4FEA4C0C00FA0CF3D5
:100570004869D2F800C0DCF80CC0CCF3C10C4FEADB
:100580004C0C00FA0CF41068006A00F0F02044EA09
:10059000034C40EA0C00D2F800C0CCF820008020C8
:1005A000D2F800C0CCF80000C868012808D1106853
:1005B000406840F08000D2F800C0CCF80400BDE0F4
:1005C0001068406820F08000D2F800C0CCF8040029
:1005D000B4E01068C06800F0180018280DD0086951
:1005E000D2F800C0DCF80CC0CCF3C10C4FF004080A
:1005F000A8EB4C0C20FA0CF001E0086980000346DF
:100600001068C06800F0180018280ED04869D2F8A9
:1006100000C0DCF80CC0CCF3C10C4FF00408A8EB10
:100620004C0C20FA0CF002E083E04869800004469C
:100630000868022834D14868D8B11068406A00F0D0
:10064000FF2044EA034C40EA0C00D2F800C0CCF88A
:1006500024001068D0F8A00091F808804FF0010C39
:100660000CFA08FC40EA0C00D2F800C0CCF8A0005C
:1006700012E01068406A00F0FF20D2F800C0CCF809
:1006800024001068D0F8A000DFF8C4C000EA0C0015
:10069000D2F800C0CCF8A0004FF48076354633E0A5
:1006A0004868D8B11068806A00F0FF2044EA034C23
:1006B00040EA0C00D2F800C0CCF828001068D0F84E
:1006C000A40091F808804FF0010C0CFA08FC40EAF5
:1006D0000C00D2F800C0CCF8A40012E01068806AC8
:1006E00000F0FF20D2F800C0CCF828001068D0F845
:1006F000A400DFF85CC000EA0C00D2F800C0CCF81F
:10070000A4004FF40076354610680660C8680128DA
:1007100007D1106840682843D2F800C0CCF8040024
:100720000CE010684068A843D2F800C0CCF8040080
:1007300004E0506C40F020005064012700BF00200E
:1007400082F8400000BF3846E1E60000FFFF3F822C
:100750000100F8FFF0B596B0024600250020009099
:10076000C868012800D000E000BF00BF92F8400038
:10077000012802D1022016B0F0BD012082F840000D
:1007800000BF10688068C0F38000002879D14868F5
:10079000052812D21068006B0E7906EB460677002A
:1007A0001F26BE40B0430F7907EB47077F000E6856
:1007B000BE4030431668306343E048680A2814D2CC
:1007C0001068406B0E79761F06EB460677001F26F1
:1007D000BE40B0430F797F1F07EB47077F000E68CD
:1007E000BE403043166870632BE048680F2814D26F
:1007F0001068806B0E790A3E06EB460677001F26CE
:10080000BE40B0430F790A3F07EB47077F000E68F1
:10081000BE4030431668B06313E01068C06B0E79B9
:100820000F3E06EB460677001F26BE40B0430F7909
:100830000F3F07EB47077F000E68BE403043166846
:10084000F0631068806800F00C0008B1012000E03F
:100850000020002870D108680A2813D31068806926
:100860000E780A3E06EB46070726BE40B0430F78D7
:100870000A3F07EB47078E68BE4030431668B061F9
:1008800010E07EE1106840690E7806EB4607072607
:10089000BE40B0430F7807EB47078E68BE40304339
:1008A0001668706148691668F668C6F3C106760076
:1008B00000FA06F40869012806D0022812D003289D
:1008C0001ED0042839D129E01068006EB34E3040A4
:1008D0000E784FF0004747EA866626433043166895
:1008E000306663E01068406EAC4E30400E784FF0DA
:1008F000004747EA8666264330431668706655E02F
:100900001068806EA54E30400E784FF0004747EAE1
:100910008666264330431668B06647E01068C06EAE
:100920009E4E30400E784FF0004747EA86662643D9
:1009300030431668F06639E039E01068006E00F068
:10094000F8400E78B0EB866F05D11068006E20F08D
:100950000040166830661068406E00F0F8400E786F
:10096000B0EB866F05D11068406E20F0004016682D
:1009700070661068806E00F0F8400E78B0EB866FFD
:1009800005D11068806E20F000401668B0661068CF
:10099000C06E00F0F8400E78B0EB866F05D110689D
:1009A000C06E20F000401668F06600BF00BF1068FF
:1009B000806800F00300012806D11068006800F08C
:1009C000010008B1012000E00020002871D1C868B2
:1009D00001280AD01068D0F8B0000F780126BE4078
:1009E000B0431668C6F8B00032E01068D0F8B00026
:1009F0000F780126BE4030431668C6F8B00008687C
:100A00000A2813D3106886690878093800EB400774
:100A10000720B84026EA00000E78093E06EB46069D
:100A20008F68B74038431668B06111E010684069BC
:100A30000E78761C06EB46070726BE40B0430F78BB
:100A40007F1C07EB47078E68BE4030431668706115
:100A50001068B0F1A04F03D0514E1068B04201D1E0
:100A6000504800E0504803460868102803D19868B1
:100A700000F4000070B10868112803D1986800F0F4
:100A8000807038B10868122813D1986800F480008B
:100A900000287BD11068B0F1A04F02D140480190EE
:100AA00018E03F4E1068B04204D14FF0A0400190D2
:100AB00010E05FE03D4E1068B04202D13C4801902A
:100AC00008E03B4E1068B04202D13848019001E086
:100AD000002001901068806800F00300012806D112
:100AE0001068006800F0010008B1012000E000205B
:100AF000C0BB019870B10198806800F00300012824
:100B000006D10198006800F0010008B1012000E062
:100B1000002038BB0868102818D11068B0F1A04F29
:100B200014D1986840F40000986022480068224E72
:100B3000B0FBF6F000EB80004000009002E000986F
:100B4000401E009000980028F9D11FE00868112885
:100B500009D11068B0F1A04F05D1986840F08070BD
:100B6000986013E007E0086812280FD1986840F4F5
:100B7000800098600AE0506C40F02000506401252D
:100B800004E0506C40F020005064012500BF0020BC
:100B900082F8400000BF2846EDE5000000F0FF832A
:100BA00000010050000300500007005000040050F6
:100BB000000500500C00002040420F0070477047B5
:100BC000704700002DE9F041044600270025A846A3
:100BD0002068006800F00400042805D120684068FF
:100BE00000F0040004280BD02068006800F0080022
:100BF00008287DD12068406800F008000828F8D156
:100C0000606C00F0100018B9606C40F40070606413
:100C10002068B0F1A04F03D0F7492068884204D182
:100C2000F648006800F01F0003E0F548006800F097
:100C30001F0070B32068B0F1A04F03D0EE492068C8
:100C4000884204D1ED48006800F01F0003E0EC4842
:100C5000006800F01F0005281BD02068B0F1A04FED
:100C600003D0E5492068884204D1E448006800F0D8
:100C70001F0003E0E248006800F01F00092808D0C8
:100C80002068B0F1A04F04D0DC49F83120688842D8
:100C900002D12068C5680DE02068B0F1A04F03D0F4
:100CA000D5492068884202D14FF0A04001E0D348E6
:100CB000F830C5682068C06800F4406008BB05F4DF
:100CC0000050F0B92068006800F00800082821D121
:100CD00020688068C0F38000A0B92068406820F0D8
:100CE0000C0021684860606C20F48070606400E053
:100CF00016E0606C00F4805018B9606C40F00100A0
:100D0000606407E0606C40F010006064A06C40F02C
:100D10000100A0642046FFF751FF0C202168086005
:100D20002068006800F02000202805D12068406875
:100D300000F0200020280BD02068006800F0400060
:100D400040287DD12068406800F040004028F8D15C
:100D5000606C40F4005060642068B0F1A04F03D094
:100D6000A5492068884204D1A448006800F01F000B
:100D700003E0A348006800F01F0070B32068B0F1E2
:100D8000A04F03D09C492068884204D19B4800684A
:100D900000F01F0003E09A48006800F01F000528DB
:100DA0001BD02068B0F1A04F03D09349206888423F
:100DB00004D19248006800F01F0003E090480068EA
:100DC00000F01F00092808D02068B0F1A04F04D01F
:100DD0008A49F8312068884202D12068C5680DE050
:100DE0002068B0F1A04F03D083492068884202D127
:100DF0004FF0A04001E08148F830C5682068C06C21
:100E000000F0C00068B105F0007000287DD12068B6
:100E1000C06800F44060002877D105F40050002835
:100E200073D12068006800F0400040287AD1206823
:100E3000B0F1A04F03D070492068884206D100E08D
:100E400076E06E48006800F01F0003E06C48006820
:100E500000F01F0070B32068B0F1A04F03D06649C6
:100E60002068884204D16548006800F01F0003E054
:100E70006348006800F01F0006281BD02068B0F10E
:100E8000A04F03D05C492068884204D15B480068C9
:100E900000F01F0003E05A48006800F01F00072818
:100EA00008D02068B0F1A04F04D05449F831206830
:100EB000884203D12068D0F80C800EE02068B0F1A1
:100EC000A04F03D04C492068884202D14FF0A04087
:100ED00001E04A48F830D0F80C8008F40010A0B9BE
:100EE00020688068C0F3C000A0B92068406820F086
:100EF000600021684860606C20F480506064606C21
:100F000000F4807008B9606C00E00BE040F0010074
:100F1000606407E0606C40F010006064A06C40F01A
:100F20000100A0642046FFF7D7FA6020216808601E
:100F30002068006800F0800080280FD12068406899
:100F400000F08000802809D1606C40F4803060643B
:100F5000204600F005FA80202168086020680068BB
:100F600000F48070B0F5807F11D12068406800F4F3
:100F70008070B0F5807F0AD1606C40F4003060640E
:100F80002046FFF7ABFA4FF48070216808602068B4
:100F9000006800F40070B0F5007F11D1206840684F
:100FA00000F40070B0F5007F0AD1606C40F480203E
:100FB00060642046FFF793FA4FF4007021680860E0
:100FC0002068006800F0100010283DD120684068BB
:100FD00000F01000102837D1A06B012801D10127A3
:100FE00022E02068B0F1A04F03D003492068884276
:100FF00008D10248083806E00001005008030050FC
:101000000807005020480646B06800F01F0030B9BD
:101010002068C06800F0010030B1012704E0B0682A
:1010200000F4404000B10127012F0AD1606C40F468
:1010300080606064A06C40F00200A0642046FFF76E
:10104000BFFD1020216808602068006800F48060FF
:10105000B0F5806F15D12068406800F48060B0F56D
:10106000806F0ED1606C40F480406064A06C40F0F2
:101070000800A0644FF48060216808602046FFF7F4
:101080002CFABDE8F081000000070050F0B597B0E1
:101090000446002600250020019014B9012017B055
:1010A000F0BD206910B1606A00B100BF606C00F053
:1010B0001000002851D1606C98BB0020A064002172
:1010C0002165E06484F84000204600F057F920686C
:1010D000806800F0805020BB2046FFF738F90646B4
:1010E000606C00F01000E0B9DEB9606C20F488504C
:1010F00040F0020060642068806820F04050216861
:1011000088602068806840F08050216888608C4842
:1011100000688C49B0FBF1F000EB800040000190CA
:1011200003E005E00198401E019001980028F9D1E4
:101130002068806800F0805020B12068806800F04E
:10114000005050B1606C20F0020040F0100060646C
:10115000A06C40F00100A0640126606C00F010005B
:1011600000287AD1002EFCD120688068C0F380006E
:101170000028F6D1606C20F4807040F002006064BA
:101180002068B0F1A04F03D06F492068884201D198
:101190006E4800E06E4807462068B0F1A04F02D1CB
:1011A0006948029017E068492068884203D14FF0EF
:1011B000A04002900FE067492068884202D166484B
:1011C000029008E064492068884202D16148029098
:1011D00001E0002002902068806800F003000128F0
:1011E00006D12068006800F0010008B1012000E08D
:1011F0000020B0B9029870B10298806800F0030036
:10120000012806D10298006800F0010008B1012011
:1012100000E0002028B9B86820F440306168084335
:10122000B860A06B012802D04FF4805100E000218B
:10123000E06941EA4030E1680843A168084305439A
:10124000606A012814D1E06940B9208D401E4FF436
:10125000803141EA404005430AE068E0606C20F0DC
:10126000020040F020006064A06C40F00100A06427
:10127000E06A012822D037492068884203D03649E5
:101280002068884216D1E06AB0F5307F02D14FF471
:10129000E07010E0E06AB0F5807F02D14FF430706A
:1012A00009E0E06AB0F5E07F02D14FF4807002E01F
:1012B000E06A00E0E06A216B08430543206880682B
:1012C00000F00C0008B1012000E0002060B92068A7
:1012D000C06844F2020188432168C860A0698103A4
:1012E000606B41EA400005432068C0681B49084024
:1012F00028432168C8602069012809D12068006B53
:1013000020F00F00216A491E08432168086305E0A8
:101310002068006B20F00F00216808630020A064A3
:10132000606C20F0020040F00100606406E0606C38
:1013300020F0020040F01000606401263046AEE666
:101340000C00002040420F0000010050000300503C
:1013500000070050000400500005005007C0F0FFD7
:1013600010B50446044803F00FFD2068C06820F45F
:1013700000002168C86010BDC003002038B50446D5
:101380002068B0F1A04F2FD100BF5048406940F015
:1013900080504E4948610846406900F080500090F6
:1013A00000BF00BF4A484B49086000204860002148
:1013B000484881608021C160490001618900416124
:1013C000202181610021C16100F0CCFE00BF4148B5
:1013D000E063446200BF00221146122001F069F868
:1013E000122001F059F870E03B49206888422FD163
:1013F0003A480068401C39490860084600680128DE
:101400000DD100BF3148406940F000502F4948617C
:101410000846406900F00050009000BF00BF30480F
:10142000304908600020486000212E4881608021FA
:10143000C160490001618900416120218161002171
:10144000C16100F08FFE00BF2648E06344623CE0CB
:1014500025492068884238D120480068401C1F492F
:1014600008600846006801280DD100BF1748406990
:1014700040F00050154948610846406900F00050AE
:10148000009000BF00BF16481438184908600020BB
:1014900048600021154881608021C16049000161D8
:1014A00089004161202181610021C16100F05AFE63
:1014B00000BF0F48006840F480700D49086000BF0D
:1014C00000BF0A48E063446200BF38BD001002401C
:1014D00008000240B8010020000400500000002075
:1014E00058040240F00100200005005028020020AE
:1014F000000001402DE9F04104460D461646002744
:1015000020688068C0F3800000287CD100BF94F878
:101510004000012802D10220BDE8F081012084F8BA
:10152000400000BF2068B0F1A04F03D056492068AA
:10153000884204D15548006800F01F0003E0544879
:10154000006800F01F0000287ED12046FEF74CFF07
:101550000746002F79D1606C40F60161884340F462
:10156000807060642068B0F1A04F03D046492068C5
:10157000884204D14548006800F01F0003E0444859
:10158000006800F01F0040B12068B0F1A04F04D007
:101590003E49F831206888420FD1606C20F48010F9
:1015A00060642068C06800F0007018B3606C20F4BC
:1015B000005040F4805060641CE0606C40F4801087
:1015C00060642068B0F1A04F03D02F4920688842A2
:1015D00005D14FF0A040C06800F0007003E02D4836
:1015E000006800F0007028B1606C20F4005040F4F6
:1015F00080506064606C00F4805028B1A06C20F0D2
:101600000600A06402E03BE00020A06400BF0020D0
:1016100084F8400000BF2048E16B88621F48E16BFE
:10162000C8621F48E16B08631C20216808602068BD
:10163000406840F01000216848602068C06840F0B1
:1016400001002168C86001E014E00EE0226802F1A8
:10165000400133462A46E06B00F0AEFD206880680A
:1016600040F00400216888600BE000BF002084F88F
:10167000400006E0012700BF002084F8400000E0A1
:101680000227384648E700000001005008030050D8
:10169000080700500C040050D50200084103000860
:1016A0002303000810B5034600BF5879012801D173
:1016B000022010BD0120587100BF02201871186867
:1016C00000684FF47C648C40A04342F080048C405E
:1016D00020431C6820600120187100BF0020587151
:1016E00000BF00BFE5E770B503460024002500BF3A
:1016F0005879012801D1022070BD0120587100BF26
:10170000022018711868046840F6FE709040844307
:10171000D1E9000640EA060505FA02F0044318681C
:10172000046018680668C020904086431868066008
:101730000120187100BF0020587100BF00BFDBE717
:1017400010B504460CB9012010BD207920B9002045
:101750006071204600F008F802202071002020610E
:10176000012020710020EFE710B586B004461C4927
:101770002068884231D100BF1A48C06940F000504B
:101780001849C8610846C06900F00050009000BFC9
:1017900000BF10200190032002900020039001A9B7
:1017A0004FF0904000F044FD0F48104908601020B1
:1017B000486000210D4881608021C16049000161BD
:1017C00089004161202181610021C16100F0CAFCD2
:1017D00000BF0648A060446200BF06B010BD000014
:1017E00000740040001002403004024074020020E7
:1017F000024600BF5079012801D102207047012024
:10180000507100BF022010711068006801238B40E6
:1018100018431368186061B91068006800F03C0054
:101820003C2813D11068406840F0010013685860EC
:101830000CE01068006800F47010B0F5701F05D15E
:101840001068406840F00200136858600120107171
:1018500000BF0020507100BF00BFCFE710B50446A5
:10186000F8492068884255D9F7480068F54A783A1F
:101870002168914201D108214AE0F24A643A216884
:10188000914201D1802143E0EE4A503A21689142D1
:1018900001D1C9143CE0EB4A3C3A2168914202D1A3
:1018A0004FF4004134E0E74A283A2168914202D1DE
:1018B0004FF400212CE0E34A143A2168914202D10E
:1018C0004FF4000124E0DF4A2168914201D109056B
:1018D0001EE0DD4A08322168914201D1082117E05B
:1018E000D94A1C322168914201D1802110E0D64AA8
:1018F00030322168914201D1C91409E0D24A443200
:101900002168914202D14FF4004101E04FF40021DF
:10191000084055E0CB4880380068CA4A783A2168C8
:10192000914201D108214AE0C64A643A21689142B5
:1019300001D1802143E0C34A503A2168914201D14C
:10194000C9143CE0BF4A3C3A2168914202D14FF4AD
:10195000004134E0BB4A283A2168914202D14FF459
:1019600000212CE0B74A143A2168914202D14FF489
:10197000000124E0B34A2168914201D109051EE02B
:10198000B14A08322168914201D1082117E0AE4ADC
:101990001C322168914201D1802110E0AA4A3032E4
:1019A0002168914201D1C91409E0A74A4432216853
:1019B000914202D14FF4004101E04FF40021084070
:1019C000002873D020680068C0F3C0000028F8D059
:1019D0002068006820F008002168086099492068A4
:1019E000884255D9974978392068884201D1082022
:1019F0004AE0944964392068884201D1802043E05C
:101A0000904950392068884201D1C0143CE08D498A
:101A10003C392068884202D14FF4004034E08949C3
:101A200028392068884202D14FF400202CE08549F3
:101A300014392068884202D14FF4000024E0814923
:101A40002068884201D100051EE07F4908312068E6
:101A5000884201D1082017E07B491C312068884268
:101A600001D1802010E0784930312068884201D1CE
:101A7000C01409E0744944312068884202D14FF40F
:101A8000004001E04FF400206F49091D086055E057
:101A90006C4978392068884201D108204BE06949B7
:101AA00064392068884202D1802044E057E06549CB
:101AB00050392068884201D1C0143CE061493C396A
:101AC0002068884202D14FF4004034E05D49283953
:101AD0002068884202D14FF400202CE05949143983
:101AE0002068884202D14FF4000024E05549206864
:101AF000884201D100051EE0534908312068884220
:101B000001D1082017E050491C312068884201D1DA
:101B1000802010E04C4930312068884201D1C01447
:101B200009E0494944312068884202D14FF400401D
:101B300001E04FF40020434980394860606B40F079
:101B400001006063042084F8210000BF002084F8B5
:101B5000200000BF206B10B12046216B8847394917
:101B60002068884255D938480068364A783A216852
:101B7000914201D104214AE0324A643A21689142FB
:101B800001D1402143E02F4A503A2168914201D1CE
:101B900009153CE02B4A3C3A2168914202D14FF4AE
:101BA000804134E0274A283A2168914202D14FF41B
:101BB00080212CE0234A143A2168914202D14FF44B
:101BC000800124E01F4A2168914201D1C9041EE02E
:101BD0001D4A08322168914201D1042117E01A4AB6
:101BE0001C322168914201D1402110E0164A303266
:101BF0002168914201D1091509E0134A4432216854
:101C0000914202D14FF4804101E04FF4802108401D
:101C100059E00C48803800680A4A783A21689142B5
:101C200001D104214EE0074A643A2168914201D172
:101C3000402147E0034A503A2168914206D10915F4
:101C400040E000008000024000040240F74A2168A2
:101C5000914202D14FF4804134E0F44A14322168B9
:101C6000914202D14FF480212CE0F04A28322168C1
:101C7000914202D14FF4800124E0EC4A3C322168C9
:101C8000914201D1C9041DE0E94A2168914201D184
:101C9000042117E0E64A14322168914201D1402123
:101CA00010E0E34A28322168914201D1091509E088
:101CB000DF4A3C322168914202D14FF4804101E079
:101CC0004FF48021084080B320680068C0F3800092
:101CD00058B32068006800F0200028B92068006828
:101CE00020F0040021680860D0493C312068884217
:101CF00055D9CE493C392068884201D104204AE0B8
:101D0000CA4928392068884201D1402043E0C749A8
:101D100014392068884201D100153CE0C34920688D
:101D2000884203D14FF4804035E094E0BF4914313C
:101D30002068884202D14FF480202CE0BB49283132
:101D40002068884202D14FF4800024E0B7493C313A
:101D50002068884201D1C0041DE0B549206888424E
:101D600001D1042017E0B24914312068884201D122
:101D7000402010E0AE4928312068884201D100158A
:101D800009E0AB493C312068884202D14FF48040E1
:101D900001E04FF48020A649091F086053E0A349E1
:101DA0003C392068884201D1042049E09F49283904
:101DB0002068884201D1402042E09C4914392068C3
:101DC000884201D100153BE098492068884202D141
:101DD0004FF4804034E0954914312068884202D1A4
:101DE0004FF480202CE0914928312068884202D1AC
:101DF0004FF4800024E08D493C312068884201D1B5
:101E0000C0041DE08A492068884201D1042017E0FF
:101E1000874914312068884201D1402010E084496C
:101E200028312068884201D1001509E080493C3101
:101E30002068884202D14FF4804001E04FF48020B6
:101E40007A4944394860112084F82100E06A10B1D1
:101E50002046E16A884775493C312068884255D957
:101E6000734808380068714A3C3A2168914201D1B0
:101E7000022149E06D4A283A2168914201D120218E
:101E800042E06A4A143A2168914201D149153BE087
:101E9000664A2168914202D14FF4005134E0634A0E
:101EA00014322168914202D14FF400312CE05F4A94
:101EB00028322168914202D14FF4001124E05B4A9C
:101EC0003C322168914201D189041DE0584A2168C1
:101ED000914201D1022117E0554A14322168914202
:101EE00001D1202110E0524A28322168914201D1CB
:101EF000491509E04E4A3C322168914202D14FF423
:101F0000005101E04FF40031084054E047484438A4
:101F10000068464A3C3A2168914201D1022149E0D9
:101F2000424A283A2168914201D1202142E03F4AA9
:101F3000143A2168914201D149153BE03B4A21689E
:101F4000914202D14FF4005134E0384A14322168F2
:101F5000914202D14FF400312CE0344A28322168FA
:101F6000914202D14FF4001124E0304A3C32216802
:101F7000914201D189041DE02D4A2168914201D18D
:101F8000022117E02A4A14322168914201D120210E
:101F900010E0274A28322168914201D1491509E011
:101FA000234A3C322168914202D14FF4005101E0B2
:101FB0004FF40031084080B320680068C0F340004F
:101FC00058B32068006800F0200028B92068006835
:101FD00020F002002168086014493C3120688842E2
:101FE00058D912493C392068884201D102204DE07D
:101FF0000E4928392068884201D1202046E00B494B
:1020000014392068884201D140153FE00749206813
:10201000884203D14FF4005038E09EE00349143168
:102020002068884206D14FF400302FE0440002407F
:102030000804024049492068884202D14FF4001048
:1020400024E0464914312068884201D180041DE013
:1020500043492068884201D1022017E040491431E9
:102060002068884201D1202010E03D4928312068B5
:10207000884201D1401509E039493C312068884245
:1020800002D14FF4005001E04FF400303449091FF1
:10209000086053E0314964392068884201D1022048
:1020A00049E02E4950392068884201D1202042E081
:1020B0002A493C392068884201D140153BE0274934
:1020C00028392068884202D14FF4005033E0234978
:1020D00014392068884202D14FF400302BE01F49A8
:1020E0002068884202D14FF4001024E01B491431CB
:1020F0002068884201D180041DE019492068884287
:1021000001D1022017E0164914312068884201D11C
:10211000202010E0124928312068884201D1401562
:1021200009E00F493C312068884202D14FF4005049
:1021300001E04FF4003009496C394860606B60631E
:10214000012084F8210000BF002084F8200000BF97
:10215000A06A10B12046A16A884710BD6C000240F9
:10216000080402400146002209B90120704791F895
:10217000210010B9002081F82000022081F8210000
:102180000868026843F6F0708243D1E901031843FE
:10219000CB6818430B6918434B6918438B69184384
:1021A000CB6918430243086802600020486301209D
:1021B00081F821000020D9E72DE9F04104460D46C1
:1021C00016461F4600BF94F82000012802D10220C5
:1021D000BDE8F081012084F8200000BF022084F8CF
:1021E00021002068006820F00100216808603B465B
:1021F000324629462046FEF75FF92068006840F025
:102200000200216808602068006840F0040021682E
:1022100008602068006840F00800216808602068B5
:10222000006840F00100216808600020D0E700004D
:1022300078B50346002200240020CBE0012696401A
:102240000D6805EA0604002C72D04D68022D02D0FC
:102250004D68122D13D1D60803F1200555F826003C
:102260005507EE0E0F25B540A8435607F60E0D692B
:10227000B5402843D60803F1200545F82600186824
:1022800056000325B540A8430D7905F00305560017
:10229000B540284318604D68012D08D04D68022DC7
:1022A00005D04D68112D02D04D68122D13D19868BC
:1022B00056000325B540A8435600CD68B5402843D5
:1022C0009860586801259540A8430D79C5F300151D
:1022D000954028435860D86856000325B540A84368
:1022E00056008D68B5402843D8604D6805F080558C
:1022F000B5F1805F6DD100BF394DAD6945F0010585
:10230000374EB5613546AD6905F00105009500BF52
:1023100000BF4FEAB635960855F8260095072E0FF0
:102320000F25B540A843B3F1904F02D1002515E029
:102330004FE02C4DAB4201D101250FE02A4DAB42BD
:1023400001D102250AE0294DAB4201D1032505E068
:10235000274DAB4201D1042500E005259607360F35
:10236000B5402843234D960845F82600224D28689D
:10237000A0434D6805F48035B5F5803F00D120437A
:102380001D4D28602D1D2868A0434D6805F40035BB
:10239000B5F5003F00D12043174D2D1D28602D1DA0
:1023A0002868A0434D6805F48015B5F5801F00D15D
:1023B0002043114D083528602D1D2868A0434D6825
:1023C00005F40015B5F5001F00D120430A4D0C356A
:1023D0002860521C0D68D540002D7FF42FAF78BDCA
:1023E000001002400004004800080048000C0048AB
:1023F0000010004808000140000401400148006846
:10240000704700001000002002480068401C01498D
:10241000086070471000002010B50848006840F0C0
:10242000100006490860032000F082F8002000F048
:1024300007F800F017F8002010BD0000002002404F
:1024400070B5044601F0B6FD4FF47A71B0FBF1F5BA
:10245000284602F0E2FB00222146501E00F029F837
:10246000002070BD08B500BF0A48806940F0010037
:10247000084988610846806900F00100009000BFAB
:1024800000BF072000F054F800221146501E00F053
:1024900010F808BD0010024000BF00F01F0201212B
:1024A00091404209920002F1E022C2F8001100BFFF
:1024B00070472DE9F05F80460D461646002703F071
:1024C00093F8074639462A46334601F00700C0F123
:1024D000070ABAF1040F02D94FF0040A01E0C0F173
:1024E000070AD14600F1040ABAF1070F02D24FF0F1
:1024F000000A01E0A0F1030AD4464FF0010A0AFAEB
:1025000009FAAAF1010A0AEA020A0AFA0CFA4FF0D9
:10251000010B0BFA0CFBABF1010B0BEA030B4AEAC4
:102520000B042146404603F067F8BDE8F09F000029
:1025300000BF00F00702064B19684FF6FF03194071
:10254000044B0B4343EA0221014B196000BF704763
:102550000CED00E00000FA0538B5044600253CB15A
:1025600094F83200052803D094F83200022801D1F3
:10257000012038BD606800B900BF2069802802D101
:10258000606800B900BF6068402800D100BF606A81
:10259000B0F5802F00D100BF00BF2F48806940F008
:1025A00001002D4988610846806900F00100009013
:1025B00000BF00BF94F8320010B9002084F8310049
:1025C000204600F04DF86068402802D0606860281E
:1025D0001BD1E1686068084321690843A169084389
:1025E000E1690843216A0843616A0843218D40EA92
:1025F000C14194F82C0041EA006021680968174A3B
:1026000011400843216808601EE0D4E90101084335
:10261000E16808432169084361690843A1690843E7
:10262000E1690843216A0843616A0843218D40EA51
:10263000C14194F82C0041EA006120680068074A13
:10264000104001432068016094F8320010B9012065
:1026500084F8320028468CE700100240113800E070
:1026600010B586B004461849206888420BD1062070
:102670000190032002900020039001A94FF09040A8
:10268000FFF7D6FD1EE0104908312068884209D1C5
:102690000320019002900020039001A90B48FFF74E
:1026A000C7FD0FE008490C31206888420AD14FF479
:1026B000C0500190032002900020039001A903481C
:1026C000FFF7B6FD06B010BD380001400004004819
:1026D0000146002019B191F83220052A01D10120CC
:1026E0000EE091F83220012A09D10A68126842F0FE
:1026F00001020B681A60042281F8322000E00120F8
:10270000704770B505460C4604F08000802808D15B
:1027100004F07F00C0EBC00605F1280000EB860145
:1027200005E0C4EBC40605F5E67000EB86011AB9B6
:10273000002088728B8004E001208872CB80180C06
:102740000881002070BD704770B504460D4615B174
:102750000BA004F065FD29460CA004F061FD10A05B
:1027600004F05EFDC5EBC50304F1280101EB830114
:102770000A692946D4F8A40304F096F870BD000055
:102780004445425547203A200000000044617461EE
:10279000496E2061742045502025303278000000B9
:1027A0000A00000070B504460D4615B10BA004F0F8
:1027B00037FD29460CA004F033FD10A004F030FDD5
:1027C000C5EBC50304F5E67101EB83010A692946EF
:1027D000D4F8A40304F0C9F870BD00004445425584
:1027E00047203A2000000000446174614F75742056
:1027F0006174204550202530327800000A00000026
:1028000070B502460B4603F08000802808D103F023
:102810007F00C0EBC00402F1280000EB840107E058
:1028200003F07F00C0EBC00402F5E67000EB84010A
:1028300003F07F00087003F08000C009487000BFFB
:1028400092F87003012801D1022070BD012082F8A6
:10285000700300BF887A002857D1487850B30C78AD
:102860006400106830F8140000F0400078B10C7873
:102870006400106830F8140048F68F74204048F265
:10288000C00420430D786D00146824F815000D78FD
:102890006D00146834F8154048F6BF7504EA050069
:1028A00040F4004444F080040E787600156825F862
:1028B0001640F7E00C786400106830F8140000F45B
:1028C000804078B10C786400106830F8140048F645
:1028D0008F7420404CF2800420430D786D00146802
:1028E00024F815000D786D00146834F815404BF687
:1028F0008F7504EA050040F4004444F080040E782B
:102900007600156825F81640CCE04878002864D198
:102910000C786400106830F8140000F4804078B13E
:102920000C786400106830F8140048F68F7420406A
:102930004CF2800420430D786D00146824F81500D3
:102940000C786400106830F8140000F0400078B192
:102950000C786400106830F8140048F68F7420403A
:1029600048F2C00420430D786D00146824F8150067
:102970000C786400106830F8140048F68F7420401A
:1029800048F2C00420430D786D00146824F8150047
:102990000D786D00146834F815404BF68F7504EA15
:1029A000050040F4004444F080040E787600156879
:1029B00025F816400D786D00146834F8154048F677
:1029C000BF7504EA050040F4004444F080040E782A
:1029D0007600156825F8164064E00C7864001068ED
:1029E00030F8140000F4804078B10C78640010686E
:1029F00030F8140048F68F7420404CF280042043D5
:102A00000D786D00146824F815000C7864001068C7
:102A100030F8140000F0400078B10C7864001068C1
:102A200030F8140048F68F74204048F2C004204368
:102A30000D786D00146824F815000C786400106897
:102A400030F8140048F68F7420404CF28004204384
:102A50000D786D00146824F815000D786D00146869
:102A600034F8154048F6BF7504EA050040F4004408
:102A700044F080040E787600156825F816400D782D
:102A80006D00146834F815404BF68F7504EA0500A4
:102A900040F4004444F080040E787600156825F870
:102AA000164000BF00BF002082F8700300BF00BFC7
:102AB000CBE670B502460B4603F08000802808D1B3
:102AC00003F07F00C0EBC00402F1280000EB84019A
:102AD00005E0C3EBC30402F5E67000EB84010020BF
:102AE000887003F07F000870C3F3C010487000BF07
:102AF00092F87003012801D1022070BD012082F8F4
:102B0000700300BF487870B30C786400106830F828
:102B1000140000F0400078B10C786400106830F8C0
:102B2000140048F68F74204048F2C00420430D780A
:102B30006D00146824F815000D786D00146834F8E1
:102B4000154048F6BF7504EA050080F0100080F0DB
:102B5000200040F4004444F080040E7876001568AC
:102B600025F816402EE00C786400106830F8140048
:102B700000F4804078B10C786400106830F81400DC
:102B800048F68F7420404CF2800420430D786D008D
:102B9000146824F815000D786D00146834F8154099
:102BA0004BF68F7504EA050080F4805080F40050E5
:102BB00040F4004444F080040E787600156825F84F
:102BC000164000BF00BF002082F8700300BF00BFA6
:102BD00093E7024601F07F00C0EBC00302F5E67008
:102BE00000EB8300008B80B270472DE9F041044672
:102BF0000D46002705F08000802808D105F07F00F1
:102C0000C0EBC00604F1280000EB860107E005F0E8
:102C10007F00C0EBC00604F5E67000EB860105F00E
:102C20007F00087005F08000C0094870CA60CB7052
:102C300000BF94F87003012802D10220BDE8F081A2
:102C4000012084F8700300BFC87830B1012838D063
:102C5000022814D0032846D121E00E78760020689F
:102C600030F8160048F68F16304040F4007691F8A0
:102C700000C04FEA4C0C206820F81C6033E00E784E
:102C80007600206830F8160048F68F16304091F82C
:102C900000C04FEA4C0C266826F81C0023E00E7892
:102CA0007600206830F8160048F68F16304040F461
:102CB000C06091F800C04FEA4C0C266826F81C0052
:102CC00011E00E787600206830F8160048F68F166E
:102CD000304040F4806691F800C04FEA4C0C206808
:102CE00020F81C6000BF00BF0E787600206830F826
:102CF000160048F68F76304048F2800630430E7852
:102D0000304391F800C04FEA4C0C266826F81C00AE
:102D1000887A00287CD14878E0B3888840104FEA50
:102D2000400C2068B0F85060087806EBC0002668B8
:102D300006F5806646F810C00E787600206830F8F8
:102D4000160000F0400088B10E787600206830F858
:102D5000160048F68F76304048F2C006304391F8AE
:102D600000C04FEA4C0C266826F81C0091F800C001
:102D70004FEA4C0C266836F81C6048F6BF7C06EA21
:102D80000C0080F0200040F4004646F0800691F8E8
:102D9000008000E006E04FEA4808D4F800C02CF8B4
:102DA0001860ABE1888840104FEA400C2068B0F80A
:102DB0005060087806EBC000001D266806F58066A6
:102DC00046F810C02068B0F850C008780CEBC0007E
:102DD000801DD4F800C00CF5806C0CEB4006D1F8D7
:102DE0000CC0BCF13E0F19D9D1F80CC0CCF34F1078
:102DF00091F80CC00CF01F0CBCF1000F03D1A0F136
:102E0000010C1FFA8CF04FF4004C4CEA802C00E0CF
:102E10004FE01FFA8CFCC6F800C014E0D1F80CC0DB
:102E2000CCF34F0091F80CC00CF0010CBCF1000F7A
:102E300003D000F1010C1FFA8CF04FF6FF7C0CEA76
:102E4000802CC6F800C00E787600206830F8160096
:102E500000F4804088B10E787600206830F81600C3
:102E600048F68F7630404CF28006304391F800C02F
:102E70004FEA4C0C266826F81C0091F800C04FEA77
:102E80004C0C266836F81C604BF68F7C06EA0C006A
:102E900080F4805080F4005040F4004646F08006F4
:102EA00091F800804FEA4808D4F800C02CF8186068
:102EB00024E10E787600206830F8160040F4807027
:102EC00048F68F76304048F28006304391F800C0D3
:102ED0004FEA4C0C266826F81C00C88840104FEAC0
:102EE000400C2068B0F85060087806EBC0002668F7
:102EF00006F5806646F810C0088940104FEA400C7D
:102F00002068B0F85060087806EBC000001D266805
:102F100006F5806646F810C04878002879D10E780A
:102F20007600206830F8160000F4804088B10E78F2
:102F30007600206830F8160048F68F7630404CF264
:102F40008006304391F800C04FEA4C0C266826F802
:102F50001C000E787600206830F8160000F0400063
:102F600088B10E787600206830F8160048F68F7623
:102F7000304048F2C006304391F800C04FEA4C0C94
:102F8000266826F81C000E787600206830F81600B7
:102F900048F68F76304048F2C006304391F800C0C2
:102FA0004FEA4C0C266826F81C0091F800C04FEA46
:102FB0004C0C266836F81C604BF68F7C06EA0C0039
:102FC00080F4805080F4005040F4004646F08006C3
:102FD00091F800804FEA4808D4F800C02CF8186037
:102FE00091F800C04FEA4C0C266836F81C6048F691
:102FF000BF7C06EA0C0040F4004646F0800691F8DB
:1030000000804FEA4808D4F800C02CF8186075E03A
:10301000FFE70E787600206830F8160000F4804054
:1030200088B10E787600206830F8160048F68F7662
:1030300030404CF28006304391F800C04FEA4C0C0F
:10304000266826F81C000E787600206830F81600F6
:1030500000F0400088B10E787600206830F8160045
:1030600048F68F76304048F2C006304391F800C0F1
:103070004FEA4C0C266826F81C000E787600206873
:1030800030F8160048F68F7630404CF28006304318
:1030900091F800C04FEA4C0C266826F81C0091F805
:1030A00000C04FEA4C0C266836F81C6048F6BF7C1E
:1030B00006EA0C0040F4004646F0800691F80080D5
:1030C0004FEA4808D4F800C02CF8186091F800C006
:1030D0004FEA4C0C266836F81C604BF68F7C06EAEB
:1030E0000C0040F4004646F0800691F800804FEA5C
:1030F0004808D4F800C02CF8186000BF00BF0020BA
:1031000084F8700300BF384698E5F0B504460D46D4
:1031100005F07F00C0EBC00604F5E67000EB860109
:103120000A614B6100208861487005F07F000870DB
:1031300000BF94F87003012801D10220F0BD0120E6
:1031400084F8700300BFCE684869B04204D9CB68E8
:103150004869C01A486102E04B6900204861887ADA
:1031600040BB2068B0F85070087807EBC000801DA5
:10317000276807F5806707EB40063E2B0DD9C3F3A0
:103180004F1003F01F070FB9471EB8B24FF40047A6
:1031900047EA8027BFB237600BE0C3F34F0003F06C
:1031A00001070FB1471CB8B24FF6FF7707EA802737
:1031B000376039E0487840BB2068B0F85070087834
:1031C00007EBC000801D276807F5806707EB400606
:1031D0003E2B0DD9C3F34F1003F01F070FB9471E45
:1031E000B8B24FF4004747EA8027BFB237600BE020
:1031F000C3F34F0003F001070FB1471CB8B24FF6FD
:10320000FF7707EA802737600EE0487801280BD166
:103210002068B0F85060087806EBC000801C266873
:1032200006F5806646F810300F787F00266836F87D
:1032300017604BF68F7706EA070080F4805080F421
:10324000005040F4004646F0800691F800C04FEA76
:103250004C0C276827F81C6000BF002084F870031E
:1032600000BF00BF6AE770B502460B4600BF92F888
:103270007003012801D1022070BD012082F8700383
:1032800000BF03F08000802808D103F07F00C0EB6E
:10329000C00402F1280000EB840105E0C3EBC30485
:1032A00002F5E67000EB84010120887003F07F00D6
:1032B0000870C3F3C01048700878B0B90D786D007D
:1032C000146834F815404BF6BF7504EA050080F425
:1032D000805080F0100040F4004444F080040E78E8
:1032E0007600156825F816402BE04878A0B10D78D7
:1032F0006D00146834F8154048F6BF7504EA0500FF
:1033000080F0100040F4004444F080040E78760011
:10331000156825F8164014E00D786D00146834F82F
:1033200015404BF68F7504EA050080F4805040F498
:10333000004444F080040E787600156825F81640A5
:1033400000BF00BF002082F8700300BF00BF93E7FA
:103350002DE9F04705460F4690461E464FF00009FE
:1033600007F07F00C0EBC00105F1280000EB8104ED
:10337000C4F8108066610020A0610120607007F031
:103380007F00207000BF95F87003012802D1022051
:10339000BDE8F087012085F8700300BFE16860692F
:1033A000884204D9E6686069801B606102E0666952
:1033B00000206061A07A90B9B3B2A2882169286820
:1033C00002F024FC2868B0F85010207801EBC0000F
:1033D000801C296801F5806141F8106038E021788F
:1033E0004900286830F8110000F0400010B1B4F82E
:1033F000089001E0B4F80690B3B221694A46286803
:1034000002F004FC607880B921784900286830F81F
:10341000110048F68F71084048F2C0010843227835
:103420005200296821F8120012E0607801280FD1BB
:1034300021784900286830F8110048F68F7108405B
:103440004CF28001084322785200296821F81200CA
:1034500022785200296831F8121048F6BF7201EA4A
:10346000020080F0100080F0200040F4004141F0A4
:10347000800223785B00296821F8132000BF002018
:1034800085F8700300BF00BF82E770B504460025D1
:103490002068B0F8440000F40040B0F5004F02D1BD
:1034A000204602F07DF92068B0F8440000F4806006
:1034B000B0F5806F0ED12068B0F8440020F4806031
:1034C0002168A1F84400204600F050F90021204670
:1034D00000F066F92068B0F8440000F48040B0F5D0
:1034E000804F07D12068B0F8440020F48040216864
:1034F000A1F844002068B0F8440000F40050B0F592
:10350000005F07D12068B0F8440020F40050216823
:10351000A1F844002068B0F8440000F48050B0F5F1
:10352000805F17D12068B0F8400020F004002168C7
:10353000A1F840004FF43D452068A0F840502046D7
:1035400000F020F92068B0F8440020F48050216891
:10355000A1F844002068B0F8440000F40060B0F521
:10356000006F20D12068B0F8440020F4006021688A
:10357000A1F844002068B0F8400040F0080021683D
:10358000A1F840002068B0F8400040F00400216835
:10359000A1F840002068B0F84400C0F3003010B932
:1035A000204600F029F92068B0F8440000F40070CB
:1035B000B0F5007F0AD12068B0F8440020F4007014
:1035C0002168A1F84400204600F0E3F82068B0F834
:1035D000440000F48070B0F5807F07D12068B0F817
:1035E000440020F480702168A1F8440070BD70B5DB
:1035F0000446002500260CB9012070BD94F8710323
:1036000028B9002084F87003204600F07BF80320DE
:1036100084F87103002529E00121C5EBC50204F1FE
:10362000280000EB82004170C5EBC50204F12800C0
:1036300000F822500021C5EBC50200EB8200C170EA
:10364000C5EBC50204F1280000EB8200C160C5EBA8
:10365000C50204F1280000EB82000161C5EBC50240
:1036600004F1280000EB820041616D1C6068A842F3
:10367000D2D8002528E00021C5EBC50204F5E6708C
:1036800000EB82004170C5EBC50204F5E67000F85E
:103690002250C5EBC50200EB8200C170C5EBC5022C
:1036A00004F5E67000EB8200C160C5EBC50204F5CD
:1036B000E67000EB82000161C5EBC50204F5E6701F
:1036C00000EB820041616D1C6068A842D3D80120E4
:1036D0002168A1F8400000202168A1F8400021687D
:1036E000A1F844002168A1F850004FF43D4620683D
:1036F000A0F84060002084F82400012084F87103C1
:1037000000207AE710B586B0044616492068884242
:1037100025D14FF4C0500190022002900020039068
:10372000032004900E20059001A94FF09040FEF771
:103730007FFD00BF0C48C06940F400000A49C86121
:103740000846C06900F40000009000BF00BF0022DE
:1037500011461420FEF7ADFE1420FEF79DFE06B0C4
:1037600010BD0000005C00400010024010B504468F
:103770000121D4F8A40303F0E1F9D4F8A40303F081
:10378000A3F910BD10B50446D4F8A40303F0BEF9A4
:1037900010BD10B50446D4F8A40303F0BEF910BD63
:1037A000024600BF92F87003012801D10220704741
:1037B000012082F8700300BF21B980201368A3F8AC
:1037C0004C0001E082F8241000BF002082F8700352
:1037D00000BF00BFEBE710B5044604F55D71D4F8F7
:1037E000A40303F0B9F910BD10B504460121204629
:1037F000FEF7A9FF002010BD10B50446D4F8A403BD
:1038000003F0F3F9A06928B10348006840F006000E
:103810000149086010BD000010ED00E0F8B5044655
:1038200000250026206800F48030B0F5803F74D178
:1038300000BFA548C06940F08050A349C861084650
:10384000C06900F08050009000BF00BF9F48006832
:1038500040F480709D490860FEF7D0FD054606E003
:10386000FEF7CCFD401B642801D90320F8BD974822
:10387000006800F480700028F2D09348006A00F4D9
:103880004070A18801F4407188426ED08E48006A71
:1038900020F440760120010491FAA1F1B1FA81F1FE
:1038A0008B4A02EB8101C1F800040021000490FA68
:1038B000A0F0B0FA80F002EB8000C0F8001482485B
:1038C000066206F0020048B3FEF798FD054608E0E0
:1038D000FEF794FD401B41F28831884201D9032054
:1038E000C4E74020022191FAA1F1B1FA81F1084325
:1038F0000121B1EB601F02D1734800681FE0402036
:10390000022191FAA1F1B1FA81F108430221B1EB50
:10391000601F04D16C48006A11E026E01DE04020E1
:10392000022191FAA1F1B1FA81F108430421B1EB2E
:10393000601F02D16448406801E06348406A40214A
:10394000022292FAA2F2B2FA82F2114301F01F02AD
:103950000121914008400028BAD05B48006A20F459
:1039600040706168084358490862207800F00100FF
:1039700038B15548006B20F00300A1680843524954
:103980000863207800F00200022807D14E48006B3F
:1039900020F44030E16808434B490863207800F088
:1039A0000400042807D14848006B20F44020216916
:1039B000084345490863207800F02000202807D1FB
:1039C0004148006B20F01000E16908433E4908635C
:1039D000206800F40030B0F5003F07D13A48406855
:1039E00020F48000A16B084337494860207800F03C
:1039F0004000402807D13448006B20F02000216AA5
:103A0000084331490863207800F00800082807D1EE
:103A10002D48006B20F44010616908432A4908636F
:103A2000207800F01000102807D12748006B20F400
:103A30004000A169084324490863208800F400700D
:103A4000B0F5007F07D12048406820F40000E16A0B
:103A500008431D494860207800F08000802807D185
:103A60001948C06A20F4F870616A08431649C862B0
:103A7000208800F48070B0F5807F07D11248C06ABA
:103A800020F47850A16A08430F49C862208800F4E6
:103A90008050B0F5805F07D10B48006B20F4807038
:103AA000216B084308490863208800F40050B0F5F2
:103AB000005F07D10448006B20F40070616B08437D
:103AC000014908630020D1E6001002400070004068
:103AD0000000424270B504460D460026F8480068D2
:103AE00000F00700A84270D2F548006820F00700F7
:103AF0002843F34908600846006800F00700A84220
:103B000001D0012070BD207800F00200022807D10A
:103B1000EC48406820F0F000A1680843E94948609B
:103B2000207800F0010000287DD0606801283BD19A
:103B30002020010391FAA1F1B1FA81F1084301219A
:103B4000B1EB601F02D1DF4800681DE020200103B7
:103B500091FAA1F1B1FA81F108430221B1EB601FA2
:103B600002D1D848006A0FE02020010391FAA1F1A8
:103B7000B1FA81F108430421B1EB601F02D1D148B1
:103B8000406801E0CF48406A20210A0392FAA2F27D
:103B9000B2FA82F2114301F01F0201219140084064
:103BA00000287DD10120ADE7606802283CD12020AB
:103BB000010591FAA1F1B1FA81F108430121B1EBBC
:103BC000601F03D1BF4800681EE0ADE02020010562
:103BD00091FAA1F1B1FA81F108430221B1EB601F22
:103BE00002D1B848006A0FE02020010591FAA1F146
:103BF000B1FA81F108430421B1EB601F02D1B14851
:103C0000406801E0AF48406A20210A0592FAA2F21A
:103C1000B2FA82F2114301F01F02012191400840E3
:103C2000E8BB01206EE7A1E12020022191FAA1F179
:103C3000B1FA81F108430121B1EB601F02D1A14823
:103C400000681DE02020022191FAA1F1B1FA81F172
:103C500008430221B1EB601F02D19A48006A0FE0CD
:103C60002020022191FAA1F1B1FA81F10843042147
:103C7000B1EB601F02D19348406801E09148406A6F
:103C80002021022292FAA2F2B2FA82F2114301F04A
:103C90001F0201219140084008B9012032E7FFE7E7
:103CA0008848406820F003006168084385494860FF
:103CB000FEF7A4FB06466068012810D108E0FEF775
:103CC0009DFB801B41F28831884201D9032019E70E
:103CD0007C48406800F00C000428F0D146E16068A0
:103CE000022810D108E0FEF789FB801B41F28831E1
:103CF000884201D9032005E77248406800F00C00B3
:103D00000828F0D132E108E0FEF778FB801B41F291
:103D10008831884201D90320F4E66A48406800F0FF
:103D20000C000028F0D121E1207800F002000228E8
:103D300007D16448406820F0F000A1680843614959
:103D40004860207800F0010000286BD060680128EE
:103D50003AD12020010391FAA1F1B1FA81F108438F
:103D60000121B1EB601F02D1564800681DE0202000
:103D7000010391FAA1F1B1FA81F108430221B1EBFB
:103D8000601F02D14F48006A0FE02020010391FA22
:103D9000A1F1B1FA81F108430421B1EB601F02D116
:103DA0004848406801E04748406A20210A0392FAE7
:103DB000A2F2B2FA82F2114301F01F0201219140F6
:103DC000084070BB01209DE6606802283CD120209D
:103DD000010591FAA1F1B1FA81F108430121B1EB9A
:103DE000601F02D1374800681FE02020010591FACA
:103DF000A1F1B1FA81F108430221B1EB601F02D1B8
:103E00003048006A11E02020010591FAA1F1B1FAD1
:103E100081F108430421B1EB601F04D129484068B7
:103E200003E04CE093E02748406A20210A0592FA1B
:103E3000A2F2B2FA82F2114301F01F020121914075
:103E40000840E0BB01205DE62020022191FAA1F1AB
:103E5000B1FA81F108430121B1EB601F02D1194889
:103E600000681DE02020022191FAA1F1B1FA81F150
:103E700008430221B1EB601F02D11248006A0FE033
:103E80002020022191FAA1F1B1FA81F10843042125
:103E9000B1EB601F02D10B48406801E00948406A5D
:103EA0002021022292FAA2F2B2FA82F2114301F028
:103EB0001F0201219140084008B9012022E603E0D9
:103EC00000200240001002403848406820F0030003
:103ED0006168084335494860FEF790FA0646606815
:103EE000012810D108E0FEF789FA801B41F28831E1
:103EF000884201D9032005E62C48406800F00C00F8
:103F00000428F0D123E06068022810D108E0FEF711
:103F100075FA801B41F28831884201D90320F1E50E
:103F20002248406800F00C000828F0D10FE008E0BB
:103F3000FEF764FA801B41F28831884201D90320E0
:103F4000E0E51A48406800F00C000028F0D118485D
:103F5000006820F0070028431549086008460068FB
:103F600000F00700A84201D00120CBE5207800F046
:103F70000400042807D10D48406820F4E060E1689F
:103F800008430A494860207800F00800082808D152
:103F90000648406820F46050216940EAC1000349A6
:103FA00048600020FEF74CFA0020ABE5001002400C
:103FB0000020024000B500F045F80949496801F0C9
:103FC000F001F02292FAA2F2B2FA82F2D140054A4E
:103FD000515CC840044908600846006800BD000004
:103FE00000100240FC7B00080C00002000B5FFF729
:103FF000E1FF0749496801F4E0614FF4E06292FA99
:10400000A2F2B2FA82F2D140024A515CC84000BD2D
:1040100000100240FC7B000800B5FFF7CBFF07490A
:10402000496801F460514FF4605292FAA2F2B2FA78
:1040300082F2D140024A515CC84000BD00100240EB
:10404000FC7B000870B50021002400220023002022
:104050001A4D696801F00C0565B3042D02D0082DD6
:1040600027D101E0164827E001F470154FF47016CF
:1040700096FAA6F6B6FA86F6F540124E735D0F4D27
:10408000ED6A05F00F050F2696FAA6F6B6FA86F643
:10409000F5400D4E745D01F480352DB1084DB5FB32
:1040A000F4F505FB03F202E0084D03FB05F21046B0
:1040B00002E000BF024800BF00BF70BD0010024018
:1040C00000127A000C7C00081C7C000800093D00EE
:1040D00038B504460025207800F00100002877D08C
:1040E000FB48406800F00C0004280CD0F8484068F9
:1040F00000F00C00082845D1F548406800F48030F5
:10410000B0F5803F3ED12020010391FAA1F1B1FA30
:1041100081F108430121B1EB601F02D1EC48006836
:104120001DE02020010391FAA1F1B1FA81F10843C9
:104130000221B1EB601F02D1E548006A0FE02020A8
:10414000010391FAA1F1B1FA81F108430421B1EB25
:10415000601F02D1DE48406801E0DD48406A20214E
:104160000A0392FAA2F2B2FA82F2114301F01F029C
:104170000121914008400028B1D06068002827D173
:10418000012038BD00BFD248006820F48030D049FB
:1041900008600846006820F48020086000BFFEF731
:1041A0002DF9054606E0FEF729F9401B642801D9E0
:1041B0000320E6E72020010391FAA1F1B1FA81F191
:1041C00008430121B1EB601F03D1C14800681EE024
:1041D000F7E02020010391FAA1F1B1FA81F108433F
:1041E0000221B1EB601F02D1B948006A0FE0202024
:1041F000010391FAA1F1B1FA81F108430421B1EB75
:10420000601F02D1B248406801E0B148406A2021F5
:104210000A0392FAA2F2B2FA82F2114301F01F02EB
:104220000121914008400028BDD100BF6068B0F571
:10423000803F06D1A648006840F48030A449086059
:1042400028E0606858B9A248006820F48030A0498E
:1042500008600846006820F4802008601AE0606862
:10426000B0F5A02F0BD19A48006840F480209849FF
:1042700008600846006840F4803008600AE094480E
:10428000006820F48030924908600846006820F4F5
:104290008020086000BF8E48C06A20F00F00A1682F
:1042A00008438B49C8626068A0B3FEF7A7F80546CB
:1042B00006E0FEF7A3F8401B642801D9032060E75D
:1042C0002020010391FAA1F1B1FA81F10843012103
:1042D000B1EB601F02D17E4800681EE02020010380
:1042E00091FAA1F1B1FA81F108430221B1EB601F0B
:1042F00002D17748006A10E02020010391FAA1F171
:10430000B1FA81F108430421B1EB601F03D1704879
:10431000406802E010E06E48406A20210A0392FAE9
:10432000A2F2B2FA82F2114301F01F020121914080
:1043300008400028BDD044E0FEF760F8054606E0DE
:10434000FEF75CF8401B642801D9032019E7202000
:10435000010391FAA1F1B1FA81F108430121B1EB16
:10436000601F02D15A4800681DE02020010391FA25
:10437000A1F1B1FA81F108430221B1EB601F02D132
:104380005348006A0FE02020010391FAA1F1B1FA2D
:1043900081F108430421B1EB601F02D14C48406811
:1043A00001E04B48406A20210A0392FAA2F2B2FAD5
:1043B00082F2114301F01F020121914008400028C0
:1043C000BED1207800F0020002285CD1404840684D
:1043D00000F00C0050B13E48406800F00C00082886
:1043E00052D13B48406800F48030E8BB20200221D5
:1043F00091FAA1F1B1FA81F108430121B1EB601FFB
:1044000002D1334800681DE02020022191FAA1F179
:10441000B1FA81F108430221B1EB601F02D12C48AF
:10442000006A0FE02020022191FAA1F1B1FA81F196
:1044300008430421B1EB601F02D12548406801E028
:104440002348406A2021022292FAA2F2B2FA82F2B2
:10445000114301F01F0201219140084028B1206959
:10446000012802D001208CE60EE01948006820F0F7
:10447000F800F82292FAA2F2B2FA82F2616991404F
:10448000084313490860B0E0206900B3012090FAA6
:10449000A0F1B1FA81F10F4A42F82100FDF7AEFF19
:1044A000054606E0FDF7AAFF401B642801D903205A
:1044B00067E62020022191FAA1F1B1FA81F10843C7
:1044C0000121B1EB601F07D10148006822E03EE006
:1044D00000100240000042422020022191FAA1F186
:1044E000B1FA81F108430221B1EB601F02D1FB4810
:1044F000006A0FE02020022191FAA1F1B1FA81F1C6
:1045000008430421B1EB601F02D1F448406801E088
:10451000F248406A2021022292FAA2F2B2FA82F212
:10452000114301F01F020121914008400028B9D039
:10453000EA48006820F0F800F82292FAA2F2B2FAF3
:1045400082F2616991400843E44908604DE000202F
:10455000012191FAA1F1B1FA81F1E14A42F8210079
:10456000FDF74CFF054606E0FDF748FF401B6428B9
:1045700001D9032005E62020022191FAA1F1B1FA28
:1045800081F108430121B1EB601F02D1D3480068DB
:104590001DE02020022191FAA1F1B1FA81F1084336
:1045A0000221B1EB601F02D1CC48006A0FE020204D
:1045B000022191FAA1F1B1FA81F108430421B1EB92
:1045C000601F02D1C548406801E0C448406A20210C
:1045D000022292FAA2F2B2FA82F2114301F01F0211
:1045E0000121914008400028BED1207800F0080049
:1045F000082851D1A06980B3012090FAA0F1B1FA46
:1046000081F1B74A02EB8101C1F88004FDF7F6FEA3
:10461000054606E0FDF7F2FE401B642801D90320A1
:10462000AFE56020022191FAA1F1B1FA81F10843CE
:104630000121B1EB601F02D1A84800681EE0602094
:10464000022191FAA1F1B1FA81F108430221B1EB03
:10465000601F03D1A148006A10E01EE06020022123
:1046600091FAA1F1B1FA81F108430421B1EB601F85
:1046700002D19A48406801E09848406A60210222CD
:1046800092FAA2F2B2FA82F2114301F01F02012162
:10469000914008400028BDD04FE00020012191FA50
:1046A000A1F1B1FA81F18E4A02EB8101C1F88004D7
:1046B000FDF7A4FE054606E0FDF7A0FE401B6428BA
:1046C00001D903205DE56020022191FAA1F1B1FA40
:1046D00081F108430121B1EB601F02D17F480068DE
:1046E0001DE06020022191FAA1F1B1FA81F10843A5
:1046F0000221B1EB601F02D17848006A0FE0602010
:10470000022191FAA1F1B1FA81F108430421B1EB40
:10471000601F02D17148406801E07048406A602122
:10472000022292FAA2F2B2FA82F2114301F01F02BF
:104730000121914008400028BED1207800F00400FB
:1047400004287DD100BF6548C06940F080506349AE
:10475000C8610846C06900F08050009000BF00BFEB
:104760006048006840F480705E490860FDF746FECE
:10477000054606E0FDF742FE401B642801D90320F0
:10478000FFE45848006800F480700028F2D000BFB1
:104790005248006A20F00100504908620846006A49
:1047A00020F00400086200BFFDF728FE054608E07F
:1047B000FDF724FE401B41F28831884201D90320D5
:1047C000DFE44020022191FAA1F1B1FA81F108431E
:1047D0000121B1EB601F02D1404800681DE040207C
:1047E000022191FAA1F1B1FA81F108430221B1EB62
:1047F000601F02D13948006A0FE04020022191FA7F
:10480000A1F1B1FA81F108430421B1EB601F02D19B
:104810003248406801E03148406A4021022292FA61
:10482000A2F2B2FA82F2114301F01F02012191407B
:1048300008400028BCD100BFE068012808D100E092
:10484000C7E02648006A40F001002449086227E0DA
:10485000E06858B92148006A20F001001F49086249
:104860000846006A20F00400086219E0E0680528A4
:104870000BD11A48006A40F0040018490862084643
:10488000006A40F0010008620AE01448006A20F063
:104890000100124908620846006A20F0040008621C
:1048A00000BFE068E0B3FDF7A9FD054608E0FDF7AD
:1048B000A5FD401B41F28831884201D9032060E404
:1048C0004020022191FAA1F1B1FA81F108430121BE
:1048D000B1EB601F08D10148006824E000100240DD
:1048E00000004242007000404020022191FAA1F1F4
:1048F000B1FA81F108430221B1EB601F02D1BA483D
:10490000006A10E04020022191FAA1F1B1FA81F190
:1049100008430421B1EB601F03D1B348406802E0B3
:1049200010E0B148406A4021022292FAA2F2B2FAA3
:1049300082F2114301F01F0201219140084000283A
:10494000B5D046E0FDF75AFD054608E0FDF756FDF7
:10495000401B41F28831884201D9032011E44020F4
:10496000022191FAA1F1B1FA81F108430121B1EBE1
:10497000601F02D19C4800681DE04020022191FA8E
:10498000A1F1B1FA81F108430221B1EB601F02D11C
:104990009548006A0FE04020022191FAA1F1B1FA96
:1049A00081F108430421B1EB601F02D18E484068B9
:1049B00001E08D48406A4021022292FAA2F2B2FA46
:1049C00082F2114301F01F020121914008400028AA
:1049D000BCD1E069002874D08348406800F00C0026
:1049E00008286FD0E06902286DD10021C00590FA37
:1049F000A0F0B0FA80F07D4A42F82010FDF7FEFCEE
:104A0000054606E0FDF7FAFC401B642801D90320A7
:104A100055E42020010591FAA1F1B1FA81F1084392
:104A20000121B1EB601F02D16F4800681DE020201A
:104A3000010591FAA1F1B1FA81F108430221B1EB2C
:104A4000601F02D16848006A0FE02020010591FA3A
:104A5000A1F1B1FA81F108430421B1EB601F02D149
:104A60006148406801E06048406A20210A0592FAE6
:104A7000A2F2B2FA82F2114301F01F020121914029
:104A800008400028BED1D4E90810084356494968B7
:104A900021F474110843544948600121080690FA32
:104AA000A0F0B0FA80F0514A42F82010FDF7A6FCC1
:104AB000054609E0FDF7A2FC401B642804D9032049
:104AC00044E48EE08BE03AE02020010591FAA1F168
:104AD000B1FA81F108430121B1EB601F02D14248D4
:104AE00000681DE02020010591FAA1F1B1FA81F1E1
:104AF00008430221B1EB601F02D13B48006A0FE07E
:104B00002020010591FAA1F1B1FA81F108430421B5
:104B1000B1EB601F02D13448406801E03248406A7E
:104B200020210A0592FAA2F2B2FA82F2114301F0B0
:104B30001F020121914008400028BBD051E0002015
:104B40004FF0807191FAA1F1B1FA81F1274A42F850
:104B50002100FDF753FC054606E0FDF74FFC401B26
:104B6000642801D903207EE42020010591FAA1F1F7
:104B7000B1FA81F108430121B1EB601F02D11A485B
:104B800000681DE02020010591FAA1F1B1FA81F140
:104B900008430221B1EB601F02D11348006A0FE005
:104BA0002020010591FAA1F1B1FA81F10843042115
:104BB000B1EB601F02D10C48406801E00A48406A2E
:104BC00020210A0592FAA2F2B2FA82F2114301F010
:104BD0001F020121914008400028BED101E00120C0
:104BE00041E400203FE40000001002400000424287
:104BF000042808D14FF0E021096941F004014FF089
:104C0000E022116107E04FF0E021096921F0040181
:104C10004FF0E02211617047704770B50446254699
:104C2000681EB0F1807F01D301200FE0681E4FF0B5
:104C3000E02148610F214FF0FF3000F0DDFC002043
:104C40004FF0E021886107200861002070BD10B599
:104C5000FFF7E2FF10BD000030B502460B4600BF73
:104C600092F83800012801D1022030BD012082F8DD
:104C7000380000BF10684168106884680F4D1068E4
:104C8000A84203D00E4D1068A84203D121F4700150
:104C90005868014321F070011868014324F0800432
:104CA00098680443106841601068846000BF002069
:104CB00082F8380000BF00BFD7E70000002C014099
:104CC0000034014010B504460CB9012010BD94F821
:104CD000390028B9002084F83800204600F00CF88C
:104CE000022084F83900211D206801F031F80120EC
:104CF00084F839000020E9E738B504461F492068E8
:104D000088420DD100BF1E48806940F400601C49F4
:104D100088610846806900F40060009000BF2BE0C5
:104D20002068B0F1804F0DD100BF1548C06940F038
:104D300001001349C8610846C06900F001000090F5
:104D400000BF19E00F492068884215D100BF0C4808
:104D5000C06940F002000A49C8610846C06900F015
:104D60000200009000BF00BF002211461D20FDF789
:104D7000A0FB1D20FDF790FB38BD0000002C01407A
:104D800000100240000400400146022081F8390072
:104D90000868006840F001000A681060012081F88E
:104DA0003900002070470146022081F8390000BF19
:104DB0000868006A41F21112104050B90868006A90
:104DC0009210104028B90868006820F001000A68B5
:104DD000106000BF012081F83900002070470000FA
:104DE0002DE9F04104460D46002600BF94F8380036
:104DF000012802D10220BDE8F081012084F83800AA
:104E000000BF022084F839002068866841480640C7
:104E100026F47F4620688660286850283CD00CDC49
:104E2000202861D004DC002854D0102866D156E038
:104E300030285ED0402861D142E0602836D070280A
:104E40000ED0B0F5805F03D0B0F5005F56D116E00C
:104E5000206880682F4970310840216888604EE0E2
:104E6000D5E902136A68206800F0CAFF20688668E6
:104E70002848064046F07706206886603FE0D5E97E
:104E800002136A68206800F0BBFF2068806840F465
:104E900080402168886032E0EA686968206801F033
:104EA00019F85021206800F0B7FF28E0EA68696827
:104EB000206801F024F86021206800F0ADFF1EE0BA
:104EC000EA686968206801F005F84021206800F070
:104ED000A3FF14E00021206800F09EFF0FE01021E6
:104EE000206800F099FF0AE02021206800F094FF7C
:104EF00005E03021206800F08FFF00E000BF00BF18
:104F0000012084F8390000BF002084F8380000BF79
:104F100000BF70E788FFFEFF70B504460D4600BF76
:104F200094F83800012801D1022070BD012084F8D6
:104F3000380000BF022084F839002946204600F0DE
:104F400075FF2068C06820F040002168C8602068B4
:104F5000C06820F480402168C860012084F83900CE
:104F600000BF002084F8380000BF00BFDDE710B5A7
:104F700004460CB9012010BDA06900B100E000BFDB
:104F800094F8690028B9002084F86800204600F0F1
:104F90002BF8022084F869002068006820F00100E6
:104FA00021680860204601F063F8012800D1E2E79B
:104FB000606A10B1204600F0B8FF2068406820F415
:104FC0009040216848602068806820F02A002168AD
:104FD00088602068006840F0010021680860204671
:104FE00001F018F8C7E7000010B586B0044618496C
:104FF000206888422AD100BF1648C06940F40030BA
:105000001449C8610846C06900F40030009000BF30
:1050100000BF08200190022002900120039003208D
:1050200004900720059001A94FF09040FDF700F98A
:105030002020019002200290012003900320049080
:105040000720059001A90448FDF7F2F806B010BD4D
:105050000044004000100240000C004800B58DB034
:105060004FF0A0401E4908600020486000211C4805
:1050700081600161C16141624FF4806101634FF45D
:105080001071C1620021C1600121016241630421EC
:105090004161002181618163FBF7F8FF01200790E6
:1050A0004FF4400008904FF4A0600B9000200C904B
:1050B0000320099001200A9007A90948FBF710FA7C
:1050C000032001900120029000200490039005909D
:1050D000069001A90248FBF73DFB0DB000BD0000A2
:1050E000BC00002000B587B01548164908600020B4
:1050F00048600021134881600161C16141624FF441
:10510000806101634FF41071C1620021C16001210F
:105110000162416304214161002181618163FBF7E8
:10512000B5FF0120019002900020049003900590AB
:10513000069001A90348FBF70DFB07B000BD000076
:10514000000400501001002000B587B01548164932
:105150000860002048600021134881600161C1613E
:1051600041624FF4806101634FF41071C16200210C
:10517000C16001210162416304214161002181611B
:105180008163FBF783FF0320019001200290002040
:10519000049003900590069001A90348FBF7DAFA02
:1051A00007B000BD00050050640100200EB50B489B
:1051B0000B4908600846FCF7C3FA24200090002041
:1051C0000190002269460648FCF78DFA4FF4106200
:1051D00000210348FCF766FA0EBD00000074004091
:1051E0006002002008B500BF1D48406940F0020081
:1051F0001B4948610846406900F00200009000BF6A
:1052000000BF00BF0846406940F001004861084601
:10521000406900F00100009000BF00BF002211466D
:105220000B20FDF746F90B20FDF736F90022114659
:105230003A20FDF73EF93A20FDF72EF900221146FB
:105240003B20FDF736F93B20FDF726F900221146F9
:105250003C20FDF72EF93C20FDF71EF908BD0000AB
:105260000010024000B587B000BF5748406940F4C5
:105270000010554948610846406900F4001001904B
:1052800000BF00BF00BF0846406940F400204861ED
:105290000846406900F40020019000BF00BF00BF35
:1052A0000846406940F4800048610846406900F4BF
:1052B0008000019000BF00BF00BF0846406940F475
:1052C000003048610846406900F40030019000BF9A
:1052D00000BF00BF0846406940F48020486108468E
:1052E000406900F48020019000BF00BF00BF084665
:1052F000406940F4801048610846406900F480101D
:10530000019000BF00BF372002903048039000207A
:10531000049002A92E48FCF78BFF4FF6087002900C
:105320000120039000200490059002A92848FCF772
:105330007FFF37200290112003900020049003206B
:10534000059002A92348FCF773FF0120029000207A
:105350000390049002A94FF09040FCF769FFE02011
:1053600002900220039000200490059005200690F2
:1053700002A94FF09040FCF75BFF4EF20400029050
:1053800011200390002004900320059002A91248E8
:10539000FCF74EFF80200290032003900020049031
:1053A00002A90B48FCF744FFC02002901220039092
:1053B00001200490002005900420069002A90648D0
:1053C000FCF736FF07B000BD0010024000001210CD
:1053D00000100048000800480004004810B50848C4
:1053E00008490860402048600C210648C16000213F
:1053F0000161C16101624162FDF7AEF810BD0000BC
:1054000038000140AC02002010B508480849086087
:10541000402048600C210648C16000210161C16143
:1054200001624162FDF798F810BD000040000140A4
:10543000E002002010B50848084908604020486094
:1054400008210648C16000210161C1610162416219
:10545000FDF782F810BD0000440001401403002055
:1054600000B587B01048114908600020486000214D
:105470000E48816040F6B831C16000210161416190
:10548000FFF720FC4FF48050039003A90748FFF773
:10549000A7FC20200090002001900290694603485C
:1054A000FFF7DAFB07B000BD002C014048030020E5
:1054B00000B587B04FF080400F4908600020486079
:1054C00000210D4881604FF4FA61C1600021016143
:1054D000FFF7F8FB4FF48050039003A90648FFF74D
:1054E0007FFC202000900020029069460248FFF7D0
:1054F000B3FB07B000BD00008403002000B589B0F5
:105500000F48104908600020486000210D48816064
:1055100040F62F01C16000210161FFF7D3FB072096
:1055200004900020059004A90648FFF7F5FC002030
:105530000190039001A90348FFF78EFB09B000BD5D
:1055400000040040C003002010B50C480C4908605E
:105550004FF416404860002109488160C160016134
:105560000C21416100218161C16101620020044977
:1055700048620846FFF7FBFC10BD000000440040F5
:10558000FC03002010B500220749084801F044F947
:105590000749064801F046FC0649044801F0D1FBE2
:1055A000024801F025FD10BD1400002020680020F5
:1055B0005C0000204C00002010B509480949086033
:1055C000082048600221074881600021C160022153
:1055D0000161002181610162FEF709F810BD000040
:1055E000005C00406C04002002480068C0F3022008
:1055F000704700000CED00E010B5002807DA0A073C
:10560000140E054A00F00F031B1FD45403E00A07D1
:10561000130E024A135410BD18ED00E000E400E040
:10562000034600BF00BF00BF002070470020704746
:1056300010B5084808490860002208490648006873
:1056400001F08CFB06490448006801F081FB002052
:1056500010BD00002068002048000020DC6C002005
:105660009C6C00202DE9F04104460E463068062867
:1056700040D1052235A12046FAF7C4FD002839D1D2
:105680006079422802D043281ED10EE031480088BC
:1056900000F4804038B12F48008820F480402D4924
:1056A00008800D4600E02C4D1DE02C48008800F4D9
:1056B000804038B12948008820F48040274908807C
:1056C0000D4600E0264D0EE02648008800F480409C
:1056D00038B12448008820F48040224908800D46D3
:1056E00000E0214D00BF00BF41F20201284600F05A
:1056F00043F827E030680D2818D12078732815D199
:1057000060782E2812D1072218A1E01CFAF77AFD42
:1057100060B9A578A77A94F80C803946284602F03B
:1057200015FA4146284602F015F90BE030680328C7
:1057300008D102220FA12046FAF764FD10B9A07823
:1057400002F03AFA0020BDE8F08100004652414DD7
:10575000450000001C480020161800201E5800209C
:10576000182800201A380020140800202E72616EBC
:1057700067653D00743D000070B504460D46002687
:105780002A4621460548006801F0E8FA0348006807
:1057900001F021FB0646304670BD000048000020A5
:1057A0002DE9FC41054600270020009011E2BDF8DC
:1057B000040000F00F06002E7DD1BDF8040000F0BB
:1057C000100088BB2868008848F60F7108402968D7
:1057D000088005F128042868B0F85010207801EB03
:1057E000C000801C296801F5806131F81000C0F309
:1057F0000900A061A16920690844206100212846B0
:10580000FCF7A2FF95F824000028CFDD606900288E
:10581000CCD195F8240040F080002968A1F84C0014
:10582000002085F82400D4E1FFE705F5E674286838
:1058300000880090BDF8000000F4006018B32868EC
:10584000B0F85010207801EBC000801D296801F5E8
:10585000806131F81000C0F30900A061218B8BB288
:10586000A28805F55D71286800F0BEF928680088F7
:10587000C0F30E0048F68F7108402968088028465A
:10588000FDF7A9FFA5E1BDF8000000F400400028E5
:105890008CD028680088C0F30E0048F68F7108404D
:1058A000296808802868B0F85010207801EBC00003
:1058B000801D296800E054E001F5806131F8100096
:1058C000C0F30900A061A06960B1B4F818C01FFA64
:1058D0008CF3A2882169286800F086F9A169206903
:1058E0000844206100212846FCF75CFF2A6802F585
:1058F00080622868B0F85000801D02EB4001E26829
:105900003E2A0FD9E268C2F34F10227B02F01F0239
:105910000AB9421E90B24FF4004242EA802292B28B
:105920000A600DE0E268C2F34F00227B02F0010240
:105930000AB1421C90B24FF6FF7202EA80220A605E
:10594000296809884BF68F7201EA020080F48050C2
:1059500080F4005040F4004141F080012A68118039
:1059600037E17100286830F811000090BDF80000A0
:1059700000F4004000287DD07100286830F8110044
:10598000C0F30E0048F68F7108407200296821F8B4
:105990001200C6EBC60105F5E67000EB8104A07AA3
:1059A000A8B92868B0F85010207801EBC000801D1D
:1059B000296801F5806131F81000C0F30907EFB3E1
:1059C000A28821693B46286800F00EF944E021785E
:1059D0004900286830F8110000F48040A8B1286818
:1059E000B0F85010207801EBC000801C296801F548
:1059F000806131F81000C0F30907DFB1E288216946
:105A00003B46286800F0F0F814E02868B0F8501021
:105A1000207801EBC000801D296801F5806131F814
:105A20001000C0F309072FB1228921693B4628687D
:105A300000F0DAF821784900286800E00CE030F83E
:105A4000110048F68F71084048F2C00108432278DF
:105A50005200296821F81200A0693844A061206929
:105A600038442061606910B1E068B84206D92178F5
:105A7000284600E008E0FCF795FE05E0217828467E
:105A8000D4E90423FDF741FBBDF8000000F08000DD
:105A900000287DD0C6EBC60105F1280000EB81048B
:105AA0007100286830F8110048F60F710840720044
:105AB000296821F81200A07AD0B92868B0F85010EF
:105AC000207801EBC000801C296801F5806131F865
:105AD0001000C0F30900A061A069E8B3B4F818C0D1
