:020000040800F2
:10000000480F00209D010008A5010008A701000875
:10001000A9010008AB010008AD01000800000000C4
:10002000000000000000000000000000AF01000818
:10003000B101000800000000B301000805490008F4
:10004000B7010008B7010008B7010008B7010008B0
:10005000B7010008B7010008B7010008B7010008A0
:10006000B7010008B7010008B70100081D03000828
:10007000B7010008B7010008B7010008B701000880
:10008000B7010008B7010008B7010008B701000870
:1000900099610008B7010008B7010008B70100081E
:1000A000B7010008B7010008B7010008B701000850
:1000B000B7010008B7010008B7010008B701000840
:1000C000B7010008B7010008B7010008B701000830
:1000D000B7010008B7010008B7010008B701000820
:1000E000B7010008B7010008B7010008B701000810
:1000F000B7010008B7010008B7010008B701000800
:10010000000000000000000000000000B70100082F
:10011000B7010008B7010008B7010008B7010008DF
:10012000B7010008B70100082D0300083D030008CF
:100130004D030008B70100080000000000000000A7
:10014000B7010008B7010008B7010008000000006F
:10015000000000000000000000000000000000009F
:100160000000000000000000B7010008B70100080F
:10017000B7010008000000000000000000000000BF
:1001800000000000B7010008DFF80CD000F05AF8BA
:1001900000480047ED660008480F002006488047E9
:1001A00006480047FEE7FEE7FEE7FEE7FEE7FEE75C
:1001B000FEE7FEE7FEE7FEE7954900088901000833
:1001C000202A04DB203A21FA02F00021704721FAAC
:1001D00002F3D040C2F12002914008431946704713
:1001E0002DE9F05F0546002092469B46884606466C
:1001F000814640241BE02846414647462246FFF7F9
:10020000DFFF53465A46C01A914110D31146184693
:10021000224600F029F82D1A67EB01084F462246C6
:100220000120002100F020F817EB00094E41201EAC
:10023000A4F10104DFDC484631462A464346BDE8C6
:10024000F09F0000064C074D06E0E06840F0010317
:1002500094E8070098471034AC42F6D3FFF798FFB4
:1002600098670008B8670008202A04DB203A00FAE3
:1002700002F1002070479140C2F1200320FA03F3FD
:1002800019439040704770B5044600252068806887
:1002900000F00300012806D12068006800F001008A
:1002A00008B1012000E0002070B32068806800F0F1
:1002B0000D00012800D100E0002050B100BF2068EF
:1002C000806840F00200216888600320216808608F
:1002D00008E0042084F84500A06C40F00100A06410
:1002E000012070BD01F072FA05460EE001F06EFAD1
:1002F000401B022809D9042084F84500A06C40F076
:100300000100A0640120ECE705E02068806800F0AF
:1003100001000028EAD10020E3E7000010B5024800
:1003200000F0C6FC10BD0000B401002010B502486A
:1003300000F0BEFC10BD00007002002010B50248A5
:1003400000F0B6FC10BD00002402002010B50248E9
:1003500000F0AEFC10BD0000EC010020F0B593B041
:10036000024600260025C868012800D000E000BF32
:1003700000BF92F84400012802D1022013B0F0BD62
:10038000012082F8440000BF10688068C0F380003C
:10039000002878D14868052818D21068006B0F79BA
:1003A00007EB47074FEA470C1F2707FA0CF7B8433C
:1003B000176838630F7907EB47077F000868B84074
:1003C00017683F6B38431768386355E048680A2858
:1003D0001AD21068406B0F797F1F07EB47074FEA6F
:1003E000470C1F2707FA0CF7B843176878630F7993
:1003F0007F1F07EB47077F000868B84017687F6BCF
:1004000038431768786337E048680F281AD21068B5
:10041000806B0F790A3F07EB47074FEA470C1F270E
:1004200007FA0CF7B8431768B8630F790A3F07EB70
:1004300047077F000868B8401768BF6B38431768E4
:10044000B86319E01068C06B0F790F3F07EB4707DF
:100450004FEA470C1F2707FA0CF7B8431768F863F1
:100460000F790F3F07EB47077F000868B840176810
:10047000FF6B38431768F8631068806800F00C0061
:1004800010B1012001E0B3E10020002877D1086815
:100490000A2817D9106880690F780A3F07EB470CC4
:1004A000072707FA0CF7B8431768B8610F780A3FB7
:1004B00007EB47078868B8401768BF693843176873
:1004C000B86114E0106840690F7807EB470C072704
:1004D00007FA0CF7B843176878610F7807EB4707FE
:1004E0008868B84017687F69384317687861486939
:1004F0001768FF68C7F3C1077F0000FA07F40869AF
:10050000012806D0022816D0032826D0042849D175
:1005100036E01068006EBC4F3840176838661068C7
:10052000006E0F784FF0004C4CEA87672743384342
:10053000176838666FE01068406EB34F3840176830
:1005400078661068476E08784FF0004C4CEA80607F
:1005500020430743106847665DE01068806EAA4F2D
:1005600038401768B8661068806E0F784FF0004CFE
:100570004CEA8767274338431768B8664BE04BE07F
:100580001068C06EA04F38401768F8661068C06EDB
:100590000F784FF0004C4CEA8767274338431768C1
:1005A000F86638E01068006E00F0F8400F78B0EBA5
:1005B000876F05D11068006E20F00040176838661C
:1005C0001068406E00F0F8400F78B0EB876F05D1EF
:1005D0001068406E20F00040176878661068806EE2
:1005E00000F0F8400F78B0EB876F05D11068806E8F
:1005F00020F000401768B8661068C06E00F0F84040
:100600000F78B0EB876F05D11068C06E20F0004006
:100610001768F86600BF00BF1068806800F003002C
:10062000012806D11068006800F0010008B101201F
:1006300000E00020002877D1C86801280CD010689D
:10064000D0F8B00091F800C0012707FA0CF7B843C2
:100650001768C7F8B0003EE01068D0F8B00091F815
:1006600000C0012707FA0CF738431768C7F8B00035
:1006700008680A2818D9106887690878093800EBD3
:10068000400C072000FA0CF0874310688761087857
:10069000093800EB40008F6807FA00F01768BF695F
:1006A00038431768B86116E0106840690F787F1CFE
:1006B00007EB470C072707FA0CF7B8431768786170
:1006C0000F787F1C07EB47078868B84017687F6979
:1006D0003843176878611068B0F1A04F03D04B4FD2
:1006E0001068B84201D14A4800E04A480346086809
:1006F000102803D1986800F4000070B10868112830
:1007000003D1986800F0807038B10868122873D15E
:10071000986800F4800000286ED11068B0F1A04FF6
:1007200003D13A48009018E05BE0384F1068B842B7
:1007300003D14FF0A04000900FE0374F1068B8424F
:1007400002D13648009008E0344F1068B84202D118
:100750003148009001E0002000901068806800F0AF
:100760000300012806D11068006800F0010008B1FC
:10077000012000E00020A8BB009870B100988068BC
:1007800000F00300012806D10098006800F0010085
:1007900008B1012000E0002020BB086810280DD11E
:1007A0001068B0F1A04F09D1986840F4000098603B
:1007B00000E06D1CB5F5347FFBD31DE008681128FF
:1007C00008D11068B0F1A04F04D1986840F0807053
:1007D000986011E0086812280ED1986840F48000F3
:1007E000986009E0FFE7042082F84500012603E055
:1007F000042082F84500012600BF002082F8440052
:1008000000BF3046BAE5000000F0FF830001005051
:100810000003005000070050000400500005005085
:100820002DE9F04194B0044600270025A8461CB9E4
:10083000012014B0BDE8F08194F8450010BB2046BB
:1008400000F01CF92068806800F08050D0B9204684
:10085000FFF719FD0746012F14D0022084F8450048
:100860002068806820F04050216888602068806897
:1008700040F080502168886001E008F10108B8F577
:10088000347FFAD32068806800F04050B0F1805F78
:1008900007D0042084F84500A06C40F00100A0645B
:1008A000012794F8450004287ED020688068C0F3B2
:1008B0008000002878D1022084F845002068B0F13B
:1008C000A04F03D067492068884201D1664800E004
:1008D000664806462068B0F1A04F02D161480190F9
:1008E00017E060492068884203D14FF0A040019092
:1008F0000FE05F492068884202D15E48019008E01D
:100900005C492068884202D15948019001E00020EA
:1009100001902068806800F00300012806D120685B
:10092000006800F0010008B1012000E00020C0B91B
:10093000019870B10198806800F00300012806D189
:100940000198006800F0010008B1012000E00020DB
:1009500038B9B06820F44030B060B06861680843CE
:10096000B0602068C068444908402168C860A06B36
:10097000012802D04FF4805100E00021E06941EAF3
:100980004030E1680843A16808430543606A0128D4
:1009900008D1E06930B9208D401E4FF4803141EA22
:1009A00040400543E06A00E055E0012822D030498C
:1009B0002068884203D02F492068884216D1E06A17
:1009C000B0F5307F02D14FF4E07010E0E06AB0F58E
:1009D000807F02D14FF4307009E0E06AB0F5E07F2B
:1009E00002D14FF4807002E0E06A00E0E06A216B1F
:1009F000084305432068806800F00C0008B101201E
:100A000000E0002060B92068C06844F20201884319
:100A10002168C860A0698103606B41EA400005431A
:100A20002068C06828432168C8602068006B20F0F7
:100A30000F00216808632069012806D12068006B37
:100A4000216A491E0843216808630020A064012030
:100A500084F8450003E0042084F845000127384667
:100A6000E7E60000000100500003005000070050BE
:100A7000000400500005005007C0F0FF10B5044608
:100A80002068B0F1A04F1ED14148406940F080502D
:100A90003F4948613F4840490860002048600021C4
:100AA0003D4881608021C160490001618900416148
:100AB000202181610021C16100F07EFD00BF364828
:100AC0002064446262E035492068884228D1344875
:100AD0000068401C3249086008460068012805D1BA
:100AE0002B48406940F00050294948612D482E4963
:100AF00008600020486040212B4881600021C160CF
:100B00004FF48071016189004161202181610021E0
:100B1000C16100F051FD00BF23482064446235E00C
:100B200022492068884231D11D480068401C1C4978
:100B3000086008460068012805D11548406940F062
:100B400000501349486117481438194908600020BB
:100B500048604021164881600021C1604FF48071D7
:100B6000016189004161202181610021C16100F0A2
:100B700023FD00BF0F48006840F480700D490860F5
:100B800000BF00BF0A482064446200BF10BD0000DF
:100B90000010024008000240B40100200004005090
:100BA0000000002058040240EC0100200005005025
:100BB000240200200000014070B5034600240025F7
:100BC00000BF5879012801D1022070BD0120587161
:100BD00000BF022018711868046840F6FE7090404B
:100BE0008443D1E9000640EA060505FA02F0044311
:100BF0001868046018680668C0209040864318682A
:100C000006600120187100BF0020587100BF00BFAE
:100C1000DBE710B504460CB9012010BD207910B9EE
:100C2000204600F009F802202071002020610120F8
:100C300020710020F1E7000010B586B00446184985
:100C40002068884229D11748C06940F000501549F2
:100C5000C86110200190032002900020039001A998
:100C60004FF0904000F0CCFC0F4810490860102075
:100C7000486040210D4881608021C16049000161C8
:100C800089004161202181610021C16100F094FC53
:100C900000BF0648A060446200BF06B010BD00005F
:100CA0000074004000100240300402407002002036
:100CB00010B50446F8492068884255D9F7480068BD
:100CC000F54A783A2168914201D108214AE0F24A76
:100CD000643A2168914201D1802143E0EE4A503AC2
:100CE0002168914201D1C9143CE0EB4A3C3A2168A9
:100CF000914202D14FF4004134E0E74A283A21689A
:100D0000914202D14FF400212CE0E34A143A2168C9
:100D1000914202D14FF4000124E0DF4A2168914260
:100D200001D109051EE0DD4A08322168914201D156
:100D3000082117E0D94A1C322168914201D1802153
:100D400010E0D64A30322168914201D1C91409E03D
:100D5000D24A44322168914202D14FF4004101E06D
:100D60004FF40021084055E0CB4880380068CA4A5B
:100D7000783A2168914201D108214AE0C64A643A92
:100D80002168914201D1802143E0C34A503A216851
:100D9000914201D1C9143CE0BF4A3C3A21689142DA
:100DA00002D14FF4004134E0BB4A283A2168914215
:100DB00002D14FF400212CE0B74A143A2168914245
:100DC00002D14FF4000124E0B34A2168914201D1DD
:100DD00009051EE0B14A08322168914201D108217B
:100DE00017E0AE4A1C322168914201D1802110E007
:100DF000AA4A30322168914201D1C91409E0A74AB8
:100E000044322168914202D14FF4004101E04FF495
:100E100000210840002873D020680068C0F3C0009B
:100E20000028F8D02068006820F0080021680860D9
:100E300099492068884255D997497839206888426D
:100E400001D108204AE0944964392068884201D1E0
:100E5000802043E0904950392068884201D1C01475
:100E60003CE08D493C392068884202D14FF4004073
:100E700034E0894928392068884202D14FF40020A3
:100E80002CE0854914392068884202D14FF40000D3
:100E900024E081492068884201D100051EE07F4995
:100EA00008312068884201D1082017E07B491C31B5
:100EB0002068884201D1802010E0784930312068D4
:100EC000884201D1C01409E0744944312068884245
:100ED00002D14FF4004001E04FF400206F49091D9A
:100EE000086055E06C4978392068884201D10820B3
:100EF0004BE0694964392068884202D1802044E08F
:100F000057E0654950392068884201D1C0143CE05F
:100F100061493C392068884202D14FF4004034E0F6
:100F20005D4928392068884202D14FF400202CE026
:100F3000594914392068884202D14FF4000024E056
:100F400055492068884201D100051EE05349083107
:100F50002068884201D1082017E050491C312068E0
:100F6000884201D1802010E04C493031206888420D
:100F700001D1C01409E0494944312068884202D1B6
:100F80004FF4004001E04FF40020434980394860AD
:100F9000606B40F001006063042084F8210000BF12
:100FA000002084F8200000BF206B10B12046216B88
:100FB000884739492068884255D938480068364AF8
:100FC000783A2168914201D104214AE0324A643AD8
:100FD0002168914201D1402143E02F4A503A2168D3
:100FE000914201D109153CE02B4A3C3A21689142DB
:100FF00002D14FF4804134E0274A283A21689142D7
:1010000002D14FF480212CE0234A143A2168914206
:1010100002D14FF4800124E01F4A2168914201D19E
:10102000C9041EE01D4A08322168914201D1042101
:1010300017E01A4A1C322168914201D1402110E088
:10104000164A30322168914201D1091509E0134A4C
:1010500044322168914202D14FF4804101E04FF4C3
:101060008021084059E00C48803800680A4A783AE4
:101070002168914201D104214EE0074A643A216877
:10108000914201D1402147E0034A503A2168914200
:1010900006D1091540E00000800002400004024033
:1010A000F74A2168914202D14FF4804134E0F44A7A
:1010B00014322168914202D14FF480212CE0F04A91
:1010C00028322168914202D14FF4800124E0EC4A99
:1010D0003C322168914201D1C9041DE0E94A2168EE
:1010E000914201D1042117E0E64A1432216891426D
:1010F00001D1402110E0E34A28322168914201D118
:10110000091509E0DF4A3C322168914202D14FF4CF
:10111000804101E04FF48021084080B320680068DE
:10112000C0F3800058B32068006800F0200028B9A0
:101130002068006820F0040021680860D0493C3134
:101140002068884255D9CE493C392068884201D16F
:1011500004204AE0CA4928392068884201D1402049
:1011600043E0C74914392068884201D100153CE0AA
:10117000C3492068884203D14FF4804035E094E0B1
:10118000BF4914312068884202D14FF480202CE0FE
:10119000BB4928312068884202D14FF4800024E006
:1011A000B7493C312068884201D1C0041DE0B549EF
:1011B0002068884201D1042017E0B2491431206828
:1011C000884201D1402010E0AE4928312068884291
:1011D00001D1001509E0AB493C312068884202D1B9
:1011E0004FF4804001E04FF48020A649091F0860B9
:1011F00053E0A3493C392068884201D1042049E0EA
:101200009F4928392068884201D1402042E09C490A
:1012100014392068884201D100153BE098492068C4
:10122000884202D14FF4804034E09549143120685F
:10123000884202D14FF480202CE091492831206867
:10124000884202D14FF4800024E08D493C3120686F
:10125000884201D1C0041DE08A492068884201D13A
:10126000042017E0874914312068884201D14020CA
:1012700010E0844928312068884201D1001509E036
:1012800080493C312068884202D14FF4804001E01F
:101290004FF480207A4944394860112084F82100B5
:1012A000E06A10B12046E16A884775493C31206800
:1012B000884255D9734808380068714A3C3A216819
:1012C000914201D1022149E06D4A283A21689142B8
:1012D00001D1202142E06A4A143A2168914201D1A9
:1012E00049153BE0664A2168914202D14FF4005112
:1012F00034E0634A14322168914202D14FF4003144
:101300002CE05F4A28322168914202D14FF400114B
:1013100024E05B4A3C322168914201D189041DE0FE
:10132000584A2168914201D1022117E0554A1432EE
:101330002168914201D1202110E0524A28322168CF
:10134000914201D1491509E04E4A3C32216891424F
:1013500002D14FF4005101E04FF40031084054E055
:10136000474844380068464A3C3A2168914201D1D6
:10137000022149E0424A283A2168914201D12021C4
:1013800042E03F4A143A2168914201D149153BE0BD
:101390003B4A2168914202D14FF4005134E0384A6F
:1013A00014322168914202D14FF400312CE0344ACA
:1013B00028322168914202D14FF4001124E0304AD2
:1013C0003C322168914201D189041DE02D4A2168F7
:1013D000914201D1022117E02A4A14322168914238
:1013E00001D1202110E0274A28322168914201D101
:1013F000491509E0234A3C322168914202D14FF459
:10140000005101E04FF40031084080B320680068CB
:10141000C0F3400058B32068006800F0200028B9ED
:101420002068006820F002002168086014493C31FF
:101430002068884258D912493C392068884201D135
:1014400002204DE00E4928392068884201D1202031
:1014500046E00B4914392068884201D140153FE02D
:1014600007492068884203D14FF4005038E09EE0DD
:10147000034914312068884206D14FF400302FE030
:10148000440002400804024049492068884202D1D1
:101490004FF4001024E0464914312068884201D1FD
:1014A00080041DE043492068884201D1022017E0F2
:1014B000404914312068884201D1202010E03D4984
:1014C00028312068884201D1401509E039493C3172
:1014D0002068884202D14FF4005001E04FF4003000
:1014E0003449091F086053E0314964392068884253
:1014F00001D1022049E02E4950392068884201D1AB
:10150000202042E02A493C392068884201D1401518
:101510003BE0274928392068884202D14FF4005027
:1015200033E0234914392068884202D14FF4003057
:101530002BE01F492068884202D14FF4001024E0BC
:101540001B4914312068884201D180041DE01949EB
:101550002068884201D1022017E016491431206822
:10156000884201D1202010E01249283120688842A9
:1015700001D1401509E00F493C312068884202D171
:101580004FF4005001E04FF4003009496C394860D5
:10159000606B6063012084F8210000BF002084F8A4
:1015A000200000BFA06A10B12046A16A884710BD84
:1015B0006C000240080402400146002209B90120E3
:1015C0007047022081F821000868026843F6F07035
:1015D0008243D1E901031843CB6818430B691843D0
:1015E0004B6918438B691843CB6918430243086859
:1015F000026000204863012081F821000020DFE71D
:10160000F0B503460A460025002400200021C9E069
:10161000012606FA01F5166806EA0504AC426FD108
:101620005668022E02D05668122E13D1CF0803F14D
:10163000200656F827004E07F70E0F26BE40B0438F
:101640004F07FF0E1669BE403043CF0803F1200656
:1016500046F8270018684F000326BE40B0431679AD
:1016600006F003064F00BE40304318605668012E56
:1016700008D05668022E05D05668112E02D0566842
:10168000122E13D198684F000326BE40B0434F007E
:10169000D668BE4030439860586801268E40B043FB
:1016A0001679C6F300168E4030435860D8684F0054
:1016B0000326BE40B0434F009668BE403043D8601A
:1016C000566806F08056B6F1805F6AD1374EB6692B
:1016D00046F00106354FBE614FEAB7368F0856F81F
:1016E00027008E07370F0F26BE40B043B3F1904F4F
:1016F00001D100261AE02E4EB34202D1012615E098
:101700004FE02C4EB34201D102260FE02A4EB342E5
:1017100001D103260AE0294EB34201D1042605E097
:10172000274EB34201D1052600E006268F073F0F62
:10173000BE403043234E8F0846F82700224E3068C3
:10174000A043566806F48036B6F5803F00D12043AA
:101750001D4E3060361D3068A043566806F40036D2
:10176000B6F5003F00D12043174E361D3060361DC0
:101770003068A043566806F48016B6F5801F00D185
:101780002043114E08363060361D3068A04356683D
:1017900006F40016B6F5001F00D120430A4E0C36A1
:1017A0003060491C1029FFF433AFF0BD0010024037
:1017B0000004004800080048000C004800100048E1
:1017C000001400480800014000040140014800687E
:1017D000704700002000002002480068401C0149BA
:1017E000086070472000002010B50848006840F0ED
:1017F000100006490860032000F07AF8002000F08D
:1018000007F800F017F8002010BD0000002002408B
:1018100070B5044601F020FD4FF47A71B0FBF1F58C
:10182000284602F0DEF900222146501E00F021F881
:10183000002070BD10B50748806940F001000549DF
:101840008861072000F054F800221146501E00F075
:1018500010F810BD0010024000BF00F01F0201216F
:1018600091404209920002F1E022C2F8001100BF4B
:1018700070472DE9F05F80460D461646002702F0BE
:10188000ADFD074639462A46334601F00700C0F150
:10189000070ABAF1040F02D94FF0040A01E0C0F1BF
:1018A000070AD14600F1040ABAF1070F02D24FF03D
:1018B000000A01E0A0F1030AD4464FF0010A0AFA37
:1018C00009FAAAF1010A0AEA020A0AFA0CFA4FF026
:1018D000010B0BFA0CFBABF1010B0BEA030B4AEA11
:1018E0000B042146404602F081FDBDE8F09F000058
:1018F00000BF00F00702064B19684FF6FF031940BE
:10190000044B0B4343EA0221014B196000BF7047AF
:101910000CED00E00000FA0570B5044600253CB16E
:1019200094F83200052803D094F83200022801D13F
:10193000012070BD606800B900BF2069802802D115
:10194000606800B900BF6068402800D100BF606ACD
:10195000B0F5802F00D100BF2848806940F0010019
:1019600026498861204600F04DF86068402802D082
:10197000606860281BD1E1686068084321690843FA
:10198000A1690843E1690843216A0843616A084381
:10199000218D40EAC14194F82C0041EA00602168A1
:1019A0000968174A11400843216808601EE0D4E91D
:1019B00001010843E168084321690843616908435C
:1019C000A1690843E1690843216A0843616A084341
:1019D000218D40EAC14194F82C0041EA0060216861
:1019E0000968074A114008432168086094F83200EA
:1019F00010B9012084F8320028469AE7001002400E
:101A0000713800E010B586B0044618492068884255
:101A10000BD106200190032002900020039001A921
:101A20004FF09040FFF7ECFD1EE0104908312068B0
:101A3000884209D10320019002900020039001A95F
:101A40000B48FFF7DDFD0FE008490C3120688842A4
:101A50000AD14FF4C050019003200290002003905F
:101A600001A90348FFF7CCFD06B010BD38000140C6
:101A70000004004870B505460C4604F0800080283C
:101A800008D104F07F00C0EBC00605F1280000EB90
:101A9000860105E0C4EBC40605F5847000EB860101
:101AA0001AB9002088728B8004E001208872CB80F4
:101AB000180C0881002070BD70B504460D4615B1A4
:101AC0000BA004F071FB29460CA004F06DFB10A0E4
:101AD00004F06AFBC5EBC50304F1280101EB8301A7
:101AE0000A692946D4F81C0203F0ACFE70BD000060
:101AF0004445425547203A2000000000446174618B
:101B0000496E206174204550202530327800000055
:101B10000A00000070B504460D4615B10BA004F094
:101B200043FB29460CA004F03FFB10A004F03CFB53
:101B3000C5EBC50304F5847101EB83010A692946ED
:101B4000D4F81C0203F0DFFE70BD0000444542558E
:101B500047203A2000000000446174614F757420F2
:101B60006174204550202530327800000A000000C2
:101B700070B502460B4603F08000802808D103F0C0
:101B80007F00C0EBC00402F1280000EB840107E0F5
:101B900003F07F00C0EBC00402F5847000EB840109
:101BA00003F07F00087003F08000C009487000BF98
:101BB00092F8E801012801D1022070BD012082F8CD
:101BC000E80100BF887A002857D1487850B30C78D4
:101BD0006400106830F8140000F0400078B10C7810
:101BE0006400106830F8140048F68F74204048F202
:101BF000C00420430D786D00146824F815000D789A
:101C00006D00146834F8154048F6BF7504EA050005
:101C100040F4004444F080040E787600156825F8FE
:101C20001640F7E00C786400106830F8140000F4F7
:101C3000804078B10C786400106830F8140048F6E1
:101C40008F7420404CF2800420430D786D0014689E
:101C500024F815000D786D00146834F815404BF623
:101C60008F7504EA050040F4004444F080040E78C7
:101C70007600156825F81640CCE04878002864D135
:101C80000C786400106830F8140000F4804078B1DB
:101C90000C786400106830F8140048F68F74204007
:101CA0004CF2800420430D786D00146824F8150070
:101CB0000C786400106830F8140000F0400078B12F
:101CC0000C786400106830F8140048F68F742040D7
:101CD00048F2C00420430D786D00146824F8150004
:101CE0000C786400106830F8140048F68F742040B7
:101CF00048F2C00420430D786D00146824F81500E4
:101D00000D786D00146834F815404BF68F7504EAB1
:101D1000050040F4004444F080040E787600156815
:101D200025F816400D786D00146834F8154048F613
:101D3000BF7504EA050040F4004444F080040E78C6
:101D40007600156825F8164064E00C786400106889
:101D500030F8140000F4804078B10C78640010680A
:101D600030F8140048F68F7420404CF28004204371
:101D70000D786D00146824F815000C786400106864
:101D800030F8140000F0400078B10C78640010685E
:101D900030F8140048F68F74204048F2C004204305
:101DA0000D786D00146824F815000C786400106834
:101DB00030F8140048F68F7420404CF28004204321
:101DC0000D786D00146824F815000D786D00146806
:101DD00034F8154048F6BF7504EA050040F40044A5
:101DE00044F080040E787600156825F816400D78CA
:101DF0006D00146834F815404BF68F7504EA050041
:101E000040F4004444F080040E787600156825F80C
:101E1000164000BF00BF002082F8E80100BF00BFED
:101E2000CBE670B502460B4603F08000802808D14F
:101E300003F07F00C0EBC00402F1280000EB840136
:101E400005E0C3EBC30402F5847000EB84010020BD
:101E5000887003F07F000870C3F3C010487000BFA3
:101E600092F8E801012801D1022070BD012082F81A
:101E7000E80100BF487870B30C786400106830F84F
:101E8000140000F0400078B10C786400106830F85D
:101E9000140048F68F74204048F2C00420430D78A7
:101EA0006D00146824F815000D786D00146834F87E
:101EB000154048F6BF7504EA050080F0100080F078
:101EC000200040F4004444F080040E787600156849
:101ED00025F816402EE00C786400106830F81400E5
:101EE00000F4804078B10C786400106830F8140079
:101EF00048F68F7420404CF2800420430D786D002A
:101F0000146824F815000D786D00146834F8154035
:101F10004BF68F7504EA050080F4805080F4005081
:101F200040F4004444F080040E787600156825F8EB
:101F3000164000BF00BF002082F8E80100BF00BFCC
:101F400093E7024601F07F00C0EBC00302F5847006
:101F500000EB8300008B80B270472DE9F04104460E
:101F60000D46002705F08000802808D105F07F008D
:101F7000C0EBC00604F1280000EB860107E005F085
:101F80007F00C0EBC00604F5847000EB860105F00D
:101F90007F00087005F08000C0094870CA60CB70EF
:101FA00000BF94F8E801012802D10220BDE8F081C9
:101FB000012084F8E80100BFC87830B1012838D08A
:101FC000022814D0032846D121E00E78760020683C
:101FD00030F8160048F68F16304040F4007691F83D
:101FE00000C04FEA4C0C206820F81C6033E00E78EB
:101FF0007600206830F8160048F68F16304091F8C9
:1020000000C04FEA4C0C266826F81C0023E00E782E
:102010007600206830F8160048F68F16304040F4FD
:10202000C06091F800C04FEA4C0C266826F81C00EE
:1020300011E00E787600206830F8160048F68F160A
:10204000304040F4806691F800C04FEA4C0C2068A4
:1020500020F81C6000BF00BF0E787600206830F8C2
:10206000160048F68F76304048F2800630430E78EE
:10207000304391F800C04FEA4C0C266826F81C004B
:10208000887A00287CD14878E0B3888840104FEAED
:10209000400C2068B0F85060087806EBC000266855
:1020A00006F5806646F810C00E787600206830F895
:1020B000160000F0400088B10E787600206830F8F5
:1020C000160048F68F76304048F2C006304391F84B
:1020D00000C04FEA4C0C266826F81C0091F800C09E
:1020E0004FEA4C0C266836F81C6048F6BF7C06EABE
:1020F0000C0080F0200040F4004646F0800691F885
:10210000008000E006E04FEA4808D4F800C02CF850
:102110001860ABE1888840104FEA400C2068B0F8A6
:102120005060087806EBC000001D266806F5806642
:1021300046F810C02068B0F850C008780CEBC0001A
:10214000801DD4F800C00CF5806C0CEB4006D1F873
:102150000CC0BCF13E0F19D9D1F80CC0CCF34F1014
:1021600091F80CC00CF01F0CBCF1000F03D1A0F1D2
:10217000010C1FFA8CF04FF4004C4CEA802C00E06C
:102180004FE01FFA8CFCC6F800C014E0D1F80CC078
:10219000CCF34F0091F80CC00CF0010CBCF1000F17
:1021A00003D000F1010C1FFA8CF04FF6FF7C0CEA13
:1021B000802CC6F800C00E787600206830F8160033
:1021C00000F4804088B10E787600206830F8160060
:1021D00048F68F7630404CF28006304391F800C0CC
:1021E0004FEA4C0C266826F81C0091F800C04FEA14
:1021F0004C0C266836F81C604BF68F7C06EA0C0007
:1022000080F4805080F4005040F4004646F0800690
:1022100091F800804FEA4808D4F800C02CF8186004
:1022200024E10E787600206830F8160040F48070C3
:1022300048F68F76304048F28006304391F800C06F
:102240004FEA4C0C266826F81C00C88840104FEA5C
:10225000400C2068B0F85060087806EBC000266893
:1022600006F5806646F810C0088940104FEA400C19
:102270002068B0F85060087806EBC000001D2668A2
:1022800006F5806646F810C04878002879D10E78A7
:102290007600206830F8160000F4804088B10E788F
:1022A0007600206830F8160048F68F7630404CF201
:1022B0008006304391F800C04FEA4C0C266826F89F
:1022C0001C000E787600206830F8160000F0400000
:1022D00088B10E787600206830F8160048F68F76C0
:1022E000304048F2C006304391F800C04FEA4C0C31
:1022F000266826F81C000E787600206830F8160054
:1023000048F68F76304048F2C006304391F800C05E
:102310004FEA4C0C266826F81C0091F800C04FEAE2
:102320004C0C266836F81C604BF68F7C06EA0C00D5
:1023300080F4805080F4005040F4004646F080065F
:1023400091F800804FEA4808D4F800C02CF81860D3
:1023500091F800C04FEA4C0C266836F81C6048F62D
:10236000BF7C06EA0C0040F4004646F0800691F877
:1023700000804FEA4808D4F800C02CF8186075E0D7
:10238000FFE70E787600206830F8160000F48040F1
:1023900088B10E787600206830F8160048F68F76FF
:1023A00030404CF28006304391F800C04FEA4C0CAC
:1023B000266826F81C000E787600206830F8160093
:1023C00000F0400088B10E787600206830F81600E2
:1023D00048F68F76304048F2C006304391F800C08E
:1023E0004FEA4C0C266826F81C000E787600206810
:1023F00030F8160048F68F7630404CF280063043B5
:1024000091F800C04FEA4C0C266826F81C0091F8A1
:1024100000C04FEA4C0C266836F81C6048F6BF7CBA
:1024200006EA0C0040F4004646F0800691F8008071
:102430004FEA4808D4F800C02CF8186091F800C0A2
:102440004FEA4C0C266836F81C604BF68F7C06EA87
:102450000C0040F4004646F0800691F800804FEAF8
:102460004808D4F800C02CF8186000BF00BF002056
:1024700084F8E80100BF384698E5F0B504460D46FB
:1024800005F07F00C0EBC00604F5847000EB860108
:102490000A614B6100208861487005F07F00087078
:1024A00000BF94F8E801012801D10220F0BD01200D
:1024B00084F8E80100BFCE684869B04204D9CB680F
:1024C0004869C01A486102E04B6900204861887A77
:1024D00040BB2068B0F85070087807EBC000801D42
:1024E000276807F5806707EB40063E2B0DD9C3F33D
:1024F0004F1003F01F070FB9471EB8B24FF4004743
:1025000047EA8027BFB237600BE0C3F34F0003F008
:1025100001070FB1471CB8B24FF6FF7707EA8027D3
:10252000376039E0487840BB2068B0F850700878D0
:1025300007EBC000801D276807F5806707EB4006A2
:102540003E2B0DD9C3F34F1003F01F070FB9471EE1
:10255000B8B24FF4004747EA8027BFB237600BE0BC
:10256000C3F34F0003F001070FB1471CB8B24FF699
:10257000FF7707EA802737600EE0487801280BD103
:102580002068B0F85060087806EBC000801D26680F
:1025900006F5806646F810300F787F00266836F81A
:1025A00017604BF68F7706EA070080F4805080F4BE
:1025B000005040F4004646F0800691F800C04FEA13
:1025C0004C0C276827F81C6000BF002084F8E80145
:1025D00000BF00BF6AE770B502460B4600BF92F825
:1025E000E801012801D1022070BD012082F8E80134
:1025F00000BF03F08000802808D103F07F00C0EB0B
:10260000C00402F1280000EB840105E0C3EBC30421
:1026100002F5847000EB84010120887003F07F00D4
:102620000870C3F3C01048700878B0B90D786D0019
:10263000146834F815404BF6BF7504EA050080F4C1
:10264000805080F0100040F4004444F080040E7884
:102650007600156825F816402BE04878A0B10D7873
:102660006D00146834F8154048F6BF7504EA05009B
:1026700080F0100040F4004444F080040E787600AE
:10268000156825F8164014E00D786D00146834F8CC
:1026900015404BF68F7504EA050080F4805040F435
:1026A000004444F080040E787600156825F8164042
:1026B00000BF00BF002082F8E80100BF00BF93E721
:1026C0002DE9F04705460F4690461E464FF000099B
:1026D00007F07F00C0EBC00105F1280000EB81048A
:1026E000C4F8108066610020A0610120607007F0CE
:1026F0007F00207000BF95F8E801012802D1022078
:10270000BDE8F087012085F8E80100BFE168606955
:10271000884204D9E6686069801B606102E06669EE
:1027200000206061A07A90B9B3B2A28821692868BC
:1027300002F0CBF82868B0F85010207801EBC00008
:10274000801C296801F5806141F8106072E06078B2
:1027500040BB2868B0F85020207802EBC000801DF4
:102760002A6802F5806202EB40013E2E0DD9C6F3C5
:102770004F1006F01F020AB9421E90B24FF40042F9
:1027800042EA802292B20A600BE0C6F34F0006F0E4
:1027900001020AB1421C90B24FF6FF7202EA802297
:1027A0000A600EE0607801280BD12868B0F850105C
:1027B000207801EBC000801D296801F5806141F897
:1027C000106021784900286830F8110000F04000BE
:1027D00010B1B4F8089001E0B4F80690B3B22169E2
:1027E0004A46286802F071F8607880B9217849007B
:1027F000286830F8110048F68F71084048F2C0018F
:10280000084322785200296821F8120012E060780B
:1028100001280FD121784900286830F8110048F6C6
:102820008F7108404CF280010843227852002968D9
:1028300021F8120022785200296831F8121048F667
:10284000BF7201EA020080F0100080F0200040F426
:10285000004141F0800123785B002A6822F81310C0
:1028600000BF002085F8E80100BF00BF48E770B551
:10287000044600252068B0F8440000F40040B0F59C
:10288000004F02D1204601F0EAFD2068B0F8440074
:1028900000F48060B0F5806F0BD14FF6FF302168F7
:1028A000A1F84400204600F02FF90021204600F056
:1028B00045F92068B0F8440000F48040B0F5804F3E
:1028C00004D14BF6FF702168A1F844002068B0F8ED
:1028D000440000F40050B0F5005F04D14DF6FF70E5
:1028E0002168A1F844002068B0F8440000F480504A
:1028F000B0F5805F14D12068B0F8400020F00400EB
:102900002168A1F840004FF43D452068A0F84050F0
:10291000204600F005F94EF6FF702168A1F844004A
:102920002068B0F8440000F40060B0F5006F1DD1DD
:102930004FF2FF702168A1F844002068B0F8400011
:1029400040F008002168A1F840002068B0F840007D
:1029500040F004002168A1F840002068B0F844006D
:10296000C0F3003010B9204600F014F92068B0F828
:10297000440000F40070B0F5007F07D14FF6FF501F
:102980002168A1F84400204600F0D1F82068B0F892
:10299000440000F48070B0F5807F04D14FF6FF60F2
:1029A0002168A1F8440070BD70B5044600250026DA
:1029B0000CB9012070BD022084F8E901204600F026
:1029C00077F8002529E00121C5EBC50204F12800B4
:1029D00000EB82004170C5EBC50204F1280000F84D
:1029E00022500021C5EBC50200EB8200C170C5EB8F
:1029F000C50204F1280000EB8200C160C5EBC502EE
:102A000004F1280000EB82000161C5EBC50204F16E
:102A1000280000EB820041616D1C6068A842D2D89A
:102A2000002528E00021C5EBC50204F5847000EB09
:102A300082004170C5EBC50204F5847000F8225095
:102A4000C5EBC50200EB8200C170C5EBC50204F501
:102A5000847000EB8200C160C5EBC50204F5847090
:102A600000EB82000161C5EBC50204F5847000EB48
:102A7000820041616D1C6068A842D3D801202168A2
:102A8000A1F8400000202168A1F840002168A1F8C9
:102A900044002168A1F850004FF43D462068A0F89A
:102AA0004060002084F8240084F8E90100BF81E739
:102AB00010B586B004461249206888421DD14FF4F3
:102AC000C050019002200290002003900320049047
:102AD0000E20059001A94FF09040FEF791FD0948A6
:102AE000C06940F400000749C86100221146142063
:102AF000FEF7BFFE1420FEF7AFFE06B010BD0000CB
:102B0000005C00400010024010B504460121D4F8DA
:102B10001C0202F0E9FFD4F81C0202F0ABFF10BD6A
:102B200010B50446D4F81C0202F0C6FF10BD10B563
:102B30000446D4F81C0202F0C6FF10BD024600BFD6
:102B400092F8E801012801D102207047012082F8A3
:102B5000E80100BF21B980201368A3F84C0001E010
:102B600082F8241000BF002082F8E80100BF00BFF7
:102B7000EBE710B5044604F5F671D4F81C0202F038
:102B8000C1FF10BD10B5044601212046AFF30080FF
:102B9000002010BD10B50446D4F81C0202F0FBFF63
:102BA000A06928B10348006840F0060001490860A8
:102BB00010BD000010ED00E070B5044600250026B1
:102BC000206800F48030B0F5803F75D19248C0692C
:102BD00040F080509049C8619048006840F480708F
:102BE0008E490860FEF7F2FD054606E0FEF7EEFDB1
:102BF000401B642801D9032070BD8848006800F498
:102C000080700028F2D08448006A00F44070A188E7
:102C100001F4407188420AD07F48006A20F440766F
:102C200001207F490860002008607B4806626068D8
:102C3000B0F5807F38D1FEF7C9FD054608E0FEF704
:102C4000C5FD401B41F28831884201D90320D3E7FA
:102C50004020022191FAA1F1B1FA81F1084301214A
:102C6000B1EB501F02D16C4800680FE040200221F8
:102C700091FAA1F1B1FA81F108430221B1EB501FA1
:102C800002D16548006A01E06348406A402102229F
:102C900092FAA2F2B2FA82F2114301F01F0201216C
:102CA000914008400028CAD05B48006A20F4407078
:102CB0006168084358490862207800F0010038B183
:102CC0005548006B20F00300A1680843524908638F
:102CD000207800F00200022807D14F48006B20F452
:102CE0004030E16808434C490863207800F0040054
:102CF000042807D14848006B20F44020216908438C
:102D000045490863207800F02000202807D1424878
:102D1000006B20F01000E16908433F490863206818
:102D200000F40030B0F5003F07D13B48406820F484
:102D30008000A16B084338494860207800F04000CB
:102D4000402807D13448006B20F02000216A084356
:102D500031490863207800F00800082807D12E4880
:102D6000006B20F44010616908432B490863207808
:102D700000F01000102807D12748006B20F4400015
:102D8000A169084324490863208800F40070B0F565
:102D9000007F07D12048406820F40000E16A084322
:102DA0001D494860207800F08000802807D11A482B
:102DB000C06A20F4F870616A08431749C862208825
:102DC00000F48070B0F5807F07D11348C06A20F40A
:102DD0007850A16A08431049C862208800F48050E6
:102DE000B0F5805F07D10C48006B20F48070216B38
:102DF000084309490863208800F40050B0F5005FDB
:102E000007D10548006B20F40070616B084302494C
:102E100008630020F0E6000000100240007000404F
:102E20004004424270B504460D460026F74800684B
:102E300000F00700A84270D2F448006820F00700B4
:102E40002843F24908600846006800F00700A842DD
:102E500001D0012070BD207800F00200022807D1C7
:102E6000EB48406820F0F000A1680843E84948605A
:102E7000207800F0010000286FD0606801282DD173
:102E80002020010391FAA1F1B1FA81F10843012157
:102E9000B1EB501F02D1DE4800680FE02020010393
:102EA00091FAA1F1B1FA81F108430221B1EB501F6F
:102EB00002D1D748006A01E0D548406A20210A03C0
:102EC00092FAA2F2B2FA82F2114301F01F0201213A
:102ED00091400840002861D10120BBE760680228CA
:102EE0002DD12020010591FAA1F1B1FA81F1084319
:102EF0000121B1EB501F02D1C548006810E020202D
:102F0000010591FAA1F1B1FA81F108430221B1EB77
:102F1000501F03D1BE48006A02E083E0BC48406A0B
:102F200020210A0592FAA2F2B2FA82F2114301F0CC
:102F30001F0201219140084078BB01208AE7202030
:102F4000022191FAA1F1B1FA81F108430121B1EB1B
:102F5000501F03D1AE48006810E05BE12020022141
:102F600091FAA1F1B1FA81F108430221B1EB501FAE
:102F700002D1A748006A01E0A548406A2021022248
:102F800092FAA2F2B2FA82F2114301F01F02012179
:102F90009140084008B901205CE7FFE79C48406881
:102FA00020F003006168084399494860FEF70EFC71
:102FB00006466068012810D108E0FEF707FC801B78
:102FC00041F28831884201D9032043E790484068A4
:102FD00000F00C000428F0D11CE16068022810D138
:102FE00008E0FEF7F3FB801B41F28831884201D9EB
:102FF00003202FE78648406800F00C000828F0D135
:1030000008E108E0FEF7E2FB801B41F288318842CC
:1030100001D903201EE77E48406800F00C0000281C
:10302000F0D1F7E0207800F00200022807D17848BC
:10303000406820F0F000A168084375494860207896
:1030400000F0010000286ED0606801282CD12020FB
:10305000010391FAA1F1B1FA81F108430121B1EB29
:10306000501F02D16A4800680FE02020010391FA46
:10307000A1F1B1FA81F108430221B1EB501F02D155
:103080006348006A01E06248406A20210A0392FA1C
:10309000A2F2B2FA82F2114301F01F020121914023
:1030A000084088BB0120D5E6606802282DD1202089
:1030B000010591FAA1F1B1FA81F108430121B1EBC7
:1030C000501F02D1524800680FE02020010591FAFC
:1030D000A1F1B1FA81F108430221B1EB501F02D1F5
:1030E0004B48006A01E04A48406A20210A0592FAEA
:1030F000A2F2B2FA82F2114301F01F0201219140C3
:10310000084008B90120A5E62DE02020022191FA0F
:10311000A1F1B1FA81F108430121B1EB501F03D1B4
:103120003B48006810E061E02020022191FAA1F103
:10313000B1FA81F108430221B1EB501F02D13448AA
:10314000006A01E03248406A2021022292FAA2F28B
:10315000B2FA82F2114301F01F02012191400840AE
:1031600008B9012076E62A48406820F0030061682B
:10317000084327494860FEF729FB06466068012896
:1031800010D108E0FEF722FB801B41F28831884213
:1031900001D903205EE61E48406800F00C000428B8
:1031A000F0D123E06068022810D108E0FEF70EFBA2
:1031B000801B41F28831884201D903204AE6144835
:1031C000406800F00C000828F0D10FE008E0FEF79E
:1031D000FDFA801B41F28831884201D9032039E68B
:1031E0000B48406800F00C000028F0D10748006848
:1031F00020F007002843054908600846006800F0F1
:103200000700A84206D0012024E60000002002406A
:1032100000100240207800F00400042807D10D4877
:10322000406820F4E060E16808430A49486020787B
:1032300000F00800082808D10648406820F46050D3
:10324000216940EAC100034948600020FEF7E0FA26
:103250000020FFE50010024010B500F045F80949D4
:10326000496801F0F001F02292FAA2F2B2FA82F279
:10327000D140054A515CC8400449086008460068CE
:1032800010BD000000100240686700080C0000201C
:1032900010B5FFF7E1FF0749496801F4E0614FF419
:1032A000E06292FAA2F2B2FA82F2D140024A515C92
:1032B000C84010BD001002406867000810B5FFF755
:1032C000CBFF0749496801F460514FF4605292FA0C
:1032D000A2F2B2FA82F2D140024A515CC84010BD5B
:1032E000001002406867000870B500210024002229
:1032F000002300201A4D696801F00C0565B3042D08
:1033000002D0082D27D101E0164827E001F47015FE
:103310004FF4701696FAA6F6B6FA86F6F540124EF7
:10332000725D0F4DED6A05F00F050F2696FAA6F6B1
:10333000B6FA86F6F5400D4E745D01F480352DB178
:10334000084DB5FBF4F505FB02F302E0084D02FB66
:1033500005F3184602E000BF024800BF00BF70BD81
:103360000010024000127A007867000888670008A1
:1033700000093D0070B504460025207800F00100EA
:1033800000286FD0F948406800F00C0004280CD0E9
:10339000F648406800F00C00082837D1F348406830
:1033A00000F48030B0F5803F30D12020010391FA45
:1033B000A1F1B1FA81F108430121B1EB501F02D113
:1033C000EA4800680FE02020010391FAA1F1B1FA68
:1033D00081F108430221B1EB501F02D1E348006A9A
:1033E00001E0E248406A20210A0392FAA2F2B2FA0E
:1033F00082F2114301F01F02012191400840002890
:10340000BFD060680128BCD0012070BD0020D74922
:103410008870FEF7DBF9054608E0FEF7D7F9401B98
:1034200041F28831884201D90320EEE720200103D0
:1034300091FAA1F1B1FA81F108430121B1EB501FDA
:1034400002D1CA48006810E02020010391FAA1F1DE
:10345000B1FA81F108430221B1EB501F03D1C348F7
:10346000006A02E090E0C148406A20210A0392FA13
:10347000A2F2B2FA82F2114301F01F02012191403F
:1034800008400028C9D12079B84988700846C06A28
:1034900020F00F00A1680843B449C86260680128A1
:1034A00039D1FEF793F9054608E0FEF78FF9401B86
:1034B00041F28831884201D90320A6E72020010388
:1034C00091FAA1F1B1FA81F108430121B1EB501F4A
:1034D00002D1A64800680FE02020010391FAA1F173
:1034E000B1FA81F108430221B1EB501F02D19F488C
:1034F000006A01E09D48406A20210A0392FAA2F284
:10350000B2FA82F2114301F01F02012191400840FA
:103510000028CAD038E0FEF759F9054608E0FEF762
:1035200055F9401B41F28831884201D903206CE7EC
:103530002020010391FAA1F1B1FA81F108430121A0
:10354000B1EB501F02D1894800680FE02020010331
:1035500091FAA1F1B1FA81F108430221B1EB501FB8
:1035600002D18248006A01E08048406A20210A03B3
:1035700092FAA2F2B2FA82F2114301F01F02012183
:10358000914008400028CAD1207800F002000228AB
:103590004ED17648406800F00C0050B17348406846
:1035A00000F00C00082844D17048406800F48030D6
:1035B00078BB2020022191FAA1F1B1FA81F10843F0
:1035C0000121B1EB501F02D1684800680FE02020B4
:1035D000022191FAA1F1B1FA81F108430221B1EB84
:1035E000501F02D16148006A01E06048406A202112
:1035F000022292FAA2F2B2FA82F2114301F01F0201
:1036000001219140084028B12069012802D0012001
:10361000FBE60EE05548006820F0F800F82292FA28
:10362000A2F2B2FA82F26169914008434F49086000
:1036300086E02069F0B301204D490860FEF7C6F826
:10364000054606E0FEF7C2F8401B642801D90320B6
:10365000DBE62020022191FAA1F1B1FA81F10843C1
:103660000121B1EB501F02D1404800680FE020203B
:10367000022191FAA1F1B1FA81F108430221B1EBE3
:10368000501F02D13948006A01E03848406A2021C1
:10369000022292FAA2F2B2FA82F2114301F01F0260
:1036A0000121914008400028CCD03048006820F02B
:1036B000F80000E00AE0F82292FAA2F2B2FA82F2EE
:1036C0006169914008432949086039E00020284990
:1036D0000860FEF77BF8054606E0FEF777F8401B2A
:1036E000642801D9032090E62020022191FAA1F15B
:1036F000B1FA81F108430121B1EB501F02D11B48FF
:1037000000680FE02020022191FAA1F1B1FA81F1C5
:1037100008430221B1EB501F02D11448006A01E0B6
:103720001248406A2021022292FAA2F2B2FA82F2F0
:10373000114301F01F020121914008400028CCD123
:10374000207800F0080008287ED1A06980B301200D
:1037500008490860FEF73AF805460DE0FEF736F82E
:10376000401B642808D903204FE6000000100240E7
:1037700000004242800442426020022191FAA1F1FD
:10378000B1FA81F108430121B1EB501F02D1FA488F
:10379000006810E06020022191FAA1F1B1FA81F1F4
:1037A00008430221B1EB501F03D1F348006A02E045
:1037B00010E0F148406A6021022292FAA2F2B2FAC5
:1037C00082F2114301F01F020121914008400028BC
:1037D000C4D039E00020E9490860FDF7F7FF05464D
:1037E00006E0FDF7F3FF401B642801D903200CE637
:1037F0006020022191FAA1F1B1FA81F1084301217F
:10380000B1EB501F02D1DC4800680FE060200221BC
:1038100091FAA1F1B1FA81F108430221B1EB501FF5
:1038200002D1D548006A01E0D348406A60210222F3
:1038300092FAA2F2B2FA82F2114301F01F020121C0
:10384000914008400028CCD1207800F004000428E2
:1038500073D1C948C06940F08050C749C861C848A1
:10386000006840F48070C6490860FDF7AFFF054668
:1038700006E0FDF7ABFF401B642801D90320C4E537
:10388000BF48006800F480700028F2D0BA48006A8F
:1038900020F00500B8490862FDF798FF054608E0EA
:1038A000FDF794FF401B41F28831884201D9032083
:1038B000ABE54020022191FAA1F1B1FA81F1084370
:1038C0000121B1EB501F02D1AB4800680FE040204E
:1038D000022191FAA1F1B1FA81F108430221B1EB81
:1038E000501F02D1A448006A01E0A348406A402169
:1038F000022292FAA2F2B2FA82F2114301F01F02FE
:103900000121914008400028CAD19B48006A20F05C
:103910000500E168084398490862E06801283AD147
:10392000FDF754FF054609E0FDF750FF401B41F24B
:103930008831884202D9032067E565E040200221F2
:1039400091FAA1F1B1FA81F108430121B1EB501FC5
:1039500002D1894800680FE04020022191FAA1F1CC
:10396000B1FA81F108430221B1EB501F02D1824824
:10397000006A01E08048406A4021022292FAA2F2E5
:10398000B2FA82F2114301F01F0201219140084076
:103990000028C9D038E0FDF719FF054608E0FDF71B
:1039A00015FF401B41F28831884201D903202CE5E4
:1039B0004020022191FAA1F1B1FA81F108430121DD
:1039C000B1EB501F02D16C4800680FE0402002218B
:1039D00091FAA1F1B1FA81F108430221B1EB501F34
:1039E00002D16548006A01E06348406A4021022232
:1039F00092FAA2F2B2FA82F2114301F01F020121FF
:103A0000914008400028CAD1E069002876D05A4881
:103A1000406800F00C00082871D0E06902286FD1DE
:103A2000002058490866FDF7D1FE054606E0FDF77F
:103A3000CDFE401B642801D90320E6E420200105C7
:103A400091FAA1F1B1FA81F108430121B1EB501FC4
:103A500002D1494800680FE02020010591FAA1F148
:103A6000B1FA81F108430221B1EB501F02D1424863
:103A7000006A01E04048406A20210A0592FAA2F259
:103A8000B2FA82F2114301F01F0201219140084075
:103A90000028CCD1D4E9081008433749496821F4FB
:103AA0007411084334494860012036490866FDF71F
:103AB0008DFE054606E0FDF789FE401B642801D90E
:103AC0000320A2E42020010591FAA1F1B1FA81F1CD
:103AD00008430121B1EB501F02D12748006812E0D2
:103AE0002020010591FAA1F1B1FA81F108430221E8
:103AF000B1EB501F05D12048006A04E057E054E0C4
:103B000010E01D48406A20210A0592FAA2F2B2FA9A
:103B100082F2114301F01F02012191400840002868
:103B2000C9D044E0002017490866FDF74FFE05465E
:103B300006E0FDF74BFE401B642801D9032064E436
:103B40002020010591FAA1F1B1FA81F10843012188
:103B5000B1EB501F02D10848006817E02020010592
:103B600091FAA1F1B1FA81F108430221B1EB501FA2
:103B70000AD10148006A09E0001002408004424274
:103B800000700040000042420A48406A20210A05B5
:103B900092FAA2F2B2FA82F2114301F01F0201215D
:103BA000914008400028C4D101E001202DE400200C
:103BB0002BE4000000100240042808D14FF0E0215F
:103BC000096941F004014FF0E022116107E04FF074
:103BD000E021096921F004014FF0E02211617047F2
:103BE000704770B504462546681EB0F1807F01D34A
:103BF00001200FE0681E4FF0E02148610F214FF0D7
:103C0000FF3000F0F3FB00204FF0E0218861072037
:103C10000861002070BD10B5FFF7E2FF10BD000085
:103C200030B502460B4600BF92F83800012801D19A
:103C3000022030BD012082F8380000BF10684168C2
:103C4000106884680F4D1068A84203D00E4D1068AC
:103C5000A84203D121F470015868014321F070019A
:103C60001868014324F08004986804431068416098
:103C70001068846000BF002082F8380000BF00BFD9
:103C8000D7E70000002C01400034014010B5044685
:103C90000CB9012010BD94F8390010B9204600F08D
:103CA0000DF8022084F83900211D206800F0AAFEDA
:103CB000012084F839000020ECE700000168B1F130
:103CC000804F05D10349C96941F00101014AD16121
:103CD00070470000001002402DE9F04104460D46F7
:103CE000002600BF94F83800012802D10220BDE868
:103CF000F081012084F8380000BF022084F83900E8
:103D0000206886684148064026F47F462068866021
:103D1000286850283CD00CDC202861D004DC002826
:103D200054D0102866D156E030285ED0402861D1AA
:103D300042E0602836D070280ED0B0F5805F03D006
:103D4000B0F5005F56D116E0206880682F497031C9
:103D50000840216888604EE0D5E902136A6820684F
:103D600000F0A8FE206886682848064046F07706DE
:103D7000206886603FE0D5E902136A68206800F099
:103D800099FE2068806840F480402168886032E0B5
:103D9000EA686968206801F069F85021206800F03D
:103DA00095FE28E0EA686968206801F074F86021EF
:103DB000206800F08BFE1EE0EA686968206801F068
:103DC00055F84021206800F081FE14E000212068B1
:103DD00000F07CFE0FE01021206800F077FE0AE082
:103DE0002021206800F072FE05E03021206800F0FC
:103DF0006DFE00E000BF00BF012084F8390000BF65
:103E0000002084F8380000BF00BF70E788FFFEFF85
:103E100070B504460E46154600BF94F838000128D8
:103E200001D1022070BD012084F8380000BF0220BB
:103E300084F839000C2D1AD005DC4DB1042D0CD0BE
:103E4000082D23D10EE0102D16D0142D1ED118E010
:103E50003146206800F044FE19E03146206800F049
:103E600097FE14E03146206800F0F0FE0FE0314686
:103E7000206800F047FF0AE03146206800F080FF2C
:103E800005E03146206800F0B5FF00E000BF00BF4C
:103E9000012084F8390000BF002084F8380000BFFA
:103EA00000BFBFE710B504460CB9012010BD94F85F
:103EB000390010B9204600F00CF8022084F83900CF
:103EC000211D206800F09EFD012084F839000020AB
:103ED000ECE7704710B504460CB9012010BDA0698D
:103EE00000B100E000BF94F8690010B9204600F06E
:103EF0002BF8022084F869002068006820F0010097
:103F000021680860204601F081F8012800D1E5E72A
:103F1000606A10B1204600F0D4FF2068406820F4A9
:103F20009040216848602068806820F02A0021685D
:103F300088602068006840F0010021680860204621
:103F400001F034F8CAE7000010B586B00446144901
:103F50002068884222D11348C06940F400301149DA
:103F6000C8610820019002200290012003900320E4
:103F700004900720059001A94FF09040FDF740FB09
:103F80002020019002200290012003900320049041
:103F90000720059001A90448FDF732FB06B010BDCB
:103FA0000044004000100240000C004800B587B0FB
:103FB0004FF0A040134908600020486000211148DC
:103FC000816001610121C161002141620163C16021
:103FD000012101624163042141610021816181630A
:103FE000FCF71EFC032001900120029000200490A9
:103FF00003900590069001A90248FCF7AFF907B0BD
:1040000000BD0000D000002000B587B01248134961
:104010000860C00148600021104881600161C161F1
:1040200041620163C16001210162002141630421F9
:104030004161002181618163FCF7F2FB0120019065
:1040400002900020049003900590069001A9034877
:10405000FCF784F907B000BD000400501C010020EB
:1040600000B587B01348144908604FF40030486029
:104070000021114881600161C16141620163C16039
:10408000012101620021416304214161002181611C
:104090008163FCF7C5FB0320019001200290002002
:1040A000049003900590069001A90348FCF756F987
:1040B00007B000BD00050050680100201CB507488E
:1040C000074908600846FCF7A4FD00200090019015
:1040D000002269460248FCF76FFD1CBD00740040D9
:1040E0005C02002010B51648406940F001001449F8
:1040F00048610846406940F00200486100221146CC
:104100000B20FDF7B6FB0B20FDF7A6FB00221146A6
:104110003A20FDF7AEFB3A20FDF79EFB0022114648
:104120003B20FDF7A6FB3B20FDF796FB0022114646
:104130003C20FDF79EFB3C20FDF78EFB10BD0000F0
:104140000010024000B585B03F48406940F40010BF
:104150003D4948610846406940F4002048610846EE
:10416000406940F4800048610846406940F40030EE
:1041700048610846406940F480204861084640692B
:1041800040F48010486137200090304801900020B2
:10419000029069462E48FDF733FA4FF608700090FA
:1041A0000120019000200290039069462848FDF705
:1041B00027FA372000901120019000200290032060
:1041C000039069462348FDF71BFA01200090002068
:1041D0000190029069464FF09040FDF711FAE020FF
:1041E000009002200190002002900390052004908E
:1041F00069464FF09040FDF703FA4EF2040000903C
:10420000112001900020029003200390694612487B
:10421000FDF7F6F980200090032001900020029025
:1042200069460B48FDF7ECF9C02000901220019080
:104230000120029000200390042004906946064863
:10424000FDF7DEF905B000BD0010024000001210BD
:1042500000100048000800480004004810B5084855
:1042600008490860402048600C210648C1600021D0
:104270000161C16101624162FDF74EFB10BD0000AA
:1042800038000140A802002010B50848084908601D
:10429000402048600C210648C16000210161C161D5
:1042A00001624162FDF738FB10BD00004000014093
:1042B000DC02002010B5084808490860402048602A
:1042C00008210648C16000210161C16101624162AB
:1042D000FDF722FB10BD0000440001401003002048
:1042E00000B58FB04FF0804013490860002048604F
:1042F000002111488160C1600161FFF7C7FC4FF4E4
:1043000080500B900BA90C48FFF7E6FC0A48FFF71A
:10431000C9FD002008900A9008A90748FFF780FC13
:1043200000200190029003900590002201A902480C
:10433000FFF76EFD0FB000BD4403002010B50C4820
:104340000C4908604FF4164048600021094881601C
:10435000C16001610C21416100218161C161016283
:104360000020044948620846FFF7B4FD10BD000074
:10437000004400408003002010B50022074908488F
:1043800001F018FA0749064801F010FD06490448F3
:1043900001F0AEFC024801F0EFFD10BD240000204A
:1043A0000C0600206C0000205C00002010B50948BD
:1043B00009490860082048600221074881600021FF
:1043C000C16002210161002181610162FEF7ECFA06
:1043D00010BD0000005C0040EC03002002480068B3
:1043E000C0F30220704700000CED00E010B500287B
:1043F00007DA0A07140E054A00F00F031B1FD454F6
:1044000003E00A07130E024A135410BD18ED00E032
:1044100000E400E0034600BF00BF00BF002070477B
:104420000020704710B50848084908600022084974
:104430000648006801F069FC06490448006801F07C
:104440005EFC002010BD00000C060020580000207B
:10445000C80A0020880A00200246002070472DE983
:10446000FC41054600270020009011E2BDF8040041
:1044700000F00F06002E7DD1BDF8040000F0100002
:1044800088BB2868008848F60F71084029680880B2
:1044900005F128042868B0F85010207801EBC0001E
:1044A000801C296801F5806131F81000C0F3090013
:1044B000A061A16920690844206100212846FDF718
:1044C000FBFA95F824000028CFDD60690028CCD1E4
:1044D00095F8240040F080002968A1F84C000020E5
:1044E00085F82400D4E1FFE705F584742868008886
:1044F0000090BDF8000000F4006018B32868B0F820
:104500005010207801EBC000801D296801F5806102
:1045100031F81000C0F30900A061218B8BB2A28892
:1045200005F5F671286800F0BEF928680088C0F328
:104530000E0048F68F710840296808802846FEF76B
:1045400018FBA5E1BDF8000000F4004000288CD065
:1045500028680088C0F30E0048F68F71084029686B
:1045600008802868B0F85010207801EBC000801D4A
:10457000296800E054E001F5806131F81000C0F3D3
:104580000900A061A06960B1B4F818C01FFA8CF3EB
:10459000A2882169286800F086F9A1692069084489
:1045A000206100212846FDF7B5FA2A6802F58062ED
:1045B0002868B0F85000801D02EB4001E2683E2AF6
:1045C0000FD9E268C2F34F10227B02F01F020AB932
:1045D000421E90B24FF4004242EA802292B20A6038
:1045E0000DE0E268C2F34F00227B02F001020AB143
:1045F000421C90B24FF6FF7202EA80220A602968DC
:1046000009884BF68F7201EA020080F4805080F432
:10461000005040F4004141F080012A68118037E1E8
:104620007100286830F811000090BDF8000000F417
:10463000004000287DD07100286830F81100C0F3D8
:104640000E0048F68F7108407200296821F81200A8
:10465000C6EBC60105F5847000EB8104A07AA8B909
:104660002868B0F85010207801EBC000801D296840
:1046700001F5806131F81000C0F30907EFB3A2889B
:1046800021693B46286800F00EF944E02178490092
:10469000286830F8110000F48040A8B12868B0F80C
:1046A0005010207801EBC000801C296801F5806162
:1046B00031F81000C0F30907DFB1E28821693B46F9
:1046C000286800F0F0F814E02868B0F8501020785E
:1046D00001EBC000801D296801F5806131F81000F0
:1046E000C0F309072FB1228921693B46286800F0F1
:1046F000DAF821784900286800E00CE030F8110071
:1047000048F68F71084048F2C001084322785200F1
:10471000296821F81200A0693844A0612069384452
:104720002061606910B1E068B84206D92178284656
:1047300000E008E0FDF7EEF905E021782846D4E92D
:104740000423FDF79AFEBDF8000000F08000002869
:104750007DD0C6EBC60105F1280000EB8104710095
:10476000286830F8110048F60F7108407200296877
:1047700021F81200A07AD0B92868B0F8501020783B
:1047800001EBC000801C296801F5806131F8100040
:10479000C0F30900A061A069E8B3B4F818C01FFA1B
:1047A0008CF3A2882169286800F08FF84EE0217808
:1047B0004900286830F8110000F04000D0B12868A6
:1047C000B0F85010207801EBC000801C296801F57A
:1047D000806131F81000C0F30900A061A06928B31E
:1047E000B4F818C01FFA8CF3E2882169286800F039
:1047F0006CF81BE02868B0F85010207801EBC0007E
:10480000801D296801F5806131F81000C0F30900AE
:10481000A061A06900E019E040B1B4F818C01FFA27
:104820008CF322892169286800F04FF8217849002B
:10483000286830F8110048F68F7108404CF280016A
:10484000084322785200296821F8120000E01FE096
:104850002868B0F85010207801EBC000801C29684F
:1048600001F5806131F81000C0F30900A061A16971
:10487000206908442061606920B921782846FDF745
:104880001BF905E021782846D4E90423FDF718FF39
:104890002868B0F84400019000F4004000287FF43C
:1048A000E5ADBDE8FC81F0B55F1C7E1000EB420772
:1048B00007F58065344605E035F804CB21F801CBD7
:1048C000491C641E002CF7D1F0BD2DE9F0410446CF
:1048D0001D4605F101084FEA680C04EB420808F593
:1048E000806366460AE00F78491C91F8008047EA29
:1048F000082023F8020B9B1C491C761E002EF2D1C7
:10490000BDE8F08110B5FCF767FFFFF784F910BD33
:1049100010B59EB00120149005201590002016902F
:1049200002201B90C1031C914FF4E0111D9114A8AB
:10493000FEF720FD05200F9002201090002011901E
:104940004FF4806012900020139002210FA8FEF710
:1049500069FA0F480090002003904FF4807009908E
:1049600000200E906846FEF727F9FEF775FC4FF41D
:10497000FA51B0FBF1F42046FFF733F90020FFF7BE
:104980001BF900221146501EFCF773FF1EB010BD2C
:10499000820002001648006840F0010014490860D7
:1049A00008464068134908401149486008460068B5
:1049B000114908400E4908600846006820F480202C
:1049C00008600846406820F4FE0048600846C06A57
:1049D00020F00F00C8620846006B084908400449EF
:1049E000086300208860C80305490860704700001C
:1049F000001002400CC07FF8FFFFF6FECCFC00FF69
:104A000008ED00E000220268234B98420BD0B0F181
:104A1000804F08D0214B984205D0214B984202D0BC
:104A2000204B984203D122F070024B681A431A4B74
:104A3000984214D0B0F1804F11D0184B98420ED04C
:104A4000174B98420BD0174B984208D0164B984200
:104A500005D0164B984202D0154B984203D122F450
:104A60004072CB681A4302608B68C3620B68836232
:104A7000094B98420BD00B4B984208D00A4B9842F6
:104A800005D00A4B984202D0094B984201D10B69DC
:104A90000363012343617047002C01400004004080
:104AA0000008004000340140004001400044014043
:104AB0000048014030B50C460021816821F47F4157
:104AC00042EA032525432943816030BD0A4600217F
:104AD000816821F0700142F007031943816070473B
:104AE00030B5002400220023056A25F00105056287
:104AF000026A43688469204D2C4024F003040D6849
:104B00002C4322F002028D682A431C4DA84200D19A
:104B10000FE01B4DA84200D10BE01A4DA84200D176
:104B200007E0194DA84200D103E0184DA84206D174
:104B300000BF22F00802CD682A4322F004020F4D84
:104B4000A8420BD00E4DA84208D00E4DA84205D069
:104B50000D4DA84202D00D4DA84207D123F4807319
:104B600023F400734D692B438D692B4343608461AB
:104B70004D684563026230BD8FFFFEFF002C01408F
:104B80000034014000400140004401400048014021
:104B900030B5002400220023056A25F010050562C7
:104BA000026A43688469234D2C4024F440740D68E4
:104BB00044EA052422F020028D6842EA05121E4DC7
:104BC000A84200D10FE01D4DA84200D10BE01C4DC2
:104BD000A84200D100BF1B4DA84200D100BF1A4D12
:104BE000A84207D106E022F08002CD6842EA051211
:104BF00022F04002104DA8420BD0104DA84208D020
:104C00000F4DA84205D00F4DA84202D00E4DA8422C
:104C100009D123F4806323F400634D6943EA8503DB
:104C20008D6943EA8503436084614D688563026250
:104C300030BD0000FF8FFFFE002C0140003401401A
:104C400000400140004401400048014030B50024CC
:104C500000220023056A25F480750562026A436814
:104C6000C469224D2C4024F003040D682C4322F427
:104C700000728D6842EA05221D4DA84200D10FE066
:104C80001C4DA84200D10BE01B4DA84200D100BF33
:104C90001A4DA84200D100BF194DA84207D106E025
:104CA00022F40062CD6842EA052222F48062104DAF
:104CB000A8420BD00F4DA84208D00F4DA84205D0F6
:104CC0000E4DA84202D00E4DA84209D123F48053C4
:104CD00023F400534D6943EA05138D6943EA051334
:104CE0004360C4614D68C563026230BD8FFFFEFF43
:104CF000002C0140003401400040014000440140CC
:104D00000048014030B5002200230024056A25F444
:104D100080550562036A4468C269134D2A4022F433
:104D200040720D6842EA052223F400538D6843EA7D
:104D300005330E4DA8420BD00D4DA84208D00D4DA5
:104D4000A84205D00C4DA84202D00C4DA84204D177
:104D500024F480444D6944EA85144460C2614D687E
:104D60000564036230BD0000FF8FFFFE002C014090
:104D7000003401400040014000440140004801402F
:104D800030B5002400220023056A25F48035056231
:104D9000026A4368446D114D2C400D682C4322F487
:104DA00000320D8942EA05420D4DA8420BD00D4D4F
:104DB000A84208D00C4DA84205D00C4DA84202D004
:104DC0000B4DA84204D123F480334D6943EA0523F7
:104DD000436044654D688565026230BD8FFFFEFF0C
:104DE000002C0140003401400040014000440140DB
:104DF0000048014030B5002400220023056A25F454
:104E000080150562026A4368446D124D2C400D689E
:104E100044EA052422F400120D8942EA05520E4D9F
:104E2000A8420BD00D4DA84208D00D4DA84205D088
:104E30000C4DA84202D00C4DA84204D123F480238B
:104E40004D6943EA8523436044654D68C565026248
:104E500030BD0000FF8FFFFE002C014000340140F8
:104E600000400140004401400048014030B50B467D
:104E7000144600210022026A056A25F00105056238
:104E8000816921F0F00141EA041122F00A021A437B
:104E90008161026230BD30B50B461446002100220C
:104EA000056A25F0100505628169026A21F47041E6
:104EB00041EA043122F0A00242EA03128161026257
:104EC00030BD90F8241001F0010139B10168496842
:104ED00021F40031826A11430268516090F8241075
:104EE00001F0020139B10168496821F48031C26AD8
:104EF00011430268516090F8241001F0040139B1A7
:104F00000168496821F48021026B114302685160F5
:104F100090F8241001F0080139B10168496821F4C2
:104F20000041426B11430268516090F8241001F077
:104F3000100139B10168896821F48051826B1143F5
:104F40000268916090F8241001F0200139B10168E5
:104F5000896821F40051C26B11430268916090F896
:104F6000241001F0400199B10168496821F48011D1
:104F7000026C114302685160016CB1F5801F07D1CA
:104F80000168496821F4C001426C11430268516014
:104F900090F8241001F0800139B10168496821F4CA
:104FA0000021826C114302685160704710B50446BD
:104FB000002084F86A002068006800F008000828D3
:104FC00009D16FF07E4300228104204600F070F981
:104FD00008B1032010BD2068006800F00400042818
:104FE00009D16FF07E4300220105204600F060F9F0
:104FF00008B10320EEE7012084F8690000BF00201B
:1050000084F8680000BF00BFE4E700002DE9F04726
:105010000446002510260027A846A9462169A06855
:10502000084361690843E16940EA010520680068B6
:1050300049F20C6188432843216808602068406871
:1050400020F44050E168084321684860216AA06963
:1050500040EA01052068806820F430602843216818
:10506000886000BF8A492068884214D18948006B53
:1050700000F0030030B1012808D0022808D003282E
:1050800008D101E0012605E0022603E0042601E044
:10509000082600BF6FE080492068884217D17D480C
:1050A000006B00F4403048B1B0F5803F0AD0B0F555
:1050B000003F09D0B0F5403F08D101E0002605E0EF
:1050C000022603E0042601E0082600BF53E07349EE
:1050D0002068884217D16F48006B00F4402048B127
:1050E000B0F5802F0AD0B0F5002F09D0B0F5402FD1
:1050F00008D101E0002605E0022603E0042601E0D5
:10510000082600BF37E066492068884217D1614809
:10511000006B00F4401048B1B0F5801F0AD0B0F524
:10512000001F09D0B0F5401F08D101E0002605E0BE
:10513000022603E0042601E0082600BF1BE05949CF
:105140002068884217D15348006B00F4400048B1F2
:10515000B0F5800F0AD0B0F5000F09D0B0F5400FC0
:1051600008D101E0002605E0022603E0042601E064
:10517000082600BF00BF00BFE069B0F5004F46D170
:10518000042E24D005DC4EB1012E10D0022E2FD1DA
:1051900016E0082E24D0102E2AD12AE0FEF778F847
:1051A00040006168B0FBF1F01FFA80F824E0FEF7E0
:1051B00085F840006168B0FBF1F01FFA80F81BE051
:1051C00039496068B1FBF0F01FFA80F814E0FEF78F
:1051D0008BF840006168B0FBF1F01FFA80F80BE03B
:1051E0004FF480316068B1FBF0F01FFA80F803E003
:1051F00000BF4FF0010900BF00BF4FF6F07008EA92
:105200000007C8F3420007432068C7603DE0042E52
:1052100025D005DC4EB1012E10D0022E30D116E083
:10522000082E25D0102E2BD12BE0FEF731F8616827
:10523000B0FBF1F080B22168C86025E0FEF73EF8CF
:105240006168B0FBF1F080B22168C8601CE01749CA
:105250006068B1FBF0F080B22168C86014E0FEF72E
:1052600043F86168B0FBF1F080B22168C8600BE0E0
:105270004FF400416068B1FBF0F02168C86003E0C2
:1052800000BF4FF0010900BF00BF4846BDE8F087EE
:105290000038014000100240004400400048004037
:1052A000004C0040005000400024F40000127A003E
:1052B0002DE9F04104460E4617461D46FCF786FAD6
:1052C00080469FBB2BE0681C48B32DB1FCF77EFAEB
:1052D000A0EB0800A84222D92068006820F08000D6
:1052E000216808602068006820F0200021680860BC
:1052F0002068006820F48070216808602068806859
:1053000020F0010021688860032084F8690000BF54
:10531000002084F8680000BF0320BDE8F081206809
:10532000C0693040B04202D1012001E003E000201A
:105330000028C8D035E02AE0681C40B32DB1FCF746
:1053400045FAA0EB0800A84221D92068006820F0A7
:105350008000216808602068006820F02000216833
:1053600008602068006820F4807021680860206868
:10537000806820F0010021688860032084F86900BB
:1053800000BF002084F8680000BF0320C5E7206844
:10539000C0693040B04201D1012000E00020002867
:1053A000CAD10020B9E770B504460D46D4F81402FE
:1053B0002946426820469047002070BD70B50446DB
:1053C0000D4694F8FC01022802D0032811D100E018
:1053D00000BF688801280BD10020C4F80402D4F86B
:1053E00014022946826820469047204600F05EF865
:1053F00004E02946204600F01BF800BF00BF70BD46
:1054000070B506460C4615462B462246002130460E
:1054100000F020FB002070BD70B506460C46154616
:105420002B4622460021304600F0BFFB002070BD15
:1054300070B504460D468021204600F09AFB0021FD
:10544000204600F096FB70BD70B504460E4615462A
:105450000320C4F8F4014FF484700551001D055178
:105460002B4632460021204600F0F4FA002070BDA1
:1054700010B504460520C4F8F40100231A46194665
:10548000204600F0E7FA002010BD70B504460E4635
:1054900015460220C4F8F401A561E5612B463246A9
:1054A0000021204600F081FB002070BD10B50446AD
:1054B0000420C4F8F40100231A461946204600F0DF
:1054C00074FB002010BD000070B505460C46224656
:1054D000024903A000F044F9004870BD880800208C
:1054E0004F7363696C6C6F73636F706500000000CD
:1054F000024612200880014870470000400000204A
:1055000070B505460C462246024903A000F028F972
:10551000004870BD880800204F7363696C6C6F731E
:10552000636F706500000000024604200880014897
:10553000704700005400002070B505460C46224616
:10554000024903A000F00CF9004870BD8808002053
:10555000687474703A2F2F656C6D6F742E78797A39
:105560000000000070B505460C462246024903A023
:1055700000F0F6F8004870BD8808002046332D4F33
:105580007363696C6C6F73636F70650070B505460B
:105590000C462246024903A000F0E2F8004870BD24
:1055A00088080020302E303031416C706861000076
:1055B00070B504460D46E888012804D029462046E7
:1055C000FFF736FF1BE094F8FC01022802D0032805
:1055D0000FD108E00020A060012204F1080120465C
:1055E000FFF753FF0AE00122211D2046FFF74DFF80
:1055F00004E029462046FFF71BFF00BF00BF70BD37
:10560000F8B504460E4670880012012804D002281E
:105610000AD003285BD11BE0207CD4F810120A6862
:1056200069469047054657E0207C40B9D4F81402FB
:10563000816A6846884705460221697007E0D4F808
:105640001402C16A6846884705460221697043E032
:10565000B078062834D2DFE800F0030B131B232BAD
:10566000207CD4F810124A686946904705462CE021
:10567000207CD4F810128A6869469047054624E0D9
:10568000207CD4F81012CA686946904705461CE091
:10569000207CD4F810120A6969469047054614E048
:1056A000207CD4F810124A696946904705460CE000
:1056B000207CD4F810128A6969469047054604E0B8
:1056C00031462046FFF7B4FEF8BD00BF04E0314686
:1056D0002046FFF7ADFEF7E700BFBDF8000088B138
:1056E000F08878B1F088BDF80010884202DDBDF87E
:1056F000000000E0F0880090BDF800202946204618
:10570000FFF7C3FE00BFDFE70146002002E0421CB6
:10571000D0B2491C0A78002AF9D1704770B5044606
:105720000D4694F8FC01022802D0032811D100E0B4
:1057300000BF0120E060D4F8040218B1E06840F036
:105740000200E060022204F10C012046FFF79DFEFA
:1057500004E029462046FFF76BFE00BF00BF70BD86
:105760002DE9F04104460D4617460026FCB12046BF
:10577000FFF7CAFF022101EB400038803A7830463B
:10578000711CCEB22A5403223046711CCEB22A5468
:105790000AE014F8012B3046711CCEB22A540022C4
:1057A0003046711CCEB22A5420780028F1D1BDE8D1
:1057B000F081000070B504460D46164654B90EA09F
:1057C00000F0F2FC0EA000F0EFFC13A000F0ECFCE7
:1057D000022070BDD4F8140210B10020C4F81402E5
:1057E0000DB1C4F81052012084F8FC012670204647
:1057F00000F0D6F80020ECE74552524F523A200014
:10580000496E76616C6964204465766963652068D9
:10581000616E646C650000000A00000070B504460B
:105820000D462946D4F82002FCF7FBFA002070BD93
:1058300070B504460D462946D4F82002FCF798F9C5
:10584000002070BD2DE9F04104460E461746002E9B
:1058500048D104F11405D4F8F401022837D1D5E970
:10586000020188420AD9D5E90201401AA8602889B4
:1058700082B239462046FFF7CFFD28E0E968686824
:10588000B0FBF1F201FB120088B9E9686868884250
:105890000DD36868D4F8F811884208D20022114666
:1058A0002046FFF7B9FD0020C4F8F8010FE0D4F856
:1058B0001402C06840B194F8FC01032804D1D4F864
:1058C0001402C168204688472046FFF7D1FD94F8AE
:1058D0000002012814D1204600F08EFA002084F83E
:1058E00000020DE0D4F81402406948B194F8FC01BC
:1058F000032805D1D4F81402314642692046904766
:105900000020BDE8F0812DE9F04105460E4617461E
:105910005EBB05F58274D5F8F401032833D1D4E9D0
:105920000201884210D9D4E90201401AA060D4E9EA
:105930000201884201D2A06800E0E06882B23946E4
:105940002846FFF75DFD1EE0D5F81402006940B15E
:1059500095F8FC01032804D1D5F814020169284602
:1059600088472846FFF7A2FD0DE0D5F814028069AC
:1059700048B195F8FC01032805D1D5F81402314649
:105980008269284690470020BDE8F08170B5044642
:105990000D462946D4F82002FCF7D3FA70BD00006A
:1059A00010B504461448C0F81C4204F50874206081
:1059B0001823002211462068FCF75CF858230022C7
:1059C00080212068FCF756F8982300228121206866
:1059D000FCF750F8D823002282212068FCF74AF80F
:1059E0002068A4F508744FF48C7300220321FCF79F
:1059F00041F8002010BD0000EC03002010B5024665
:105A0000D2F8203201F08000802809D101F07F0017
:105A1000C0EBC00403F1280000EB8400807810BDC7
:105A200001F07F00C0EBC00403F5847000EB84003C
:105A30008078F4E72DE9F04104460F4615461E46EE
:105A40002B4632463946D4F82002FCF786FA00206D
:105A5000BDE8F0812DE9F04104460D4616461F468B
:105A60003B4632462946D4F82002FCF706FD0020CA
:105A7000BDE8F08110B504464023002211462046BF
:105A8000FFF7D8FF40214FF48870015140230022D6
:105A900080212046FFF7CEFF40212162012084F8BB
:105AA000FC01D4F8180228B12179D4F81402426814
:105AB00020469047002010BD014691F8FD0181F875
:105AC000FC010020704710B5044694F8FC0103283F
:105AD00008D1D4F81402C06920B1D4F81402C16905
